{"abi":[{"type":"constructor","inputs":[],"stateMutability":"nonpayable"},{"type":"function","name":"getNumber","inputs":[],"outputs":[{"name":"","type":"uint256","internalType":"uint256"}],"stateMutability":"view"},{"type":"function","name":"owner","inputs":[],"outputs":[{"name":"","type":"address","internalType":"address"}],"stateMutability":"view"},{"type":"function","name":"renounceOwnership","inputs":[],"outputs":[],"stateMutability":"nonpayable"},{"type":"function","name":"store","inputs":[{"name":"newNumber","type":"uint256","internalType":"uint256"}],"outputs":[],"stateMutability":"nonpayable"},{"type":"function","name":"transferOwnership","inputs":[{"name":"newOwner","type":"address","internalType":"address"}],"outputs":[],"stateMutability":"nonpayable"},{"type":"event","name":"NumberChanged","inputs":[{"name":"number","type":"uint256","indexed":false,"internalType":"uint256"}],"anonymous":false},{"type":"event","name":"OwnershipTransferred","inputs":[{"name":"previousOwner","type":"address","indexed":true,"internalType":"address"},{"name":"newOwner","type":"address","indexed":true,"internalType":"address"}],"anonymous":false},{"type":"error","name":"OwnableInvalidOwner","inputs":[{"name":"owner","type":"address","internalType":"address"}]},{"type":"error","name":"OwnableUnauthorizedAccount","inputs":[{"name":"account","type":"address","internalType":"address"}]}],"bytecode":{"object":"0x608060405234801561000f575f5ffd5b50335f73ffffffffffffffffffffffffffffffffffffffff168173ffffffffffffffffffffffffffffffffffffffff1603610081575f6040517f1e4fbdf70000000000000000000000000000000000000000000000000000000081526004016100789190610196565b60405180910390fd5b6100908161009660201b60201c565b506101af565b5f5f5f9054906101000a900473ffffffffffffffffffffffffffffffffffffffff169050815f5f6101000a81548173ffffffffffffffffffffffffffffffffffffffff021916908373ffffffffffffffffffffffffffffffffffffffff1602179055508173ffffffffffffffffffffffffffffffffffffffff168173ffffffffffffffffffffffffffffffffffffffff167f8be0079c531659141344cd1fd0a4f28419497f9722a3daafe3b4186f6b6457e060405160405180910390a35050565b5f73ffffffffffffffffffffffffffffffffffffffff82169050919050565b5f61018082610157565b9050919050565b61019081610176565b82525050565b5f6020820190506101a95f830184610187565b92915050565b6104a3806101bc5f395ff3fe608060405234801561000f575f5ffd5b5060043610610055575f3560e01c80636057361d14610059578063715018a6146100755780638da5cb5b1461007f578063f2c9ecd81461009d578063f2fde38b146100bb575b5f5ffd5b610073600480360381019061006e919061036d565b6100d7565b005b61007d610120565b005b610087610133565b60405161009491906103d7565b60405180910390f35b6100a561015a565b6040516100b291906103ff565b60405180910390f35b6100d560048036038101906100d09190610442565b610163565b005b6100df6101e7565b806001819055507f2fd81fd19d3c5c4b396dd13f451dafc8bcac1b3094c49c5fa90e68456323f0e38160405161011591906103ff565b60405180910390a150565b6101286101e7565b6101315f61026e565b565b5f5f5f9054906101000a900473ffffffffffffffffffffffffffffffffffffffff16905090565b5f600154905090565b61016b6101e7565b5f73ffffffffffffffffffffffffffffffffffffffff168173ffffffffffffffffffffffffffffffffffffffff16036101db575f6040517f1e4fbdf70000000000000000000000000000000000000000000000000000000081526004016101d291906103d7565b60405180910390fd5b6101e48161026e565b50565b6101ef61032f565b73ffffffffffffffffffffffffffffffffffffffff1661020d610133565b73ffffffffffffffffffffffffffffffffffffffff161461026c5761023061032f565b6040517f118cdaa700000000000000000000000000000000000000000000000000000000815260040161026391906103d7565b60405180910390fd5b565b5f5f5f9054906101000a900473ffffffffffffffffffffffffffffffffffffffff169050815f5f6101000a81548173ffffffffffffffffffffffffffffffffffffffff021916908373ffffffffffffffffffffffffffffffffffffffff1602179055508173ffffffffffffffffffffffffffffffffffffffff168173ffffffffffffffffffffffffffffffffffffffff167f8be0079c531659141344cd1fd0a4f28419497f9722a3daafe3b4186f6b6457e060405160405180910390a35050565b5f33905090565b5f5ffd5b5f819050919050565b61034c8161033a565b8114610356575f5ffd5b50565b5f8135905061036781610343565b92915050565b5f6020828403121561038257610381610336565b5b5f61038f84828501610359565b91505092915050565b5f73ffffffffffffffffffffffffffffffffffffffff82169050919050565b5f6103c182610398565b9050919050565b6103d1816103b7565b82525050565b5f6020820190506103ea5f8301846103c8565b92915050565b6103f98161033a565b82525050565b5f6020820190506104125f8301846103f0565b92915050565b610421816103b7565b811461042b575f5ffd5b50565b5f8135905061043c81610418565b92915050565b5f6020828403121561045757610456610336565b5b5f6104648482850161042e565b9150509291505056fea2646970667358221220d4e9f470210c5a21180608bec8c7fd39d0f77c101e96b531f3edd061fe58541f64736f6c634300081c0033","linkReferences":{}},"methodIdentifiers":{"getNumber()":"f2c9ecd8","owner()":"8da5cb5b","renounceOwnership()":"715018a6","store(uint256)":"6057361d","transferOwnership(address)":"f2fde38b"},"id":2}