{"abi":[{"type":"constructor","inputs":[],"stateMutability":"nonpayable"},{"type":"receive","stateMutability":"payable"},{"type":"function","name":"executeTransaction","inputs":[{"name":"","type":"bytes32","internalType":"bytes32"},{"name":"","type":"bytes32","internalType":"bytes32"},{"name":"_transaction","type":"tuple","internalType":"struct Transaction","components":[{"name":"txType","type":"uint256","internalType":"uint256"},{"name":"from","type":"uint256","internalType":"uint256"},{"name":"to","type":"uint256","internalType":"uint256"},{"name":"gasLimit","type":"uint256","internalType":"uint256"},{"name":"gasPerPubdataByteLimit","type":"uint256","internalType":"uint256"},{"name":"maxFeePerGas","type":"uint256","internalType":"uint256"},{"name":"maxPriorityFeePerGas","type":"uint256","internalType":"uint256"},{"name":"paymaster","type":"uint256","internalType":"uint256"},{"name":"nonce","type":"uint256","internalType":"uint256"},{"name":"value","type":"uint256","internalType":"uint256"},{"name":"reserved","type":"uint256[4]","internalType":"uint256[4]"},{"name":"data","type":"bytes","internalType":"bytes"},{"name":"signature","type":"bytes","internalType":"bytes"},{"name":"factoryDeps","type":"bytes32[]","internalType":"bytes32[]"},{"name":"paymasterInput","type":"bytes","internalType":"bytes"},{"name":"reservedDynamic","type":"bytes","internalType":"bytes"}]}],"outputs":[],"stateMutability":"payable"},{"type":"function","name":"executeTransactionFromOutside","inputs":[{"name":"_transaction","type":"tuple","internalType":"struct Transaction","components":[{"name":"txType","type":"uint256","internalType":"uint256"},{"name":"from","type":"uint256","internalType":"uint256"},{"name":"to","type":"uint256","internalType":"uint256"},{"name":"gasLimit","type":"uint256","internalType":"uint256"},{"name":"gasPerPubdataByteLimit","type":"uint256","internalType":"uint256"},{"name":"maxFeePerGas","type":"uint256","internalType":"uint256"},{"name":"maxPriorityFeePerGas","type":"uint256","internalType":"uint256"},{"name":"paymaster","type":"uint256","internalType":"uint256"},{"name":"nonce","type":"uint256","internalType":"uint256"},{"name":"value","type":"uint256","internalType":"uint256"},{"name":"reserved","type":"uint256[4]","internalType":"uint256[4]"},{"name":"data","type":"bytes","internalType":"bytes"},{"name":"signature","type":"bytes","internalType":"bytes"},{"name":"factoryDeps","type":"bytes32[]","internalType":"bytes32[]"},{"name":"paymasterInput","type":"bytes","internalType":"bytes"},{"name":"reservedDynamic","type":"bytes","internalType":"bytes"}]}],"outputs":[],"stateMutability":"payable"},{"type":"function","name":"owner","inputs":[],"outputs":[{"name":"","type":"address","internalType":"address"}],"stateMutability":"view"},{"type":"function","name":"payForTransaction","inputs":[{"name":"","type":"bytes32","internalType":"bytes32"},{"name":"","type":"bytes32","internalType":"bytes32"},{"name":"_transaction","type":"tuple","internalType":"struct Transaction","components":[{"name":"txType","type":"uint256","internalType":"uint256"},{"name":"from","type":"uint256","internalType":"uint256"},{"name":"to","type":"uint256","internalType":"uint256"},{"name":"gasLimit","type":"uint256","internalType":"uint256"},{"name":"gasPerPubdataByteLimit","type":"uint256","internalType":"uint256"},{"name":"maxFeePerGas","type":"uint256","internalType":"uint256"},{"name":"maxPriorityFeePerGas","type":"uint256","internalType":"uint256"},{"name":"paymaster","type":"uint256","internalType":"uint256"},{"name":"nonce","type":"uint256","internalType":"uint256"},{"name":"value","type":"uint256","internalType":"uint256"},{"name":"reserved","type":"uint256[4]","internalType":"uint256[4]"},{"name":"data","type":"bytes","internalType":"bytes"},{"name":"signature","type":"bytes","internalType":"bytes"},{"name":"factoryDeps","type":"bytes32[]","internalType":"bytes32[]"},{"name":"paymasterInput","type":"bytes","internalType":"bytes"},{"name":"reservedDynamic","type":"bytes","internalType":"bytes"}]}],"outputs":[],"stateMutability":"payable"},{"type":"function","name":"prepareForPaymaster","inputs":[{"name":"_txHash","type":"bytes32","internalType":"bytes32"},{"name":"_possibleSignedHash","type":"bytes32","internalType":"bytes32"},{"name":"_transaction","type":"tuple","internalType":"struct Transaction","components":[{"name":"txType","type":"uint256","internalType":"uint256"},{"name":"from","type":"uint256","internalType":"uint256"},{"name":"to","type":"uint256","internalType":"uint256"},{"name":"gasLimit","type":"uint256","internalType":"uint256"},{"name":"gasPerPubdataByteLimit","type":"uint256","internalType":"uint256"},{"name":"maxFeePerGas","type":"uint256","internalType":"uint256"},{"name":"maxPriorityFeePerGas","type":"uint256","internalType":"uint256"},{"name":"paymaster","type":"uint256","internalType":"uint256"},{"name":"nonce","type":"uint256","internalType":"uint256"},{"name":"value","type":"uint256","internalType":"uint256"},{"name":"reserved","type":"uint256[4]","internalType":"uint256[4]"},{"name":"data","type":"bytes","internalType":"bytes"},{"name":"signature","type":"bytes","internalType":"bytes"},{"name":"factoryDeps","type":"bytes32[]","internalType":"bytes32[]"},{"name":"paymasterInput","type":"bytes","internalType":"bytes"},{"name":"reservedDynamic","type":"bytes","internalType":"bytes"}]}],"outputs":[],"stateMutability":"payable"},{"type":"function","name":"renounceOwnership","inputs":[],"outputs":[],"stateMutability":"nonpayable"},{"type":"function","name":"transferOwnership","inputs":[{"name":"newOwner","type":"address","internalType":"address"}],"outputs":[],"stateMutability":"nonpayable"},{"type":"function","name":"validateTransaction","inputs":[{"name":"","type":"bytes32","internalType":"bytes32"},{"name":"","type":"bytes32","internalType":"bytes32"},{"name":"_transaction","type":"tuple","internalType":"struct Transaction","components":[{"name":"txType","type":"uint256","internalType":"uint256"},{"name":"from","type":"uint256","internalType":"uint256"},{"name":"to","type":"uint256","internalType":"uint256"},{"name":"gasLimit","type":"uint256","internalType":"uint256"},{"name":"gasPerPubdataByteLimit","type":"uint256","internalType":"uint256"},{"name":"maxFeePerGas","type":"uint256","internalType":"uint256"},{"name":"maxPriorityFeePerGas","type":"uint256","internalType":"uint256"},{"name":"paymaster","type":"uint256","internalType":"uint256"},{"name":"nonce","type":"uint256","internalType":"uint256"},{"name":"value","type":"uint256","internalType":"uint256"},{"name":"reserved","type":"uint256[4]","internalType":"uint256[4]"},{"name":"data","type":"bytes","internalType":"bytes"},{"name":"signature","type":"bytes","internalType":"bytes"},{"name":"factoryDeps","type":"bytes32[]","internalType":"bytes32[]"},{"name":"paymasterInput","type":"bytes","internalType":"bytes"},{"name":"reservedDynamic","type":"bytes","internalType":"bytes"}]}],"outputs":[{"name":"magic","type":"bytes4","internalType":"bytes4"}],"stateMutability":"payable"},{"type":"event","name":"OwnershipTransferred","inputs":[{"name":"previousOwner","type":"address","indexed":true,"internalType":"address"},{"name":"newOwner","type":"address","indexed":true,"internalType":"address"}],"anonymous":false},{"type":"error","name":"ECDSAInvalidSignature","inputs":[]},{"type":"error","name":"ECDSAInvalidSignatureLength","inputs":[{"name":"length","type":"uint256","internalType":"uint256"}]},{"type":"error","name":"ECDSAInvalidSignatureS","inputs":[{"name":"s","type":"bytes32","internalType":"bytes32"}]},{"type":"error","name":"OwnableInvalidOwner","inputs":[{"name":"owner","type":"address","internalType":"address"}]},{"type":"error","name":"OwnableUnauthorizedAccount","inputs":[{"name":"account","type":"address","internalType":"address"}]},{"type":"error","name":"ZKMinimalAccount__CallFailed","inputs":[]},{"type":"error","name":"ZKMinimalAccount__FailedToPay","inputs":[]},{"type":"error","name":"ZKMinimalAccount__NotEnoughBalance","inputs":[]},{"type":"error","name":"ZKMinimalAccount__NotFromBootLoader","inputs":[]},{"type":"error","name":"ZKMinimalAccount__NotFromBootLoaderOrOwner","inputs":[{"name":"sender","type":"address","internalType":"address"},{"name":"bootloader","type":"address","internalType":"address"},{"name":"owner","type":"address","internalType":"address"}]}],"bytecode":{"object":"0x608080604052346071573315605e575f8054336001600160a01b0319821681178355916001600160a01b03909116907f8be0079c531659141344cd1fd0a4f28419497f9722a3daafe3b4186f6b6457e09080a36114cb90816100768239f35b631e4fbdf760e01b5f525f60045260245ffd5b5f80fdfe6080604052600436101561001a575b3615610018575f80fd5b005b5f3560e01c8063202bcce714610099578063715018a6146100945780638da5cb5b1461008f578063a28c1aee1461008a578063df9c158914610085578063e2f318e314610080578063eeb8cb091461007b5763f2fde38b0361000e57610531565b6104f4565b6104ab565b61044b565b610442565b61041b565b6103cb565b6100a236610396565b9150506180001933016100cd576100ba6020916105bb565b6040516001600160e01b03199091168152f35b63081e808360e21b5f5260045ffd5b634e487b7160e01b5f52604160045260245ffd5b601f909101601f19168101906001600160401b0382119082101761011357604052565b6100dc565b60405190610128610200836100f0565b565b9080601f8301121561017f5760405191608083016001600160401b038111848210176101135760405282906080810192831161017f57905b82821061016f5750505090565b8135815260209182019101610162565b5f80fd5b6001600160401b03811161011357601f01601f191660200190565b81601f8201121561017f578035906101b582610183565b926101c360405194856100f0565b8284526020838301011161017f57815f926020809301838601378301015290565b9080601f8301121561017f578135916001600160401b038311610113578260051b906040519361021760208401866100f0565b845260208085019282010192831161017f57602001905b82821061023b5750505090565b813581526020918201910161022e565b9190916102608184031261017f57610261610118565b92813584526020820135602085015260408201356040850152606082013560608501526080820135608085015260a082013560a085015260c082013560c085015260e082013560e08501526101008201356101008501526101208201356101208501526102d281610140840161012a565b6101408501526101c08201356001600160401b03811161017f57816102f891840161019e565b6101608501526101e08201356001600160401b03811161017f578161031e91840161019e565b6101808501526102008201356001600160401b03811161017f57816103449184016101e4565b6101a08501526102208201356001600160401b03811161017f578161036a91840161019e565b6101c08501526102408201356001600160401b03811161017f5761038e920161019e565b6101e0830152565b606060031982011261017f576004359160243591604435906001600160401b03821161017f576103c89160040161024b565b90565b3461017f575f36600319011261017f576103e3610680565b5f80546001600160a01b0319811682556001600160a01b03165f5160206114765f395f51905f528280a3005b6001600160a01b031690565b3461017f575f36600319011261017f575f546040516001600160a01b039091168152602090f35b61001836610396565b61045436610396565b618001925090503382141580610497575b61047257610018906106a6565b5060018060a01b035f5416906323263c9b60e11b5f523360045260245260445260645ffd5b505f546001600160a01b0316331415610465565b5f8080806104b836610396565b9150506104d261800191606060a082015191015190610733565b906001600160a01b03165af1156104e557005b631e466a0b60e01b5f5260045ffd5b602036600319011261017f576004356001600160401b03811161017f5761052261001891369060040161024b565b61052b816105bb565b506106a6565b3461017f57602036600319011261017f576004356001600160a01b0381169081900361017f5761055f610680565b8015610594575f80546001600160a01b03198116831782556001600160a01b0316905f5160206114765f395f51905f529080a3005b631e4fbdf760e01b5f525f60045260245ffd5b634e487b7160e01b5f52601160045260245ffd5b61061c6106096105ce5a63ffffffff1690565b6105de61800361040f565b61040f565b90610617610100860151604051948591631c24739b60e31b6020840152602483019190602083019252565b03601f1981018552846100f0565b61074b565b5061062681610827565b4710610671578061018061063c61064593610867565b910151906108eb565b6106526105d95f5461040f565b6001600160a01b039091160361066d5763202bcce760e01b90565b5f90565b63a325d8d960e01b5f5260045ffd5b5f546001600160a01b0316330361069357565b63118cdaa760e01b5f523360045260245ffd5b60408101516101208201516001600160a01b039091169190610160906106d56001600160801b03821115610901565b910151906001600160801b03166106ed61800661040f565b830361070857610705926107005a610938565b6107b1565b50565b8161071e935f939260208594519301915af11590565b61072457565b633c9c89f760e21b5f5260045ffd5b8181029291811591840414171561074657565b6105a7565b905f8061fff58195829563ffffffff6107648351610938565b60c09290921b63ffffffff60c01b166020909301811660401b92909217911660601b17600160f81b1793f1903d61079a81610970565b60208101915f833e8093156107ad575050565b5190fd5b9091925f9360018060801b03169163ffffffff8060206107d18551610938565b60c09490941b63ffffffff60c01b16881794011660401b92909217911660601b17600160f81b1790801584146108165750828061fff58194f1905b3d61079a81610970565b6001929061fff5618009f19061080c565b60e08101516001600160a01b03161561084257610120015190565b61012061085860a0830151606084015190610733565b91015181018091116107465790565b80518061087857506103c890610faf565b6071810361088a57506103c890610d40565b6002810361089c57506103c890610c11565b6001036108ac576103c890610a66565b60405162461bcd60e51b815260206004820152601760248201527608adcc6dec8d2dcce40eadce6eae0e0dee4e8cac840e8f604b1b6044820152606490fd5b6103c8916108f8916110c3565b9092919261111b565b1561090857565b60405162461bcd60e51b81526020600482015260086024820152674f766572666c6f7760c01b6044820152606490fd5b63ffffffff9061094a82821115610901565b1690565b6040805190919061095f83826100f0565b6001815291601f1901366020840137565b9061097a82610183565b61098760405191826100f0565b8281528092610998601f1991610183565b0190602036910137565b805191908290602001825e015f815290565b92610128946109e06109e0926109e06109e6966109e06109e09c9b976040519d8e9b60208d01906109a2565b906109a2565b03601f1981018452836100f0565b805115610a015760200190565b634e487b7160e01b5f52603260045260245ffd5b60405190610a246040836100f0565b60018252608160f81b6020830152565b91936109e0610128946109e06109e098976109e06109e6966040519b8c99600160f81b60208c015260218b01906109a2565b610b3390610acc610a7646611197565b610a84610100840151611197565b610a9160a0850151611197565b610a9e6060860151611197565b90610ab7610ab26105d9604089015161040f565b611218565b92610ac6610120880151611197565b946109b4565b61016090910180518051606091906001600160401b0316906001600160401b038216600114610b3d5750610b00915061125d565b610b086113f7565b92610b2b610b2682518451018551510186510160018060401b031690565b61140b565b925192610a34565b6020815191012090565b600160ff1b91506001600160f81b031990610b6990610b5b906109f4565b516001600160f81b03191690565b1610610b005750610b78610a15565b610b00565b9492909695939160405197889660208801610b97916109a2565b610ba0916109a2565b610ba9916109a2565b610bb2916109a2565b610bbb916109a2565b610bc4916109a2565b610bcd916109a2565b03601f198101835261012890836100f0565b91936109e0610128946109e06109e098976109e06109e6966040519b8c99600160f91b60208c015260218b01906109a2565b610b3390610c7f610c2146611197565b610c2f610100840151611197565b610c3c60c0850151611197565b610c4960a0860151611197565b610c566060870151611197565b91610c6a610ab26105d960408a015161040f565b93610c79610120890151611197565b95610b7d565b61016090910180518051606091906001600160401b0316906001600160401b038216600114610ce15750610cb3915061125d565b610cbb6113f7565b92610cd9610b2682518451018551510186510160018060401b031690565b925192610bdf565b600160ff1b91506001600160f81b031990610cff90610b5b906109f4565b1610610cb35750610d0e610a15565b610cb3565b80516020909101905f5b818110610d2a5750505090565b8251845260209384019390920191600101610d1d565b80519060208101519160408201519060608301519260808101519060a081015160c082015160e0830151610100840151906101208501519261016086015180519060200120946101a087015160405180602081019283610d9f91610d13565b03601f1981018252610db190826100f0565b519020966101c0015180519060200120976040519b8c9b60208d019e8f9c610e529d999693909d9c9b9895926101a09b9895926101c08c019f7f848e1bfa1ac4e3576b728bda6721b215c70a7799a5b4866282a71bab954baac88d5260208d015260408c015260608b015260808a015260a089015260c088015260e08701526101008601526101208501526101408401526101608301526101808201520152565b03601f1981018252610e6490826100f0565b51902060405160208101908046610ef290849190606060808401937fc2f8787176b8ac6bf7215b4adcc1e069bf4ab82d9ab1df05a57a91d425935b6e81527f19b453ce45aaaaf3a300f5a9ec95869b4f28ab10430b572ee218c3a6a5e07d6f60208201527fad7c5bef027816a800da1736444fb58a807ef4c9603b7848673f7e3a68eb14a560408201520152565b03601f1981018252610f0490826100f0565b51902060405161190160f01b60208201908152602282019290925260428082019390935291825290610f376062826100f0565b51902090565b610128906109e66109e0949360405195869360208501906109a2565b906101286002610f739360405194859160208301906109a2565b61010160f71b815203601d198101855201836100f0565b95939197969492909760405198899760208901610fa6916109a2565b610b97916109a2565b610b3390610fc1610100820151611197565b610fe4610fd160a0840151611197565b610fde6060850151611197565b90610f3d565b90610ff8610ab26105d9604086015161040f565b611006610120850151611197565b6101608501805180519195929392916001600160401b0316906060906001831461108c5750506110359061125d565b935b610140606097015151611073575b61106b610b2682518451018551018651018751018851510189510160018060401b031690565b955195610f8a565b955061108661108146611197565b610f59565b95611045565b90959150600160ff1b906001600160f81b0319906110ad90610b5b906109f4565b16106110375793506110bd610a15565b93611037565b81519190604183036110f3576110ec9250602082015190606060408401519301515f1a906112f6565b9192909190565b50505f9160029190565b6004111561110757565b634e487b7160e01b5f52602160045260245ffd5b611124816110fd565b8061112d575050565b611136816110fd565b6001810361114d5763f645eedf60e01b5f5260045ffd5b611156816110fd565b60028103611171575063fce698f760e01b5f5260045260245ffd5b8061117d6003926110fd565b146111855750565b6335e2f38360e21b5f5260045260245ffd5b9060808210156111d6576111a961094e565b91806111c45750600160ff1b5b5f1a6111c1836109f4565b53565b60f81b6001600160f81b0319166111b6565b6111df82611379565b916111ec60028401610970565b926081810160f81b6001600160f81b0319165f1a611209856109f4565b53601f0360031b1b6021830152565b9060408051909261122984836100f0565b601582526021906020830194601f1901368637602560fa1b90945260609390931b6001600160601b03191692810192909252565b6001600160401b0316600181146112e257603881101561129f5761127f61094e565b9060800160f81b6001600160f81b0319165f1a61129b826109f4565b5390565b6112a881611379565b906112b560028301610970565b9160b8810160f81b6001600160f81b0319165f1a6112d2846109f4565b53601f0360031b1b602182015290565b634e487b7160e01b5f52600160045260245ffd5b91906fa2a8918ca85bafe22016d0b997e4df60600160ff1b03841161136e579160209360809260ff5f9560405194855216868401526040830152606082015282805260015afa15611363575f516001600160a01b0381161561135957905f905f90565b505f906001905f90565b6040513d5f823e3d90fd5b5050505f9160039190565b5f91906001600160801b0381116113eb575b60ff906001600160401b0381116113dd575b63ffffffff81116113cf575b61ffff81116113c1575b116113ba57565b9060010190565b60029060101c9301926113b3565b60049060201c9301926113a9565b60089060401c93019261139d565b6010925060801c61138b565b6113ff61094e565b9060c06111c1836109f4565b6001600160401b03169060388210156114425761142661094e565b9160c00160f81b6001600160f81b0319165f1a6111c1836109f4565b61144b82611379565b9161145860028401610970565b9260f8808201901b6001600160f81b0319165f1a611209856109f456fe8be0079c531659141344cd1fd0a4f28419497f9722a3daafe3b4186f6b6457e0a2646970667358221220e89c5deab61c2f0ee8943f29db61a87588974c677165a58286921f17b0b9762864736f6c634300081c0033","linkReferences":{}},"methodIdentifiers":{"executeTransaction(bytes32,bytes32,(uint256,uint256,uint256,uint256,uint256,uint256,uint256,uint256,uint256,uint256,uint256[4],bytes,bytes,bytes32[],bytes,bytes))":"df9c1589","executeTransactionFromOutside((uint256,uint256,uint256,uint256,uint256,uint256,uint256,uint256,uint256,uint256,uint256[4],bytes,bytes,bytes32[],bytes,bytes))":"eeb8cb09","owner()":"8da5cb5b","payForTransaction(bytes32,bytes32,(uint256,uint256,uint256,uint256,uint256,uint256,uint256,uint256,uint256,uint256,uint256[4],bytes,bytes,bytes32[],bytes,bytes))":"e2f318e3","prepareForPaymaster(bytes32,bytes32,(uint256,uint256,uint256,uint256,uint256,uint256,uint256,uint256,uint256,uint256,uint256[4],bytes,bytes,bytes32[],bytes,bytes))":"a28c1aee","renounceOwnership()":"715018a6","transferOwnership(address)":"f2fde38b","validateTransaction(bytes32,bytes32,(uint256,uint256,uint256,uint256,uint256,uint256,uint256,uint256,uint256,uint256,uint256[4],bytes,bytes,bytes32[],bytes,bytes))":"202bcce7"},"id":59}