{
	"FundMe/FundMe.sol": {
		"FundMe": {
			"abi": [
				{
					"inputs": [],
					"stateMutability": "nonpayable",
					"type": "constructor"
				},
				{
					"inputs": [],
					"name": "notOwner",
					"type": "error"
				},
				{
					"stateMutability": "payable",
					"type": "fallback"
				},
				{
					"inputs": [],
					"name": "MINIMUM_USD",
					"outputs": [
						{
							"internalType": "uint256",
							"name": "",
							"type": "uint256"
						}
					],
					"stateMutability": "view",
					"type": "function"
				},
				{
					"inputs": [
						{
							"internalType": "address",
							"name": "",
							"type": "address"
						}
					],
					"name": "addressToAmmountFunded",
					"outputs": [
						{
							"internalType": "uint256",
							"name": "",
							"type": "uint256"
						}
					],
					"stateMutability": "view",
					"type": "function"
				},
				{
					"inputs": [],
					"name": "fund",
					"outputs": [],
					"stateMutability": "payable",
					"type": "function"
				},
				{
					"inputs": [
						{
							"internalType": "uint256",
							"name": "",
							"type": "uint256"
						}
					],
					"name": "funders",
					"outputs": [
						{
							"internalType": "address",
							"name": "",
							"type": "address"
						}
					],
					"stateMutability": "view",
					"type": "function"
				},
				{
					"inputs": [],
					"name": "i_owner",
					"outputs": [
						{
							"internalType": "address",
							"name": "",
							"type": "address"
						}
					],
					"stateMutability": "view",
					"type": "function"
				},
				{
					"inputs": [],
					"name": "withdraw",
					"outputs": [],
					"stateMutability": "nonpayable",
					"type": "function"
				},
				{
					"stateMutability": "payable",
					"type": "receive"
				}
			],
			"devdoc": {
				"kind": "dev",
				"methods": {},
				"version": 1
			},
			"evm": {
				"assembly": "    /* \"FundMe/FundMe.sol\":883:2363  contract FundMe {... */\n  mstore(0x40, 0xa0)\n    /* \"FundMe/FundMe.sol\":1126:1177  constructor() {... */\n  callvalue\n  dup1\n  iszero\n  tag_1\n  jumpi\n  0x00\n  dup1\n  revert\ntag_1:\n  pop\n    /* \"FundMe/FundMe.sol\":1160:1170  msg.sender */\n  caller\n    /* \"FundMe/FundMe.sol\":1150:1170  i_owner = msg.sender */\n  0xffffffffffffffffffffffffffffffffffffffff\n  and\n  0x80\n  dup2\n  0xffffffffffffffffffffffffffffffffffffffff\n  and\n  dup2\n  mstore\n  pop\n  pop\n    /* \"FundMe/FundMe.sol\":883:2363  contract FundMe {... */\n  mload(0x80)\n  codecopy(0x00, dataOffset(sub_0), dataSize(sub_0))\n  0x00\n  assignImmutable(\"0x535306ee4b42c92aecd0e71fca98572064f049c2babb2769faa3bbd87d67ec2d\")\n  return(0x00, dataSize(sub_0))\nstop\n\nsub_0: assembly {\n        /* \"FundMe/FundMe.sol\":883:2363  contract FundMe {... */\n      mstore(0x40, 0x80)\n      jumpi(tag_1, lt(calldatasize, 0x04))\n      shr(0xe0, calldataload(0x00))\n      dup1\n      0x3ccfd60b\n      eq\n      tag_3\n      jumpi\n      dup1\n      0x6b69a592\n      eq\n      tag_4\n      jumpi\n      dup1\n      0x9d68f269\n      eq\n      tag_5\n      jumpi\n      dup1\n      0xb60d4288\n      eq\n      tag_6\n      jumpi\n      dup1\n      0xdba6335f\n      eq\n      tag_7\n      jumpi\n      dup1\n      0xdc0d3dff\n      eq\n      tag_8\n      jumpi\n      jump(tag_2)\n    tag_1:\n      jumpi(tag_2, calldatasize)\n        /* \"FundMe/FundMe.sol\":2291:2297  fund() */\n      tag_11\n        /* \"FundMe/FundMe.sol\":2291:2295  fund */\n      tag_12\n        /* \"FundMe/FundMe.sol\":2291:2297  fund() */\n      jump\t// in\n    tag_11:\n        /* \"FundMe/FundMe.sol\":883:2363  contract FundMe {... */\n      stop\n    tag_2:\n        /* \"FundMe/FundMe.sol\":2348:2354  fund() */\n      tag_15\n        /* \"FundMe/FundMe.sol\":2348:2352  fund */\n      tag_12\n        /* \"FundMe/FundMe.sol\":2348:2354  fund() */\n      jump\t// in\n    tag_15:\n        /* \"FundMe/FundMe.sol\":883:2363  contract FundMe {... */\n      stop\n        /* \"FundMe/FundMe.sol\":1445:2062  function withdraw() public only_Owner {... */\n    tag_3:\n      callvalue\n      dup1\n      iszero\n      tag_16\n      jumpi\n      0x00\n      dup1\n      revert\n    tag_16:\n      pop\n      tag_17\n      tag_18\n      jump\t// in\n    tag_17:\n      stop\n        /* \"FundMe/FundMe.sol\":944:986  uint256 public constant MINIMUM_USD = 5e18 */\n    tag_4:\n      callvalue\n      dup1\n      iszero\n      tag_19\n      jumpi\n      0x00\n      dup1\n      revert\n    tag_19:\n      pop\n      tag_20\n      tag_21\n      jump\t// in\n    tag_20:\n      mload(0x40)\n      tag_22\n      swap2\n      swap1\n      tag_23\n      jump\t// in\n    tag_22:\n      mload(0x40)\n      dup1\n      swap2\n      sub\n      swap1\n      return\n        /* \"FundMe/FundMe.sol\":1023:1080  mapping(address => uint256) public addressToAmmountFunded */\n    tag_5:\n      callvalue\n      dup1\n      iszero\n      tag_24\n      jumpi\n      0x00\n      dup1\n      revert\n    tag_24:\n      pop\n      tag_25\n      0x04\n      dup1\n      calldatasize\n      sub\n      dup2\n      add\n      swap1\n      tag_26\n      swap2\n      swap1\n      tag_27\n      jump\t// in\n    tag_26:\n      tag_28\n      jump\t// in\n    tag_25:\n      mload(0x40)\n      tag_29\n      swap2\n      swap1\n      tag_23\n      jump\t// in\n    tag_29:\n      mload(0x40)\n      dup1\n      swap2\n      sub\n      swap1\n      return\n        /* \"FundMe/FundMe.sol\":1183:1439  function fund() public payable {... */\n    tag_6:\n      tag_30\n      tag_12\n      jump\t// in\n    tag_30:\n      stop\n        /* \"FundMe/FundMe.sol\":1087:1119  address public immutable i_owner */\n    tag_7:\n      callvalue\n      dup1\n      iszero\n      tag_31\n      jumpi\n      0x00\n      dup1\n      revert\n    tag_31:\n      pop\n      tag_32\n      tag_33\n      jump\t// in\n    tag_32:\n      mload(0x40)\n      tag_34\n      swap2\n      swap1\n      tag_35\n      jump\t// in\n    tag_34:\n      mload(0x40)\n      dup1\n      swap2\n      sub\n      swap1\n      return\n        /* \"FundMe/FundMe.sol\":993:1017  address[] public funders */\n    tag_8:\n      callvalue\n      dup1\n      iszero\n      tag_36\n      jumpi\n      0x00\n      dup1\n      revert\n    tag_36:\n      pop\n      tag_37\n      0x04\n      dup1\n      calldatasize\n      sub\n      dup2\n      add\n      swap1\n      tag_38\n      swap2\n      swap1\n      tag_39\n      jump\t// in\n    tag_38:\n      tag_40\n      jump\t// in\n    tag_37:\n      mload(0x40)\n      tag_41\n      swap2\n      swap1\n      tag_35\n      jump\t// in\n    tag_41:\n      mload(0x40)\n      dup1\n      swap2\n      sub\n      swap1\n      return\n        /* \"FundMe/FundMe.sol\":1183:1439  function fund() public payable {... */\n    tag_12:\n        /* \"FundMe/FundMe.sol\":982:986  5e18 */\n      0x4563918244f40000\n        /* \"FundMe/FundMe.sol\":1232:1261  msg.value.getConversionRate() */\n      tag_43\n        /* \"FundMe/FundMe.sol\":1232:1241  msg.value */\n      callvalue\n        /* \"FundMe/FundMe.sol\":1232:1259  msg.value.getConversionRate */\n      tag_44\n        /* \"FundMe/FundMe.sol\":1232:1261  msg.value.getConversionRate() */\n      jump\t// in\n    tag_43:\n        /* \"FundMe/FundMe.sol\":1232:1276  msg.value.getConversionRate() >= MINIMUM_USD */\n      lt\n      iszero\n        /* \"FundMe/FundMe.sol\":1224:1341  require(msg.value.getConversionRate() >= MINIMUM_USD, \"You don't have enought currency to execute this transaction!\") */\n      tag_45\n      jumpi\n      mload(0x40)\n      0x08c379a000000000000000000000000000000000000000000000000000000000\n      dup2\n      mstore\n      0x04\n      add\n      tag_46\n      swap1\n      tag_47\n      jump\t// in\n    tag_46:\n      mload(0x40)\n      dup1\n      swap2\n      sub\n      swap1\n      revert\n    tag_45:\n        /* \"FundMe/FundMe.sol\":1351:1358  funders */\n      0x00\n        /* \"FundMe/FundMe.sol\":1364:1374  msg.sender */\n      caller\n        /* \"FundMe/FundMe.sol\":1351:1375  funders.push(msg.sender) */\n      swap1\n      dup1\n      0x01\n      dup2\n      sload\n      add\n      dup1\n      dup3\n      sstore\n      dup1\n      swap2\n      pop\n      pop\n      0x01\n      swap1\n      sub\n      swap1\n      0x00\n      mstore\n      keccak256(0x00, 0x20)\n      add\n      0x00\n      swap1\n      swap2\n      swap1\n      swap2\n      swap1\n      swap2\n      0x0100\n      exp\n      dup2\n      sload\n      dup2\n      0xffffffffffffffffffffffffffffffffffffffff\n      mul\n      not\n      and\n      swap1\n      dup4\n      0xffffffffffffffffffffffffffffffffffffffff\n      and\n      mul\n      or\n      swap1\n      sstore\n      pop\n        /* \"FundMe/FundMe.sol\":1423:1432  msg.value */\n      callvalue\n        /* \"FundMe/FundMe.sol\":1385:1407  addressToAmmountFunded */\n      0x01\n        /* \"FundMe/FundMe.sol\":1385:1419  addressToAmmountFunded[msg.sender] */\n      0x00\n        /* \"FundMe/FundMe.sol\":1408:1418  msg.sender */\n      caller\n        /* \"FundMe/FundMe.sol\":1385:1419  addressToAmmountFunded[msg.sender] */\n      0xffffffffffffffffffffffffffffffffffffffff\n      and\n      0xffffffffffffffffffffffffffffffffffffffff\n      and\n      dup2\n      mstore\n      0x20\n      add\n      swap1\n      dup2\n      mstore\n      0x20\n      add\n      0x00\n      keccak256\n      0x00\n        /* \"FundMe/FundMe.sol\":1385:1432  addressToAmmountFunded[msg.sender] += msg.value */\n      dup3\n      dup3\n      sload\n      tag_49\n      swap2\n      swap1\n      tag_50\n      jump\t// in\n    tag_49:\n      swap3\n      pop\n      pop\n      dup2\n      swap1\n      sstore\n      pop\n        /* \"FundMe/FundMe.sol\":1183:1439  function fund() public payable {... */\n      jump\t// out\n        /* \"FundMe/FundMe.sol\":1445:2062  function withdraw() public only_Owner {... */\n    tag_18:\n        /* \"FundMe/FundMe.sol\":2180:2187  i_owner */\n      immutable(\"0x535306ee4b42c92aecd0e71fca98572064f049c2babb2769faa3bbd87d67ec2d\")\n        /* \"FundMe/FundMe.sol\":2166:2187  msg.sender != i_owner */\n      0xffffffffffffffffffffffffffffffffffffffff\n      and\n        /* \"FundMe/FundMe.sol\":2166:2176  msg.sender */\n      caller\n        /* \"FundMe/FundMe.sol\":2166:2187  msg.sender != i_owner */\n      0xffffffffffffffffffffffffffffffffffffffff\n      and\n      eq\n        /* \"FundMe/FundMe.sol\":2162:2231  if (msg.sender != i_owner) {... */\n      tag_52\n      jumpi\n        /* \"FundMe/FundMe.sol\":2210:2220  notOwner() */\n      mload(0x40)\n      0x251c9d6300000000000000000000000000000000000000000000000000000000\n      dup2\n      mstore\n      0x04\n      add\n      mload(0x40)\n      dup1\n      swap2\n      sub\n      swap1\n      revert\n        /* \"FundMe/FundMe.sol\":2162:2231  if (msg.sender != i_owner) {... */\n    tag_52:\n        /* \"FundMe/FundMe.sol\":1498:1507  uint256 i */\n      0x00\n        /* \"FundMe/FundMe.sol\":1493:1638  for (uint256 i = 0; i < funders.length; i++) {... */\n    tag_54:\n        /* \"FundMe/FundMe.sol\":1517:1524  funders */\n      0x00\n        /* \"FundMe/FundMe.sol\":1517:1531  funders.length */\n      dup1\n      sload\n      swap1\n      pop\n        /* \"FundMe/FundMe.sol\":1513:1514  i */\n      dup2\n        /* \"FundMe/FundMe.sol\":1513:1531  i < funders.length */\n      lt\n        /* \"FundMe/FundMe.sol\":1493:1638  for (uint256 i = 0; i < funders.length; i++) {... */\n      iszero\n      tag_55\n      jumpi\n        /* \"FundMe/FundMe.sol\":1552:1566  address funder */\n      0x00\n        /* \"FundMe/FundMe.sol\":1569:1576  funders */\n      dup1\n        /* \"FundMe/FundMe.sol\":1577:1578  i */\n      dup3\n        /* \"FundMe/FundMe.sol\":1569:1579  funders[i] */\n      dup2\n      sload\n      dup2\n      lt\n      tag_57\n      jumpi\n      tag_58\n      tag_59\n      jump\t// in\n    tag_58:\n    tag_57:\n      swap1\n      0x00\n      mstore\n      keccak256(0x00, 0x20)\n      add\n      0x00\n      swap1\n      sload\n      swap1\n      0x0100\n      exp\n      swap1\n      div\n      0xffffffffffffffffffffffffffffffffffffffff\n      and\n        /* \"FundMe/FundMe.sol\":1552:1579  address funder = funders[i] */\n      swap1\n      pop\n        /* \"FundMe/FundMe.sol\":1626:1627  0 */\n      0x00\n        /* \"FundMe/FundMe.sol\":1593:1615  addressToAmmountFunded */\n      0x01\n        /* \"FundMe/FundMe.sol\":1593:1623  addressToAmmountFunded[funder] */\n      0x00\n        /* \"FundMe/FundMe.sol\":1616:1622  funder */\n      dup4\n        /* \"FundMe/FundMe.sol\":1593:1623  addressToAmmountFunded[funder] */\n      0xffffffffffffffffffffffffffffffffffffffff\n      and\n      0xffffffffffffffffffffffffffffffffffffffff\n      and\n      dup2\n      mstore\n      0x20\n      add\n      swap1\n      dup2\n      mstore\n      0x20\n      add\n      0x00\n      keccak256\n        /* \"FundMe/FundMe.sol\":1593:1627  addressToAmmountFunded[funder] = 0 */\n      dup2\n      swap1\n      sstore\n      pop\n        /* \"FundMe/FundMe.sol\":1538:1638  {... */\n      pop\n        /* \"FundMe/FundMe.sol\":1533:1536  i++ */\n      dup1\n      dup1\n      0x01\n      add\n      swap2\n      pop\n      pop\n        /* \"FundMe/FundMe.sol\":1493:1638  for (uint256 i = 0; i < funders.length; i++) {... */\n      jump(tag_54)\n    tag_55:\n      pop\n        /* \"FundMe/FundMe.sol\":1671:1672  0 */\n      0x00\n        /* \"FundMe/FundMe.sol\":1657:1673  new address[](0) */\n      0xffffffffffffffff\n      dup2\n      gt\n      iszero\n      tag_61\n      jumpi\n      tag_62\n      tag_63\n      jump\t// in\n    tag_62:\n    tag_61:\n      mload(0x40)\n      swap1\n      dup1\n      dup3\n      mstore\n      dup1\n      0x20\n      mul\n      0x20\n      add\n      dup3\n      add\n      0x40\n      mstore\n      dup1\n      iszero\n      tag_64\n      jumpi\n      dup2\n      0x20\n      add\n      0x20\n      dup3\n      mul\n      dup1\n      calldatasize\n      dup4\n      calldatacopy\n      dup1\n      dup3\n      add\n      swap2\n      pop\n      pop\n      swap1\n      pop\n    tag_64:\n      pop\n        /* \"FundMe/FundMe.sol\":1647:1654  funders */\n      0x00\n        /* \"FundMe/FundMe.sol\":1647:1673  funders = new address[](0) */\n      swap1\n      dup1\n      mload\n      swap1\n      0x20\n      add\n      swap1\n      tag_65\n      swap3\n      swap2\n      swap1\n      tag_66\n      jump\t// in\n    tag_65:\n      pop\n        /* \"FundMe/FundMe.sol\":1929:1945  bool callSuccess */\n      0x00\n        /* \"FundMe/FundMe.sol\":1959:1969  msg.sender */\n      caller\n        /* \"FundMe/FundMe.sol\":1951:1975  payable(msg.sender).call */\n      0xffffffffffffffffffffffffffffffffffffffff\n      and\n        /* \"FundMe/FundMe.sol\":1983:2004  address(this).balance */\n      selfbalance\n        /* \"FundMe/FundMe.sol\":1951:2009  payable(msg.sender).call{value: address(this).balance}(\"\") */\n      mload(0x40)\n      tag_67\n      swap1\n      tag_68\n      jump\t// in\n    tag_67:\n      0x00\n      mload(0x40)\n      dup1\n      dup4\n      sub\n      dup2\n      dup6\n      dup8\n      gas\n      call\n      swap3\n      pop\n      pop\n      pop\n      returndatasize\n      dup1\n      0x00\n      dup2\n      eq\n      tag_71\n      jumpi\n      mload(0x40)\n      swap2\n      pop\n      and(add(returndatasize, 0x3f), not(0x1f))\n      dup3\n      add\n      0x40\n      mstore\n      returndatasize\n      dup3\n      mstore\n      returndatasize\n      0x00\n      0x20\n      dup5\n      add\n      returndatacopy\n      jump(tag_70)\n    tag_71:\n      0x60\n      swap2\n      pop\n    tag_70:\n      pop\n        /* \"FundMe/FundMe.sol\":1928:2009  (bool callSuccess, ) = payable(msg.sender).call{value: address(this).balance}(\"\") */\n      pop\n      swap1\n      pop\n        /* \"FundMe/FundMe.sol\":2027:2038  callSuccess */\n      dup1\n        /* \"FundMe/FundMe.sol\":2019:2055  require(callSuccess, \"Call failed!\") */\n      tag_72\n      jumpi\n      mload(0x40)\n      0x08c379a000000000000000000000000000000000000000000000000000000000\n      dup2\n      mstore\n      0x04\n      add\n      tag_73\n      swap1\n      tag_74\n      jump\t// in\n    tag_73:\n      mload(0x40)\n      dup1\n      swap2\n      sub\n      swap1\n      revert\n    tag_72:\n        /* \"FundMe/FundMe.sol\":1483:2062  {... */\n      pop\n        /* \"FundMe/FundMe.sol\":1445:2062  function withdraw() public only_Owner {... */\n      jump\t// out\n        /* \"FundMe/FundMe.sol\":944:986  uint256 public constant MINIMUM_USD = 5e18 */\n    tag_21:\n        /* \"FundMe/FundMe.sol\":982:986  5e18 */\n      0x4563918244f40000\n        /* \"FundMe/FundMe.sol\":944:986  uint256 public constant MINIMUM_USD = 5e18 */\n      dup2\n      jump\t// out\n        /* \"FundMe/FundMe.sol\":1023:1080  mapping(address => uint256) public addressToAmmountFunded */\n    tag_28:\n      mstore(0x20, 0x01)\n      dup1\n      0x00\n      mstore\n      keccak256(0x00, 0x40)\n      0x00\n      swap2\n      pop\n      swap1\n      pop\n      sload\n      dup2\n      jump\t// out\n        /* \"FundMe/FundMe.sol\":1087:1119  address public immutable i_owner */\n    tag_33:\n      immutable(\"0x535306ee4b42c92aecd0e71fca98572064f049c2babb2769faa3bbd87d67ec2d\")\n      dup2\n      jump\t// out\n        /* \"FundMe/FundMe.sol\":993:1017  address[] public funders */\n    tag_40:\n      0x00\n      dup2\n      dup2\n      sload\n      dup2\n      lt\n      tag_75\n      jumpi\n      0x00\n      dup1\n      revert\n    tag_75:\n      swap1\n      0x00\n      mstore\n      keccak256(0x00, 0x20)\n      add\n      0x00\n      swap2\n      pop\n      sload\n      swap1\n      0x0100\n      exp\n      swap1\n      div\n      0xffffffffffffffffffffffffffffffffffffffff\n      and\n      dup2\n      jump\t// out\n        /* \"FundMe/FundMe.sol\":497:720  function getConversionRate(uint256 ethAmmount) internal view returns (uint256) {... */\n    tag_44:\n        /* \"FundMe/FundMe.sol\":567:574  uint256 */\n      0x00\n        /* \"FundMe/FundMe.sol\":586:602  uint256 ethPrice */\n      dup1\n        /* \"FundMe/FundMe.sol\":605:615  getPrice() */\n      tag_78\n        /* \"FundMe/FundMe.sol\":605:613  getPrice */\n      tag_79\n        /* \"FundMe/FundMe.sol\":605:615  getPrice() */\n      jump\t// in\n    tag_78:\n        /* \"FundMe/FundMe.sol\":586:615  uint256 ethPrice = getPrice() */\n      swap1\n      pop\n        /* \"FundMe/FundMe.sol\":625:648  uint256 ethAmmountInUsd */\n      0x00\n        /* \"FundMe/FundMe.sol\":677:681  1e18 */\n      0x0de0b6b3a7640000\n        /* \"FundMe/FundMe.sol\":663:673  ethAmmount */\n      dup5\n        /* \"FundMe/FundMe.sol\":652:660  ethPrice */\n      dup4\n        /* \"FundMe/FundMe.sol\":652:673  ethPrice * ethAmmount */\n      tag_80\n      swap2\n      swap1\n      tag_81\n      jump\t// in\n    tag_80:\n        /* \"FundMe/FundMe.sol\":651:681  (ethPrice * ethAmmount) / 1e18 */\n      tag_82\n      swap2\n      swap1\n      tag_83\n      jump\t// in\n    tag_82:\n        /* \"FundMe/FundMe.sol\":625:681  uint256 ethAmmountInUsd = (ethPrice * ethAmmount) / 1e18 */\n      swap1\n      pop\n        /* \"FundMe/FundMe.sol\":698:713  ethAmmountInUsd */\n      dup1\n        /* \"FundMe/FundMe.sol\":691:713  return ethAmmountInUsd */\n      swap3\n      pop\n      pop\n      pop\n        /* \"FundMe/FundMe.sol\":497:720  function getConversionRate(uint256 ethAmmount) internal view returns (uint256) {... */\n      swap2\n      swap1\n      pop\n      jump\t// out\n        /* \"FundMe/FundMe.sol\":222:491  function getPrice() internal  view returns (uint256) {... */\n    tag_79:\n        /* \"FundMe/FundMe.sol\":266:273  uint256 */\n      0x00\n        /* \"FundMe/FundMe.sol\":285:316  AggregatorV3Interface priceFeed */\n      dup1\n        /* \"FundMe/FundMe.sol\":341:383  0xfEefF7c3fB57d18C5C6Cdd71e45D2D0b4F9377bF */\n      0xfeeff7c3fb57d18c5c6cdd71e45d2d0b4f9377bf\n        /* \"FundMe/FundMe.sol\":285:384  AggregatorV3Interface priceFeed = AggregatorV3Interface(0xfEefF7c3fB57d18C5C6Cdd71e45D2D0b4F9377bF) */\n      swap1\n      pop\n        /* \"FundMe/FundMe.sol\":397:409  int256 price */\n      0x00\n        /* \"FundMe/FundMe.sol\":419:428  priceFeed */\n      dup2\n        /* \"FundMe/FundMe.sol\":419:444  priceFeed.latestRoundData */\n      0xffffffffffffffffffffffffffffffffffffffff\n      and\n      0xfeaf968c\n        /* \"FundMe/FundMe.sol\":419:446  priceFeed.latestRoundData() */\n      mload(0x40)\n      dup2\n      0xffffffff\n      and\n      0xe0\n      shl\n      dup2\n      mstore\n      0x04\n      add\n      0xa0\n      mload(0x40)\n      dup1\n      dup4\n      sub\n      dup2\n      dup7\n      gas\n      staticcall\n      iszero\n      dup1\n      iszero\n      tag_86\n      jumpi\n      returndatasize\n      0x00\n      dup1\n      returndatacopy\n      revert(0x00, returndatasize)\n    tag_86:\n      pop\n      pop\n      pop\n      pop\n      mload(0x40)\n      returndatasize\n      not(0x1f)\n      0x1f\n      dup3\n      add\n      and\n      dup3\n      add\n      dup1\n      0x40\n      mstore\n      pop\n      dup2\n      add\n      swap1\n      tag_87\n      swap2\n      swap1\n      tag_88\n      jump\t// in\n    tag_87:\n        /* \"FundMe/FundMe.sol\":394:446  (, int256 price, , , ) = priceFeed.latestRoundData() */\n      pop\n      pop\n      pop\n      swap2\n      pop\n      pop\n        /* \"FundMe/FundMe.sol\":479:483  1e10 */\n      0x02540be400\n        /* \"FundMe/FundMe.sol\":471:476  price */\n      dup2\n        /* \"FundMe/FundMe.sol\":471:483  price * 1e10 */\n      tag_89\n      swap2\n      swap1\n      tag_90\n      jump\t// in\n    tag_89:\n        /* \"FundMe/FundMe.sol\":456:484  return uint256(price * 1e10) */\n      swap3\n      pop\n      pop\n      pop\n        /* \"FundMe/FundMe.sol\":222:491  function getPrice() internal  view returns (uint256) {... */\n      swap1\n      jump\t// out\n    tag_66:\n      dup3\n      dup1\n      sload\n      dup3\n      dup3\n      sstore\n      swap1\n      0x00\n      mstore\n      keccak256(0x00, 0x20)\n      swap1\n      dup2\n      add\n      swap3\n      dup3\n      iszero\n      tag_91\n      jumpi\n      swap2\n      0x20\n      mul\n      dup3\n      add\n    tag_92:\n      dup3\n      dup2\n      gt\n      iszero\n      tag_93\n      jumpi\n      dup3\n      mload\n      dup3\n      exp(0x0100, 0x00)\n      dup2\n      sload\n      dup2\n      0xffffffffffffffffffffffffffffffffffffffff\n      mul\n      not\n      and\n      swap1\n      dup4\n      0xffffffffffffffffffffffffffffffffffffffff\n      and\n      mul\n      or\n      swap1\n      sstore\n      pop\n      swap2\n      0x20\n      add\n      swap2\n      swap1\n      0x01\n      add\n      swap1\n      jump(tag_92)\n    tag_93:\n    tag_91:\n      pop\n      swap1\n      pop\n      tag_94\n      swap2\n      swap1\n      tag_95\n      jump\t// in\n    tag_94:\n      pop\n      swap1\n      jump\t// out\n    tag_95:\n    tag_96:\n      dup1\n      dup3\n      gt\n      iszero\n      tag_97\n      jumpi\n      0x00\n      dup2\n      0x00\n      swap1\n      sstore\n      pop\n      0x01\n      add\n      jump(tag_96)\n    tag_97:\n      pop\n      swap1\n      jump\t// out\n        /* \"#utility.yul\":7:84   */\n    tag_98:\n        /* \"#utility.yul\":44:51   */\n      0x00\n        /* \"#utility.yul\":73:78   */\n      dup2\n        /* \"#utility.yul\":62:78   */\n      swap1\n      pop\n        /* \"#utility.yul\":7:84   */\n      swap2\n      swap1\n      pop\n      jump\t// out\n        /* \"#utility.yul\":90:208   */\n    tag_99:\n        /* \"#utility.yul\":177:201   */\n      tag_130\n        /* \"#utility.yul\":195:200   */\n      dup2\n        /* \"#utility.yul\":177:201   */\n      tag_98\n      jump\t// in\n    tag_130:\n        /* \"#utility.yul\":172:175   */\n      dup3\n        /* \"#utility.yul\":165:202   */\n      mstore\n        /* \"#utility.yul\":90:208   */\n      pop\n      pop\n      jump\t// out\n        /* \"#utility.yul\":214:436   */\n    tag_23:\n        /* \"#utility.yul\":307:311   */\n      0x00\n        /* \"#utility.yul\":345:347   */\n      0x20\n        /* \"#utility.yul\":334:343   */\n      dup3\n        /* \"#utility.yul\":330:348   */\n      add\n        /* \"#utility.yul\":322:348   */\n      swap1\n      pop\n        /* \"#utility.yul\":358:429   */\n      tag_132\n        /* \"#utility.yul\":426:427   */\n      0x00\n        /* \"#utility.yul\":415:424   */\n      dup4\n        /* \"#utility.yul\":411:428   */\n      add\n        /* \"#utility.yul\":402:408   */\n      dup5\n        /* \"#utility.yul\":358:429   */\n      tag_99\n      jump\t// in\n    tag_132:\n        /* \"#utility.yul\":214:436   */\n      swap3\n      swap2\n      pop\n      pop\n      jump\t// out\n        /* \"#utility.yul\":523:640   */\n    tag_101:\n        /* \"#utility.yul\":632:633   */\n      0x00\n        /* \"#utility.yul\":629:630   */\n      dup1\n        /* \"#utility.yul\":622:634   */\n      revert\n        /* \"#utility.yul\":769:895   */\n    tag_103:\n        /* \"#utility.yul\":806:813   */\n      0x00\n        /* \"#utility.yul\":846:888   */\n      0xffffffffffffffffffffffffffffffffffffffff\n        /* \"#utility.yul\":839:844   */\n      dup3\n        /* \"#utility.yul\":835:889   */\n      and\n        /* \"#utility.yul\":824:889   */\n      swap1\n      pop\n        /* \"#utility.yul\":769:895   */\n      swap2\n      swap1\n      pop\n      jump\t// out\n        /* \"#utility.yul\":901:997   */\n    tag_104:\n        /* \"#utility.yul\":938:945   */\n      0x00\n        /* \"#utility.yul\":967:991   */\n      tag_138\n        /* \"#utility.yul\":985:990   */\n      dup3\n        /* \"#utility.yul\":967:991   */\n      tag_103\n      jump\t// in\n    tag_138:\n        /* \"#utility.yul\":956:991   */\n      swap1\n      pop\n        /* \"#utility.yul\":901:997   */\n      swap2\n      swap1\n      pop\n      jump\t// out\n        /* \"#utility.yul\":1003:1125   */\n    tag_105:\n        /* \"#utility.yul\":1076:1100   */\n      tag_140\n        /* \"#utility.yul\":1094:1099   */\n      dup2\n        /* \"#utility.yul\":1076:1100   */\n      tag_104\n      jump\t// in\n    tag_140:\n        /* \"#utility.yul\":1069:1074   */\n      dup2\n        /* \"#utility.yul\":1066:1101   */\n      eq\n        /* \"#utility.yul\":1056:1119   */\n      tag_141\n      jumpi\n        /* \"#utility.yul\":1115:1116   */\n      0x00\n        /* \"#utility.yul\":1112:1113   */\n      dup1\n        /* \"#utility.yul\":1105:1117   */\n      revert\n        /* \"#utility.yul\":1056:1119   */\n    tag_141:\n        /* \"#utility.yul\":1003:1125   */\n      pop\n      jump\t// out\n        /* \"#utility.yul\":1131:1270   */\n    tag_106:\n        /* \"#utility.yul\":1177:1182   */\n      0x00\n        /* \"#utility.yul\":1215:1221   */\n      dup2\n        /* \"#utility.yul\":1202:1222   */\n      calldataload\n        /* \"#utility.yul\":1193:1222   */\n      swap1\n      pop\n        /* \"#utility.yul\":1231:1264   */\n      tag_143\n        /* \"#utility.yul\":1258:1263   */\n      dup2\n        /* \"#utility.yul\":1231:1264   */\n      tag_105\n      jump\t// in\n    tag_143:\n        /* \"#utility.yul\":1131:1270   */\n      swap3\n      swap2\n      pop\n      pop\n      jump\t// out\n        /* \"#utility.yul\":1276:1605   */\n    tag_27:\n        /* \"#utility.yul\":1335:1341   */\n      0x00\n        /* \"#utility.yul\":1384:1386   */\n      0x20\n        /* \"#utility.yul\":1372:1381   */\n      dup3\n        /* \"#utility.yul\":1363:1370   */\n      dup5\n        /* \"#utility.yul\":1359:1382   */\n      sub\n        /* \"#utility.yul\":1355:1387   */\n      slt\n        /* \"#utility.yul\":1352:1471   */\n      iszero\n      tag_145\n      jumpi\n        /* \"#utility.yul\":1390:1469   */\n      tag_146\n      tag_101\n      jump\t// in\n    tag_146:\n        /* \"#utility.yul\":1352:1471   */\n    tag_145:\n        /* \"#utility.yul\":1510:1511   */\n      0x00\n        /* \"#utility.yul\":1535:1588   */\n      tag_147\n        /* \"#utility.yul\":1580:1587   */\n      dup5\n        /* \"#utility.yul\":1571:1577   */\n      dup3\n        /* \"#utility.yul\":1560:1569   */\n      dup6\n        /* \"#utility.yul\":1556:1578   */\n      add\n        /* \"#utility.yul\":1535:1588   */\n      tag_106\n      jump\t// in\n    tag_147:\n        /* \"#utility.yul\":1525:1588   */\n      swap2\n      pop\n        /* \"#utility.yul\":1481:1598   */\n      pop\n        /* \"#utility.yul\":1276:1605   */\n      swap3\n      swap2\n      pop\n      pop\n      jump\t// out\n        /* \"#utility.yul\":1611:1729   */\n    tag_107:\n        /* \"#utility.yul\":1698:1722   */\n      tag_149\n        /* \"#utility.yul\":1716:1721   */\n      dup2\n        /* \"#utility.yul\":1698:1722   */\n      tag_104\n      jump\t// in\n    tag_149:\n        /* \"#utility.yul\":1693:1696   */\n      dup3\n        /* \"#utility.yul\":1686:1723   */\n      mstore\n        /* \"#utility.yul\":1611:1729   */\n      pop\n      pop\n      jump\t// out\n        /* \"#utility.yul\":1735:1957   */\n    tag_35:\n        /* \"#utility.yul\":1828:1832   */\n      0x00\n        /* \"#utility.yul\":1866:1868   */\n      0x20\n        /* \"#utility.yul\":1855:1864   */\n      dup3\n        /* \"#utility.yul\":1851:1869   */\n      add\n        /* \"#utility.yul\":1843:1869   */\n      swap1\n      pop\n        /* \"#utility.yul\":1879:1950   */\n      tag_151\n        /* \"#utility.yul\":1947:1948   */\n      0x00\n        /* \"#utility.yul\":1936:1945   */\n      dup4\n        /* \"#utility.yul\":1932:1949   */\n      add\n        /* \"#utility.yul\":1923:1929   */\n      dup5\n        /* \"#utility.yul\":1879:1950   */\n      tag_107\n      jump\t// in\n    tag_151:\n        /* \"#utility.yul\":1735:1957   */\n      swap3\n      swap2\n      pop\n      pop\n      jump\t// out\n        /* \"#utility.yul\":1963:2085   */\n    tag_108:\n        /* \"#utility.yul\":2036:2060   */\n      tag_153\n        /* \"#utility.yul\":2054:2059   */\n      dup2\n        /* \"#utility.yul\":2036:2060   */\n      tag_98\n      jump\t// in\n    tag_153:\n        /* \"#utility.yul\":2029:2034   */\n      dup2\n        /* \"#utility.yul\":2026:2061   */\n      eq\n        /* \"#utility.yul\":2016:2079   */\n      tag_154\n      jumpi\n        /* \"#utility.yul\":2075:2076   */\n      0x00\n        /* \"#utility.yul\":2072:2073   */\n      dup1\n        /* \"#utility.yul\":2065:2077   */\n      revert\n        /* \"#utility.yul\":2016:2079   */\n    tag_154:\n        /* \"#utility.yul\":1963:2085   */\n      pop\n      jump\t// out\n        /* \"#utility.yul\":2091:2230   */\n    tag_109:\n        /* \"#utility.yul\":2137:2142   */\n      0x00\n        /* \"#utility.yul\":2175:2181   */\n      dup2\n        /* \"#utility.yul\":2162:2182   */\n      calldataload\n        /* \"#utility.yul\":2153:2182   */\n      swap1\n      pop\n        /* \"#utility.yul\":2191:2224   */\n      tag_156\n        /* \"#utility.yul\":2218:2223   */\n      dup2\n        /* \"#utility.yul\":2191:2224   */\n      tag_108\n      jump\t// in\n    tag_156:\n        /* \"#utility.yul\":2091:2230   */\n      swap3\n      swap2\n      pop\n      pop\n      jump\t// out\n        /* \"#utility.yul\":2236:2565   */\n    tag_39:\n        /* \"#utility.yul\":2295:2301   */\n      0x00\n        /* \"#utility.yul\":2344:2346   */\n      0x20\n        /* \"#utility.yul\":2332:2341   */\n      dup3\n        /* \"#utility.yul\":2323:2330   */\n      dup5\n        /* \"#utility.yul\":2319:2342   */\n      sub\n        /* \"#utility.yul\":2315:2347   */\n      slt\n        /* \"#utility.yul\":2312:2431   */\n      iszero\n      tag_158\n      jumpi\n        /* \"#utility.yul\":2350:2429   */\n      tag_159\n      tag_101\n      jump\t// in\n    tag_159:\n        /* \"#utility.yul\":2312:2431   */\n    tag_158:\n        /* \"#utility.yul\":2470:2471   */\n      0x00\n        /* \"#utility.yul\":2495:2548   */\n      tag_160\n        /* \"#utility.yul\":2540:2547   */\n      dup5\n        /* \"#utility.yul\":2531:2537   */\n      dup3\n        /* \"#utility.yul\":2520:2529   */\n      dup6\n        /* \"#utility.yul\":2516:2538   */\n      add\n        /* \"#utility.yul\":2495:2548   */\n      tag_109\n      jump\t// in\n    tag_160:\n        /* \"#utility.yul\":2485:2548   */\n      swap2\n      pop\n        /* \"#utility.yul\":2441:2558   */\n      pop\n        /* \"#utility.yul\":2236:2565   */\n      swap3\n      swap2\n      pop\n      pop\n      jump\t// out\n        /* \"#utility.yul\":2571:2740   */\n    tag_110:\n        /* \"#utility.yul\":2655:2666   */\n      0x00\n        /* \"#utility.yul\":2689:2695   */\n      dup3\n        /* \"#utility.yul\":2684:2687   */\n      dup3\n        /* \"#utility.yul\":2677:2696   */\n      mstore\n        /* \"#utility.yul\":2729:2733   */\n      0x20\n        /* \"#utility.yul\":2724:2727   */\n      dup3\n        /* \"#utility.yul\":2720:2734   */\n      add\n        /* \"#utility.yul\":2705:2734   */\n      swap1\n      pop\n        /* \"#utility.yul\":2571:2740   */\n      swap3\n      swap2\n      pop\n      pop\n      jump\t// out\n        /* \"#utility.yul\":2746:2993   */\n    tag_111:\n        /* \"#utility.yul\":2886:2920   */\n      0x596f7520646f6e2774206861766520656e6f756768742063757272656e637920\n        /* \"#utility.yul\":2882:2883   */\n      0x00\n        /* \"#utility.yul\":2874:2880   */\n      dup3\n        /* \"#utility.yul\":2870:2884   */\n      add\n        /* \"#utility.yul\":2863:2921   */\n      mstore\n        /* \"#utility.yul\":2955:2985   */\n      0x746f20657865637574652074686973207472616e73616374696f6e2100000000\n        /* \"#utility.yul\":2950:2952   */\n      0x20\n        /* \"#utility.yul\":2942:2948   */\n      dup3\n        /* \"#utility.yul\":2938:2953   */\n      add\n        /* \"#utility.yul\":2931:2986   */\n      mstore\n        /* \"#utility.yul\":2746:2993   */\n      pop\n      jump\t// out\n        /* \"#utility.yul\":2999:3365   */\n    tag_112:\n        /* \"#utility.yul\":3141:3144   */\n      0x00\n        /* \"#utility.yul\":3162:3229   */\n      tag_164\n        /* \"#utility.yul\":3226:3228   */\n      0x3c\n        /* \"#utility.yul\":3221:3224   */\n      dup4\n        /* \"#utility.yul\":3162:3229   */\n      tag_110\n      jump\t// in\n    tag_164:\n        /* \"#utility.yul\":3155:3229   */\n      swap2\n      pop\n        /* \"#utility.yul\":3238:3331   */\n      tag_165\n        /* \"#utility.yul\":3327:3330   */\n      dup3\n        /* \"#utility.yul\":3238:3331   */\n      tag_111\n      jump\t// in\n    tag_165:\n        /* \"#utility.yul\":3356:3358   */\n      0x40\n        /* \"#utility.yul\":3351:3354   */\n      dup3\n        /* \"#utility.yul\":3347:3359   */\n      add\n        /* \"#utility.yul\":3340:3359   */\n      swap1\n      pop\n        /* \"#utility.yul\":2999:3365   */\n      swap2\n      swap1\n      pop\n      jump\t// out\n        /* \"#utility.yul\":3371:3790   */\n    tag_47:\n        /* \"#utility.yul\":3537:3541   */\n      0x00\n        /* \"#utility.yul\":3575:3577   */\n      0x20\n        /* \"#utility.yul\":3564:3573   */\n      dup3\n        /* \"#utility.yul\":3560:3578   */\n      add\n        /* \"#utility.yul\":3552:3578   */\n      swap1\n      pop\n        /* \"#utility.yul\":3624:3633   */\n      dup2\n        /* \"#utility.yul\":3618:3622   */\n      dup2\n        /* \"#utility.yul\":3614:3634   */\n      sub\n        /* \"#utility.yul\":3610:3611   */\n      0x00\n        /* \"#utility.yul\":3599:3608   */\n      dup4\n        /* \"#utility.yul\":3595:3612   */\n      add\n        /* \"#utility.yul\":3588:3635   */\n      mstore\n        /* \"#utility.yul\":3652:3783   */\n      tag_167\n        /* \"#utility.yul\":3778:3782   */\n      dup2\n        /* \"#utility.yul\":3652:3783   */\n      tag_112\n      jump\t// in\n    tag_167:\n        /* \"#utility.yul\":3644:3783   */\n      swap1\n      pop\n        /* \"#utility.yul\":3371:3790   */\n      swap2\n      swap1\n      pop\n      jump\t// out\n        /* \"#utility.yul\":3796:3976   */\n    tag_113:\n        /* \"#utility.yul\":3844:3921   */\n      0x4e487b7100000000000000000000000000000000000000000000000000000000\n        /* \"#utility.yul\":3841:3842   */\n      0x00\n        /* \"#utility.yul\":3834:3922   */\n      mstore\n        /* \"#utility.yul\":3941:3945   */\n      0x11\n        /* \"#utility.yul\":3938:3939   */\n      0x04\n        /* \"#utility.yul\":3931:3946   */\n      mstore\n        /* \"#utility.yul\":3965:3969   */\n      0x24\n        /* \"#utility.yul\":3962:3963   */\n      0x00\n        /* \"#utility.yul\":3955:3970   */\n      revert\n        /* \"#utility.yul\":3982:4173   */\n    tag_50:\n        /* \"#utility.yul\":4022:4025   */\n      0x00\n        /* \"#utility.yul\":4041:4061   */\n      tag_170\n        /* \"#utility.yul\":4059:4060   */\n      dup3\n        /* \"#utility.yul\":4041:4061   */\n      tag_98\n      jump\t// in\n    tag_170:\n        /* \"#utility.yul\":4036:4061   */\n      swap2\n      pop\n        /* \"#utility.yul\":4075:4095   */\n      tag_171\n        /* \"#utility.yul\":4093:4094   */\n      dup4\n        /* \"#utility.yul\":4075:4095   */\n      tag_98\n      jump\t// in\n    tag_171:\n        /* \"#utility.yul\":4070:4095   */\n      swap3\n      pop\n        /* \"#utility.yul\":4118:4119   */\n      dup3\n        /* \"#utility.yul\":4115:4116   */\n      dup3\n        /* \"#utility.yul\":4111:4120   */\n      add\n        /* \"#utility.yul\":4104:4120   */\n      swap1\n      pop\n        /* \"#utility.yul\":4139:4142   */\n      dup1\n        /* \"#utility.yul\":4136:4137   */\n      dup3\n        /* \"#utility.yul\":4133:4143   */\n      gt\n        /* \"#utility.yul\":4130:4166   */\n      iszero\n      tag_172\n      jumpi\n        /* \"#utility.yul\":4146:4164   */\n      tag_173\n      tag_113\n      jump\t// in\n    tag_173:\n        /* \"#utility.yul\":4130:4166   */\n    tag_172:\n        /* \"#utility.yul\":3982:4173   */\n      swap3\n      swap2\n      pop\n      pop\n      jump\t// out\n        /* \"#utility.yul\":4179:4359   */\n    tag_59:\n        /* \"#utility.yul\":4227:4304   */\n      0x4e487b7100000000000000000000000000000000000000000000000000000000\n        /* \"#utility.yul\":4224:4225   */\n      0x00\n        /* \"#utility.yul\":4217:4305   */\n      mstore\n        /* \"#utility.yul\":4324:4328   */\n      0x32\n        /* \"#utility.yul\":4321:4322   */\n      0x04\n        /* \"#utility.yul\":4314:4329   */\n      mstore\n        /* \"#utility.yul\":4348:4352   */\n      0x24\n        /* \"#utility.yul\":4345:4346   */\n      0x00\n        /* \"#utility.yul\":4338:4353   */\n      revert\n        /* \"#utility.yul\":4365:4545   */\n    tag_63:\n        /* \"#utility.yul\":4413:4490   */\n      0x4e487b7100000000000000000000000000000000000000000000000000000000\n        /* \"#utility.yul\":4410:4411   */\n      0x00\n        /* \"#utility.yul\":4403:4491   */\n      mstore\n        /* \"#utility.yul\":4510:4514   */\n      0x41\n        /* \"#utility.yul\":4507:4508   */\n      0x04\n        /* \"#utility.yul\":4500:4515   */\n      mstore\n        /* \"#utility.yul\":4534:4538   */\n      0x24\n        /* \"#utility.yul\":4531:4532   */\n      0x00\n        /* \"#utility.yul\":4524:4539   */\n      revert\n        /* \"#utility.yul\":4551:4698   */\n    tag_114:\n        /* \"#utility.yul\":4652:4663   */\n      0x00\n        /* \"#utility.yul\":4689:4692   */\n      dup2\n        /* \"#utility.yul\":4674:4692   */\n      swap1\n      pop\n        /* \"#utility.yul\":4551:4698   */\n      swap3\n      swap2\n      pop\n      pop\n      jump\t// out\n        /* \"#utility.yul\":4704:4818   */\n    tag_115:\n      pop\n      jump\t// out\n        /* \"#utility.yul\":4824:5222   */\n    tag_116:\n        /* \"#utility.yul\":4983:4986   */\n      0x00\n        /* \"#utility.yul\":5004:5087   */\n      tag_179\n        /* \"#utility.yul\":5085:5086   */\n      0x00\n        /* \"#utility.yul\":5080:5083   */\n      dup4\n        /* \"#utility.yul\":5004:5087   */\n      tag_114\n      jump\t// in\n    tag_179:\n        /* \"#utility.yul\":4997:5087   */\n      swap2\n      pop\n        /* \"#utility.yul\":5096:5189   */\n      tag_180\n        /* \"#utility.yul\":5185:5188   */\n      dup3\n        /* \"#utility.yul\":5096:5189   */\n      tag_115\n      jump\t// in\n    tag_180:\n        /* \"#utility.yul\":5214:5215   */\n      0x00\n        /* \"#utility.yul\":5209:5212   */\n      dup3\n        /* \"#utility.yul\":5205:5216   */\n      add\n        /* \"#utility.yul\":5198:5216   */\n      swap1\n      pop\n        /* \"#utility.yul\":4824:5222   */\n      swap2\n      swap1\n      pop\n      jump\t// out\n        /* \"#utility.yul\":5228:5607   */\n    tag_68:\n        /* \"#utility.yul\":5412:5415   */\n      0x00\n        /* \"#utility.yul\":5434:5581   */\n      tag_182\n        /* \"#utility.yul\":5577:5580   */\n      dup3\n        /* \"#utility.yul\":5434:5581   */\n      tag_116\n      jump\t// in\n    tag_182:\n        /* \"#utility.yul\":5427:5581   */\n      swap2\n      pop\n        /* \"#utility.yul\":5598:5601   */\n      dup2\n        /* \"#utility.yul\":5591:5601   */\n      swap1\n      pop\n        /* \"#utility.yul\":5228:5607   */\n      swap2\n      swap1\n      pop\n      jump\t// out\n        /* \"#utility.yul\":5613:5775   */\n    tag_117:\n        /* \"#utility.yul\":5753:5767   */\n      0x43616c6c206661696c6564210000000000000000000000000000000000000000\n        /* \"#utility.yul\":5749:5750   */\n      0x00\n        /* \"#utility.yul\":5741:5747   */\n      dup3\n        /* \"#utility.yul\":5737:5751   */\n      add\n        /* \"#utility.yul\":5730:5768   */\n      mstore\n        /* \"#utility.yul\":5613:5775   */\n      pop\n      jump\t// out\n        /* \"#utility.yul\":5781:6147   */\n    tag_118:\n        /* \"#utility.yul\":5923:5926   */\n      0x00\n        /* \"#utility.yul\":5944:6011   */\n      tag_185\n        /* \"#utility.yul\":6008:6010   */\n      0x0c\n        /* \"#utility.yul\":6003:6006   */\n      dup4\n        /* \"#utility.yul\":5944:6011   */\n      tag_110\n      jump\t// in\n    tag_185:\n        /* \"#utility.yul\":5937:6011   */\n      swap2\n      pop\n        /* \"#utility.yul\":6020:6113   */\n      tag_186\n        /* \"#utility.yul\":6109:6112   */\n      dup3\n        /* \"#utility.yul\":6020:6113   */\n      tag_117\n      jump\t// in\n    tag_186:\n        /* \"#utility.yul\":6138:6140   */\n      0x20\n        /* \"#utility.yul\":6133:6136   */\n      dup3\n        /* \"#utility.yul\":6129:6141   */\n      add\n        /* \"#utility.yul\":6122:6141   */\n      swap1\n      pop\n        /* \"#utility.yul\":5781:6147   */\n      swap2\n      swap1\n      pop\n      jump\t// out\n        /* \"#utility.yul\":6153:6572   */\n    tag_74:\n        /* \"#utility.yul\":6319:6323   */\n      0x00\n        /* \"#utility.yul\":6357:6359   */\n      0x20\n        /* \"#utility.yul\":6346:6355   */\n      dup3\n        /* \"#utility.yul\":6342:6360   */\n      add\n        /* \"#utility.yul\":6334:6360   */\n      swap1\n      pop\n        /* \"#utility.yul\":6406:6415   */\n      dup2\n        /* \"#utility.yul\":6400:6404   */\n      dup2\n        /* \"#utility.yul\":6396:6416   */\n      sub\n        /* \"#utility.yul\":6392:6393   */\n      0x00\n        /* \"#utility.yul\":6381:6390   */\n      dup4\n        /* \"#utility.yul\":6377:6394   */\n      add\n        /* \"#utility.yul\":6370:6417   */\n      mstore\n        /* \"#utility.yul\":6434:6565   */\n      tag_188\n        /* \"#utility.yul\":6560:6564   */\n      dup2\n        /* \"#utility.yul\":6434:6565   */\n      tag_118\n      jump\t// in\n    tag_188:\n        /* \"#utility.yul\":6426:6565   */\n      swap1\n      pop\n        /* \"#utility.yul\":6153:6572   */\n      swap2\n      swap1\n      pop\n      jump\t// out\n        /* \"#utility.yul\":6578:6988   */\n    tag_81:\n        /* \"#utility.yul\":6618:6625   */\n      0x00\n        /* \"#utility.yul\":6641:6661   */\n      tag_190\n        /* \"#utility.yul\":6659:6660   */\n      dup3\n        /* \"#utility.yul\":6641:6661   */\n      tag_98\n      jump\t// in\n    tag_190:\n        /* \"#utility.yul\":6636:6661   */\n      swap2\n      pop\n        /* \"#utility.yul\":6675:6695   */\n      tag_191\n        /* \"#utility.yul\":6693:6694   */\n      dup4\n        /* \"#utility.yul\":6675:6695   */\n      tag_98\n      jump\t// in\n    tag_191:\n        /* \"#utility.yul\":6670:6695   */\n      swap3\n      pop\n        /* \"#utility.yul\":6730:6731   */\n      dup3\n        /* \"#utility.yul\":6727:6728   */\n      dup3\n        /* \"#utility.yul\":6723:6732   */\n      mul\n        /* \"#utility.yul\":6752:6782   */\n      tag_192\n        /* \"#utility.yul\":6770:6781   */\n      dup2\n        /* \"#utility.yul\":6752:6782   */\n      tag_98\n      jump\t// in\n    tag_192:\n        /* \"#utility.yul\":6741:6782   */\n      swap2\n      pop\n        /* \"#utility.yul\":6931:6932   */\n      dup3\n        /* \"#utility.yul\":6922:6929   */\n      dup3\n        /* \"#utility.yul\":6918:6933   */\n      div\n        /* \"#utility.yul\":6915:6916   */\n      dup5\n        /* \"#utility.yul\":6912:6934   */\n      eq\n        /* \"#utility.yul\":6892:6893   */\n      dup4\n        /* \"#utility.yul\":6885:6894   */\n      iszero\n        /* \"#utility.yul\":6865:6948   */\n      or\n        /* \"#utility.yul\":6842:6981   */\n      tag_193\n      jumpi\n        /* \"#utility.yul\":6961:6979   */\n      tag_194\n      tag_113\n      jump\t// in\n    tag_194:\n        /* \"#utility.yul\":6842:6981   */\n    tag_193:\n        /* \"#utility.yul\":6626:6988   */\n      pop\n        /* \"#utility.yul\":6578:6988   */\n      swap3\n      swap2\n      pop\n      pop\n      jump\t// out\n        /* \"#utility.yul\":6994:7174   */\n    tag_119:\n        /* \"#utility.yul\":7042:7119   */\n      0x4e487b7100000000000000000000000000000000000000000000000000000000\n        /* \"#utility.yul\":7039:7040   */\n      0x00\n        /* \"#utility.yul\":7032:7120   */\n      mstore\n        /* \"#utility.yul\":7139:7143   */\n      0x12\n        /* \"#utility.yul\":7136:7137   */\n      0x04\n        /* \"#utility.yul\":7129:7144   */\n      mstore\n        /* \"#utility.yul\":7163:7167   */\n      0x24\n        /* \"#utility.yul\":7160:7161   */\n      0x00\n        /* \"#utility.yul\":7153:7168   */\n      revert\n        /* \"#utility.yul\":7180:7365   */\n    tag_83:\n        /* \"#utility.yul\":7220:7221   */\n      0x00\n        /* \"#utility.yul\":7237:7257   */\n      tag_197\n        /* \"#utility.yul\":7255:7256   */\n      dup3\n        /* \"#utility.yul\":7237:7257   */\n      tag_98\n      jump\t// in\n    tag_197:\n        /* \"#utility.yul\":7232:7257   */\n      swap2\n      pop\n        /* \"#utility.yul\":7271:7291   */\n      tag_198\n        /* \"#utility.yul\":7289:7290   */\n      dup4\n        /* \"#utility.yul\":7271:7291   */\n      tag_98\n      jump\t// in\n    tag_198:\n        /* \"#utility.yul\":7266:7291   */\n      swap3\n      pop\n        /* \"#utility.yul\":7310:7311   */\n      dup3\n        /* \"#utility.yul\":7300:7335   */\n      tag_199\n      jumpi\n        /* \"#utility.yul\":7315:7333   */\n      tag_200\n      tag_119\n      jump\t// in\n    tag_200:\n        /* \"#utility.yul\":7300:7335   */\n    tag_199:\n        /* \"#utility.yul\":7357:7358   */\n      dup3\n        /* \"#utility.yul\":7354:7355   */\n      dup3\n        /* \"#utility.yul\":7350:7359   */\n      div\n        /* \"#utility.yul\":7345:7359   */\n      swap1\n      pop\n        /* \"#utility.yul\":7180:7365   */\n      swap3\n      swap2\n      pop\n      pop\n      jump\t// out\n        /* \"#utility.yul\":7371:7476   */\n    tag_120:\n        /* \"#utility.yul\":7407:7414   */\n      0x00\n        /* \"#utility.yul\":7447:7469   */\n      0xffffffffffffffffffff\n        /* \"#utility.yul\":7440:7445   */\n      dup3\n        /* \"#utility.yul\":7436:7470   */\n      and\n        /* \"#utility.yul\":7425:7470   */\n      swap1\n      pop\n        /* \"#utility.yul\":7371:7476   */\n      swap2\n      swap1\n      pop\n      jump\t// out\n        /* \"#utility.yul\":7482:7602   */\n    tag_121:\n        /* \"#utility.yul\":7554:7577   */\n      tag_203\n        /* \"#utility.yul\":7571:7576   */\n      dup2\n        /* \"#utility.yul\":7554:7577   */\n      tag_120\n      jump\t// in\n    tag_203:\n        /* \"#utility.yul\":7547:7552   */\n      dup2\n        /* \"#utility.yul\":7544:7578   */\n      eq\n        /* \"#utility.yul\":7534:7596   */\n      tag_204\n      jumpi\n        /* \"#utility.yul\":7592:7593   */\n      0x00\n        /* \"#utility.yul\":7589:7590   */\n      dup1\n        /* \"#utility.yul\":7582:7594   */\n      revert\n        /* \"#utility.yul\":7534:7596   */\n    tag_204:\n        /* \"#utility.yul\":7482:7602   */\n      pop\n      jump\t// out\n        /* \"#utility.yul\":7608:7749   */\n    tag_122:\n        /* \"#utility.yul\":7664:7669   */\n      0x00\n        /* \"#utility.yul\":7695:7701   */\n      dup2\n        /* \"#utility.yul\":7689:7702   */\n      mload\n        /* \"#utility.yul\":7680:7702   */\n      swap1\n      pop\n        /* \"#utility.yul\":7711:7743   */\n      tag_206\n        /* \"#utility.yul\":7737:7742   */\n      dup2\n        /* \"#utility.yul\":7711:7743   */\n      tag_121\n      jump\t// in\n    tag_206:\n        /* \"#utility.yul\":7608:7749   */\n      swap3\n      swap2\n      pop\n      pop\n      jump\t// out\n        /* \"#utility.yul\":7755:7831   */\n    tag_123:\n        /* \"#utility.yul\":7791:7798   */\n      0x00\n        /* \"#utility.yul\":7820:7825   */\n      dup2\n        /* \"#utility.yul\":7809:7825   */\n      swap1\n      pop\n        /* \"#utility.yul\":7755:7831   */\n      swap2\n      swap1\n      pop\n      jump\t// out\n        /* \"#utility.yul\":7837:7957   */\n    tag_124:\n        /* \"#utility.yul\":7909:7932   */\n      tag_209\n        /* \"#utility.yul\":7926:7931   */\n      dup2\n        /* \"#utility.yul\":7909:7932   */\n      tag_123\n      jump\t// in\n    tag_209:\n        /* \"#utility.yul\":7902:7907   */\n      dup2\n        /* \"#utility.yul\":7899:7933   */\n      eq\n        /* \"#utility.yul\":7889:7951   */\n      tag_210\n      jumpi\n        /* \"#utility.yul\":7947:7948   */\n      0x00\n        /* \"#utility.yul\":7944:7945   */\n      dup1\n        /* \"#utility.yul\":7937:7949   */\n      revert\n        /* \"#utility.yul\":7889:7951   */\n    tag_210:\n        /* \"#utility.yul\":7837:7957   */\n      pop\n      jump\t// out\n        /* \"#utility.yul\":7963:8104   */\n    tag_125:\n        /* \"#utility.yul\":8019:8024   */\n      0x00\n        /* \"#utility.yul\":8050:8056   */\n      dup2\n        /* \"#utility.yul\":8044:8057   */\n      mload\n        /* \"#utility.yul\":8035:8057   */\n      swap1\n      pop\n        /* \"#utility.yul\":8066:8098   */\n      tag_212\n        /* \"#utility.yul\":8092:8097   */\n      dup2\n        /* \"#utility.yul\":8066:8098   */\n      tag_124\n      jump\t// in\n    tag_212:\n        /* \"#utility.yul\":7963:8104   */\n      swap3\n      swap2\n      pop\n      pop\n      jump\t// out\n        /* \"#utility.yul\":8110:8253   */\n    tag_126:\n        /* \"#utility.yul\":8167:8172   */\n      0x00\n        /* \"#utility.yul\":8198:8204   */\n      dup2\n        /* \"#utility.yul\":8192:8205   */\n      mload\n        /* \"#utility.yul\":8183:8205   */\n      swap1\n      pop\n        /* \"#utility.yul\":8214:8247   */\n      tag_214\n        /* \"#utility.yul\":8241:8246   */\n      dup2\n        /* \"#utility.yul\":8214:8247   */\n      tag_108\n      jump\t// in\n    tag_214:\n        /* \"#utility.yul\":8110:8253   */\n      swap3\n      swap2\n      pop\n      pop\n      jump\t// out\n        /* \"#utility.yul\":8259:9230   */\n    tag_88:\n        /* \"#utility.yul\":8362:8368   */\n      0x00\n        /* \"#utility.yul\":8370:8376   */\n      dup1\n        /* \"#utility.yul\":8378:8384   */\n      0x00\n        /* \"#utility.yul\":8386:8392   */\n      dup1\n        /* \"#utility.yul\":8394:8400   */\n      0x00\n        /* \"#utility.yul\":8443:8446   */\n      0xa0\n        /* \"#utility.yul\":8431:8440   */\n      dup7\n        /* \"#utility.yul\":8422:8429   */\n      dup9\n        /* \"#utility.yul\":8418:8441   */\n      sub\n        /* \"#utility.yul\":8414:8447   */\n      slt\n        /* \"#utility.yul\":8411:8531   */\n      iszero\n      tag_216\n      jumpi\n        /* \"#utility.yul\":8450:8529   */\n      tag_217\n      tag_101\n      jump\t// in\n    tag_217:\n        /* \"#utility.yul\":8411:8531   */\n    tag_216:\n        /* \"#utility.yul\":8570:8571   */\n      0x00\n        /* \"#utility.yul\":8595:8658   */\n      tag_218\n        /* \"#utility.yul\":8650:8657   */\n      dup9\n        /* \"#utility.yul\":8641:8647   */\n      dup3\n        /* \"#utility.yul\":8630:8639   */\n      dup10\n        /* \"#utility.yul\":8626:8648   */\n      add\n        /* \"#utility.yul\":8595:8658   */\n      tag_122\n      jump\t// in\n    tag_218:\n        /* \"#utility.yul\":8585:8658   */\n      swap6\n      pop\n        /* \"#utility.yul\":8541:8668   */\n      pop\n        /* \"#utility.yul\":8707:8709   */\n      0x20\n        /* \"#utility.yul\":8733:8796   */\n      tag_219\n        /* \"#utility.yul\":8788:8795   */\n      dup9\n        /* \"#utility.yul\":8779:8785   */\n      dup3\n        /* \"#utility.yul\":8768:8777   */\n      dup10\n        /* \"#utility.yul\":8764:8786   */\n      add\n        /* \"#utility.yul\":8733:8796   */\n      tag_125\n      jump\t// in\n    tag_219:\n        /* \"#utility.yul\":8723:8796   */\n      swap5\n      pop\n        /* \"#utility.yul\":8678:8806   */\n      pop\n        /* \"#utility.yul\":8845:8847   */\n      0x40\n        /* \"#utility.yul\":8871:8935   */\n      tag_220\n        /* \"#utility.yul\":8927:8934   */\n      dup9\n        /* \"#utility.yul\":8918:8924   */\n      dup3\n        /* \"#utility.yul\":8907:8916   */\n      dup10\n        /* \"#utility.yul\":8903:8925   */\n      add\n        /* \"#utility.yul\":8871:8935   */\n      tag_126\n      jump\t// in\n    tag_220:\n        /* \"#utility.yul\":8861:8935   */\n      swap4\n      pop\n        /* \"#utility.yul\":8816:8945   */\n      pop\n        /* \"#utility.yul\":8984:8986   */\n      0x60\n        /* \"#utility.yul\":9010:9074   */\n      tag_221\n        /* \"#utility.yul\":9066:9073   */\n      dup9\n        /* \"#utility.yul\":9057:9063   */\n      dup3\n        /* \"#utility.yul\":9046:9055   */\n      dup10\n        /* \"#utility.yul\":9042:9064   */\n      add\n        /* \"#utility.yul\":9010:9074   */\n      tag_126\n      jump\t// in\n    tag_221:\n        /* \"#utility.yul\":9000:9074   */\n      swap3\n      pop\n        /* \"#utility.yul\":8955:9084   */\n      pop\n        /* \"#utility.yul\":9123:9126   */\n      0x80\n        /* \"#utility.yul\":9150:9213   */\n      tag_222\n        /* \"#utility.yul\":9205:9212   */\n      dup9\n        /* \"#utility.yul\":9196:9202   */\n      dup3\n        /* \"#utility.yul\":9185:9194   */\n      dup10\n        /* \"#utility.yul\":9181:9203   */\n      add\n        /* \"#utility.yul\":9150:9213   */\n      tag_122\n      jump\t// in\n    tag_222:\n        /* \"#utility.yul\":9140:9213   */\n      swap2\n      pop\n        /* \"#utility.yul\":9094:9223   */\n      pop\n        /* \"#utility.yul\":8259:9230   */\n      swap3\n      swap6\n      pop\n      swap3\n      swap6\n      swap1\n      swap4\n      pop\n      jump\t// out\n        /* \"#utility.yul\":9236:9792   */\n    tag_90:\n        /* \"#utility.yul\":9275:9282   */\n      0x00\n        /* \"#utility.yul\":9298:9317   */\n      tag_224\n        /* \"#utility.yul\":9315:9316   */\n      dup3\n        /* \"#utility.yul\":9298:9317   */\n      tag_123\n      jump\t// in\n    tag_224:\n        /* \"#utility.yul\":9293:9317   */\n      swap2\n      pop\n        /* \"#utility.yul\":9331:9350   */\n      tag_225\n        /* \"#utility.yul\":9348:9349   */\n      dup4\n        /* \"#utility.yul\":9331:9350   */\n      tag_123\n      jump\t// in\n    tag_225:\n        /* \"#utility.yul\":9326:9350   */\n      swap3\n      pop\n        /* \"#utility.yul\":9385:9386   */\n      dup3\n        /* \"#utility.yul\":9382:9383   */\n      dup3\n        /* \"#utility.yul\":9378:9387   */\n      mul\n        /* \"#utility.yul\":9407:9436   */\n      tag_226\n        /* \"#utility.yul\":9424:9435   */\n      dup2\n        /* \"#utility.yul\":9407:9436   */\n      tag_123\n      jump\t// in\n    tag_226:\n        /* \"#utility.yul\":9396:9436   */\n      swap2\n      pop\n        /* \"#utility.yul\":9494:9560   */\n      0x8000000000000000000000000000000000000000000000000000000000000000\n        /* \"#utility.yul\":9491:9492   */\n      dup5\n        /* \"#utility.yul\":9488:9561   */\n      eq\n        /* \"#utility.yul\":9484:9485   */\n      0x00\n        /* \"#utility.yul\":9481:9482   */\n      dup5\n        /* \"#utility.yul\":9477:9486   */\n      slt\n        /* \"#utility.yul\":9473:9562   */\n      and\n        /* \"#utility.yul\":9470:9585   */\n      iszero\n      tag_227\n      jumpi\n        /* \"#utility.yul\":9565:9583   */\n      tag_228\n      tag_113\n      jump\t// in\n    tag_228:\n        /* \"#utility.yul\":9470:9585   */\n    tag_227:\n        /* \"#utility.yul\":9735:9736   */\n      dup3\n        /* \"#utility.yul\":9726:9733   */\n      dup3\n        /* \"#utility.yul\":9721:9737   */\n      sdiv\n        /* \"#utility.yul\":9718:9719   */\n      dup5\n        /* \"#utility.yul\":9715:9738   */\n      eq\n        /* \"#utility.yul\":9695:9696   */\n      dup4\n        /* \"#utility.yul\":9688:9697   */\n      iszero\n        /* \"#utility.yul\":9668:9752   */\n      or\n        /* \"#utility.yul\":9645:9785   */\n      tag_229\n      jumpi\n        /* \"#utility.yul\":9765:9783   */\n      tag_230\n      tag_113\n      jump\t// in\n    tag_230:\n        /* \"#utility.yul\":9645:9785   */\n    tag_229:\n        /* \"#utility.yul\":9283:9792   */\n      pop\n        /* \"#utility.yul\":9236:9792   */\n      swap3\n      swap2\n      pop\n      pop\n      jump\t// out\n\n    auxdata: 0xa264697066735822122077b861b91ed94e2a3dae34ed2402fae9ade9fc69a25ff5bc27ab069e7659a85364736f6c634300081a0033\n}\n",
				"bytecode": {
					"linkReferences": {},
					"object": "60a0604052348015600e575f80fd5b503373ffffffffffffffffffffffffffffffffffffffff1660808173ffffffffffffffffffffffffffffffffffffffff1681525050608051610c0c6100625f395f818161026601526104b20152610c0c5ff3fe608060405260043610610058575f3560e01c80633ccfd60b146100715780636b69a592146100875780639d68f269146100b1578063b60d4288146100ed578063dba6335f146100f7578063dc0d3dff1461012157610067565b366100675761006561015d565b005b61006f61015d565b005b34801561007c575f80fd5b50610085610264565b005b348015610092575f80fd5b5061009b61048f565b6040516100a891906106a5565b60405180910390f35b3480156100bc575f80fd5b506100d760048036038101906100d2919061071c565b61049b565b6040516100e491906106a5565b60405180910390f35b6100f561015d565b005b348015610102575f80fd5b5061010b6104b0565b6040516101189190610756565b60405180910390f35b34801561012c575f80fd5b5061014760048036038101906101429190610799565b6104d4565b6040516101549190610756565b60405180910390f35b674563918244f4000061016f3461050e565b10156101b0576040517f08c379a00000000000000000000000000000000000000000000000000000000081526004016101a790610844565b60405180910390fd5b5f33908060018154018082558091505060019003905f5260205f20015f9091909190916101000a81548173ffffffffffffffffffffffffffffffffffffffff021916908373ffffffffffffffffffffffffffffffffffffffff1602179055503460015f3373ffffffffffffffffffffffffffffffffffffffff1673ffffffffffffffffffffffffffffffffffffffff1681526020019081526020015f205f82825461025b919061088f565b92505081905550565b7f000000000000000000000000000000000000000000000000000000000000000073ffffffffffffffffffffffffffffffffffffffff163373ffffffffffffffffffffffffffffffffffffffff16146102e9576040517f251c9d6300000000000000000000000000000000000000000000000000000000815260040160405180910390fd5b5f5b5f80549050811015610385575f80828154811061030b5761030a6108c2565b5b905f5260205f20015f9054906101000a900473ffffffffffffffffffffffffffffffffffffffff1690505f60015f8373ffffffffffffffffffffffffffffffffffffffff1673ffffffffffffffffffffffffffffffffffffffff1681526020019081526020015f20819055505080806001019150506102eb565b505f67ffffffffffffffff8111156103a05761039f6108ef565b5b6040519080825280602002602001820160405280156103ce5781602001602082028036833780820191505090505b505f90805190602001906103e39291906105eb565b505f3373ffffffffffffffffffffffffffffffffffffffff164760405161040990610949565b5f6040518083038185875af1925050503d805f8114610443576040519150601f19603f3d011682016040523d82523d5f602084013e610448565b606091505b505090508061048c576040517f08c379a0000000000000000000000000000000000000000000000000000000008152600401610483906109a7565b60405180910390fd5b50565b674563918244f4000081565b6001602052805f5260405f205f915090505481565b7f000000000000000000000000000000000000000000000000000000000000000081565b5f81815481106104e2575f80fd5b905f5260205f20015f915054906101000a900473ffffffffffffffffffffffffffffffffffffffff1681565b5f80610518610546565b90505f670de0b6b3a7640000848361053091906109c5565b61053a9190610a33565b90508092505050919050565b5f8073feeff7c3fb57d18c5c6cdd71e45d2d0b4f9377bf90505f8173ffffffffffffffffffffffffffffffffffffffff1663feaf968c6040518163ffffffff1660e01b815260040160a060405180830381865afa1580156105a9573d5f803e3d5ffd5b505050506040513d601f19601f820116820180604052508101906105cd9190610ae9565b5050509150506402540be400816105e49190610b60565b9250505090565b828054828255905f5260205f20908101928215610661579160200282015b82811115610660578251825f6101000a81548173ffffffffffffffffffffffffffffffffffffffff021916908373ffffffffffffffffffffffffffffffffffffffff16021790555091602001919060010190610609565b5b50905061066e9190610672565b5090565b5b80821115610689575f815f905550600101610673565b5090565b5f819050919050565b61069f8161068d565b82525050565b5f6020820190506106b85f830184610696565b92915050565b5f80fd5b5f73ffffffffffffffffffffffffffffffffffffffff82169050919050565b5f6106eb826106c2565b9050919050565b6106fb816106e1565b8114610705575f80fd5b50565b5f81359050610716816106f2565b92915050565b5f60208284031215610731576107306106be565b5b5f61073e84828501610708565b91505092915050565b610750816106e1565b82525050565b5f6020820190506107695f830184610747565b92915050565b6107788161068d565b8114610782575f80fd5b50565b5f813590506107938161076f565b92915050565b5f602082840312156107ae576107ad6106be565b5b5f6107bb84828501610785565b91505092915050565b5f82825260208201905092915050565b7f596f7520646f6e2774206861766520656e6f756768742063757272656e6379205f8201527f746f20657865637574652074686973207472616e73616374696f6e2100000000602082015250565b5f61082e603c836107c4565b9150610839826107d4565b604082019050919050565b5f6020820190508181035f83015261085b81610822565b9050919050565b7f4e487b71000000000000000000000000000000000000000000000000000000005f52601160045260245ffd5b5f6108998261068d565b91506108a48361068d565b92508282019050808211156108bc576108bb610862565b5b92915050565b7f4e487b71000000000000000000000000000000000000000000000000000000005f52603260045260245ffd5b7f4e487b71000000000000000000000000000000000000000000000000000000005f52604160045260245ffd5b5f81905092915050565b50565b5f6109345f8361091c565b915061093f82610926565b5f82019050919050565b5f61095382610929565b9150819050919050565b7f43616c6c206661696c65642100000000000000000000000000000000000000005f82015250565b5f610991600c836107c4565b915061099c8261095d565b602082019050919050565b5f6020820190508181035f8301526109be81610985565b9050919050565b5f6109cf8261068d565b91506109da8361068d565b92508282026109e88161068d565b915082820484148315176109ff576109fe610862565b5b5092915050565b7f4e487b71000000000000000000000000000000000000000000000000000000005f52601260045260245ffd5b5f610a3d8261068d565b9150610a488361068d565b925082610a5857610a57610a06565b5b828204905092915050565b5f69ffffffffffffffffffff82169050919050565b610a8181610a63565b8114610a8b575f80fd5b50565b5f81519050610a9c81610a78565b92915050565b5f819050919050565b610ab481610aa2565b8114610abe575f80fd5b50565b5f81519050610acf81610aab565b92915050565b5f81519050610ae38161076f565b92915050565b5f805f805f60a08688031215610b0257610b016106be565b5b5f610b0f88828901610a8e565b9550506020610b2088828901610ac1565b9450506040610b3188828901610ad5565b9350506060610b4288828901610ad5565b9250506080610b5388828901610a8e565b9150509295509295909350565b5f610b6a82610aa2565b9150610b7583610aa2565b9250828202610b8381610aa2565b91507f800000000000000000000000000000000000000000000000000000000000000084145f84121615610bba57610bb9610862565b5b8282058414831517610bcf57610bce610862565b5b509291505056fea264697066735822122077b861b91ed94e2a3dae34ed2402fae9ade9fc69a25ff5bc27ab069e7659a85364736f6c634300081a0033",
					"opcodes": "PUSH1 0xA0 PUSH1 0x40 MSTORE CALLVALUE DUP1 ISZERO PUSH1 0xE JUMPI PUSH0 DUP1 REVERT JUMPDEST POP CALLER PUSH20 0xFFFFFFFFFFFFFFFFFFFFFFFFFFFFFFFFFFFFFFFF AND PUSH1 0x80 DUP2 PUSH20 0xFFFFFFFFFFFFFFFFFFFFFFFFFFFFFFFFFFFFFFFF AND DUP2 MSTORE POP POP PUSH1 0x80 MLOAD PUSH2 0xC0C PUSH2 0x62 PUSH0 CODECOPY PUSH0 DUP2 DUP2 PUSH2 0x266 ADD MSTORE PUSH2 0x4B2 ADD MSTORE PUSH2 0xC0C PUSH0 RETURN INVALID PUSH1 0x80 PUSH1 0x40 MSTORE PUSH1 0x4 CALLDATASIZE LT PUSH2 0x58 JUMPI PUSH0 CALLDATALOAD PUSH1 0xE0 SHR DUP1 PUSH4 0x3CCFD60B EQ PUSH2 0x71 JUMPI DUP1 PUSH4 0x6B69A592 EQ PUSH2 0x87 JUMPI DUP1 PUSH4 0x9D68F269 EQ PUSH2 0xB1 JUMPI DUP1 PUSH4 0xB60D4288 EQ PUSH2 0xED JUMPI DUP1 PUSH4 0xDBA6335F EQ PUSH2 0xF7 JUMPI DUP1 PUSH4 0xDC0D3DFF EQ PUSH2 0x121 JUMPI PUSH2 0x67 JUMP JUMPDEST CALLDATASIZE PUSH2 0x67 JUMPI PUSH2 0x65 PUSH2 0x15D JUMP JUMPDEST STOP JUMPDEST PUSH2 0x6F PUSH2 0x15D JUMP JUMPDEST STOP JUMPDEST CALLVALUE DUP1 ISZERO PUSH2 0x7C JUMPI PUSH0 DUP1 REVERT JUMPDEST POP PUSH2 0x85 PUSH2 0x264 JUMP JUMPDEST STOP JUMPDEST CALLVALUE DUP1 ISZERO PUSH2 0x92 JUMPI PUSH0 DUP1 REVERT JUMPDEST POP PUSH2 0x9B PUSH2 0x48F JUMP JUMPDEST PUSH1 0x40 MLOAD PUSH2 0xA8 SWAP2 SWAP1 PUSH2 0x6A5 JUMP JUMPDEST PUSH1 0x40 MLOAD DUP1 SWAP2 SUB SWAP1 RETURN JUMPDEST CALLVALUE DUP1 ISZERO PUSH2 0xBC JUMPI PUSH0 DUP1 REVERT JUMPDEST POP PUSH2 0xD7 PUSH1 0x4 DUP1 CALLDATASIZE SUB DUP2 ADD SWAP1 PUSH2 0xD2 SWAP2 SWAP1 PUSH2 0x71C JUMP JUMPDEST PUSH2 0x49B JUMP JUMPDEST PUSH1 0x40 MLOAD PUSH2 0xE4 SWAP2 SWAP1 PUSH2 0x6A5 JUMP JUMPDEST PUSH1 0x40 MLOAD DUP1 SWAP2 SUB SWAP1 RETURN JUMPDEST PUSH2 0xF5 PUSH2 0x15D JUMP JUMPDEST STOP JUMPDEST CALLVALUE DUP1 ISZERO PUSH2 0x102 JUMPI PUSH0 DUP1 REVERT JUMPDEST POP PUSH2 0x10B PUSH2 0x4B0 JUMP JUMPDEST PUSH1 0x40 MLOAD PUSH2 0x118 SWAP2 SWAP1 PUSH2 0x756 JUMP JUMPDEST PUSH1 0x40 MLOAD DUP1 SWAP2 SUB SWAP1 RETURN JUMPDEST CALLVALUE DUP1 ISZERO PUSH2 0x12C JUMPI PUSH0 DUP1 REVERT JUMPDEST POP PUSH2 0x147 PUSH1 0x4 DUP1 CALLDATASIZE SUB DUP2 ADD SWAP1 PUSH2 0x142 SWAP2 SWAP1 PUSH2 0x799 JUMP JUMPDEST PUSH2 0x4D4 JUMP JUMPDEST PUSH1 0x40 MLOAD PUSH2 0x154 SWAP2 SWAP1 PUSH2 0x756 JUMP JUMPDEST PUSH1 0x40 MLOAD DUP1 SWAP2 SUB SWAP1 RETURN JUMPDEST PUSH8 0x4563918244F40000 PUSH2 0x16F CALLVALUE PUSH2 0x50E JUMP JUMPDEST LT ISZERO PUSH2 0x1B0 JUMPI PUSH1 0x40 MLOAD PUSH32 0x8C379A000000000000000000000000000000000000000000000000000000000 DUP2 MSTORE PUSH1 0x4 ADD PUSH2 0x1A7 SWAP1 PUSH2 0x844 JUMP JUMPDEST PUSH1 0x40 MLOAD DUP1 SWAP2 SUB SWAP1 REVERT JUMPDEST PUSH0 CALLER SWAP1 DUP1 PUSH1 0x1 DUP2 SLOAD ADD DUP1 DUP3 SSTORE DUP1 SWAP2 POP POP PUSH1 0x1 SWAP1 SUB SWAP1 PUSH0 MSTORE PUSH1 0x20 PUSH0 KECCAK256 ADD PUSH0 SWAP1 SWAP2 SWAP1 SWAP2 SWAP1 SWAP2 PUSH2 0x100 EXP DUP2 SLOAD DUP2 PUSH20 0xFFFFFFFFFFFFFFFFFFFFFFFFFFFFFFFFFFFFFFFF MUL NOT AND SWAP1 DUP4 PUSH20 0xFFFFFFFFFFFFFFFFFFFFFFFFFFFFFFFFFFFFFFFF AND MUL OR SWAP1 SSTORE POP CALLVALUE PUSH1 0x1 PUSH0 CALLER PUSH20 0xFFFFFFFFFFFFFFFFFFFFFFFFFFFFFFFFFFFFFFFF AND PUSH20 0xFFFFFFFFFFFFFFFFFFFFFFFFFFFFFFFFFFFFFFFF AND DUP2 MSTORE PUSH1 0x20 ADD SWAP1 DUP2 MSTORE PUSH1 0x20 ADD PUSH0 KECCAK256 PUSH0 DUP3 DUP3 SLOAD PUSH2 0x25B SWAP2 SWAP1 PUSH2 0x88F JUMP JUMPDEST SWAP3 POP POP DUP2 SWAP1 SSTORE POP JUMP JUMPDEST PUSH32 0x0 PUSH20 0xFFFFFFFFFFFFFFFFFFFFFFFFFFFFFFFFFFFFFFFF AND CALLER PUSH20 0xFFFFFFFFFFFFFFFFFFFFFFFFFFFFFFFFFFFFFFFF AND EQ PUSH2 0x2E9 JUMPI PUSH1 0x40 MLOAD PUSH32 0x251C9D6300000000000000000000000000000000000000000000000000000000 DUP2 MSTORE PUSH1 0x4 ADD PUSH1 0x40 MLOAD DUP1 SWAP2 SUB SWAP1 REVERT JUMPDEST PUSH0 JUMPDEST PUSH0 DUP1 SLOAD SWAP1 POP DUP2 LT ISZERO PUSH2 0x385 JUMPI PUSH0 DUP1 DUP3 DUP2 SLOAD DUP2 LT PUSH2 0x30B JUMPI PUSH2 0x30A PUSH2 0x8C2 JUMP JUMPDEST JUMPDEST SWAP1 PUSH0 MSTORE PUSH1 0x20 PUSH0 KECCAK256 ADD PUSH0 SWAP1 SLOAD SWAP1 PUSH2 0x100 EXP SWAP1 DIV PUSH20 0xFFFFFFFFFFFFFFFFFFFFFFFFFFFFFFFFFFFFFFFF AND SWAP1 POP PUSH0 PUSH1 0x1 PUSH0 DUP4 PUSH20 0xFFFFFFFFFFFFFFFFFFFFFFFFFFFFFFFFFFFFFFFF AND PUSH20 0xFFFFFFFFFFFFFFFFFFFFFFFFFFFFFFFFFFFFFFFF AND DUP2 MSTORE PUSH1 0x20 ADD SWAP1 DUP2 MSTORE PUSH1 0x20 ADD PUSH0 KECCAK256 DUP2 SWAP1 SSTORE POP POP DUP1 DUP1 PUSH1 0x1 ADD SWAP2 POP POP PUSH2 0x2EB JUMP JUMPDEST POP PUSH0 PUSH8 0xFFFFFFFFFFFFFFFF DUP2 GT ISZERO PUSH2 0x3A0 JUMPI PUSH2 0x39F PUSH2 0x8EF JUMP JUMPDEST JUMPDEST PUSH1 0x40 MLOAD SWAP1 DUP1 DUP3 MSTORE DUP1 PUSH1 0x20 MUL PUSH1 0x20 ADD DUP3 ADD PUSH1 0x40 MSTORE DUP1 ISZERO PUSH2 0x3CE JUMPI DUP2 PUSH1 0x20 ADD PUSH1 0x20 DUP3 MUL DUP1 CALLDATASIZE DUP4 CALLDATACOPY DUP1 DUP3 ADD SWAP2 POP POP SWAP1 POP JUMPDEST POP PUSH0 SWAP1 DUP1 MLOAD SWAP1 PUSH1 0x20 ADD SWAP1 PUSH2 0x3E3 SWAP3 SWAP2 SWAP1 PUSH2 0x5EB JUMP JUMPDEST POP PUSH0 CALLER PUSH20 0xFFFFFFFFFFFFFFFFFFFFFFFFFFFFFFFFFFFFFFFF AND SELFBALANCE PUSH1 0x40 MLOAD PUSH2 0x409 SWAP1 PUSH2 0x949 JUMP JUMPDEST PUSH0 PUSH1 0x40 MLOAD DUP1 DUP4 SUB DUP2 DUP6 DUP8 GAS CALL SWAP3 POP POP POP RETURNDATASIZE DUP1 PUSH0 DUP2 EQ PUSH2 0x443 JUMPI PUSH1 0x40 MLOAD SWAP2 POP PUSH1 0x1F NOT PUSH1 0x3F RETURNDATASIZE ADD AND DUP3 ADD PUSH1 0x40 MSTORE RETURNDATASIZE DUP3 MSTORE RETURNDATASIZE PUSH0 PUSH1 0x20 DUP5 ADD RETURNDATACOPY PUSH2 0x448 JUMP JUMPDEST PUSH1 0x60 SWAP2 POP JUMPDEST POP POP SWAP1 POP DUP1 PUSH2 0x48C JUMPI PUSH1 0x40 MLOAD PUSH32 0x8C379A000000000000000000000000000000000000000000000000000000000 DUP2 MSTORE PUSH1 0x4 ADD PUSH2 0x483 SWAP1 PUSH2 0x9A7 JUMP JUMPDEST PUSH1 0x40 MLOAD DUP1 SWAP2 SUB SWAP1 REVERT JUMPDEST POP JUMP JUMPDEST PUSH8 0x4563918244F40000 DUP2 JUMP JUMPDEST PUSH1 0x1 PUSH1 0x20 MSTORE DUP1 PUSH0 MSTORE PUSH1 0x40 PUSH0 KECCAK256 PUSH0 SWAP2 POP SWAP1 POP SLOAD DUP2 JUMP JUMPDEST PUSH32 0x0 DUP2 JUMP JUMPDEST PUSH0 DUP2 DUP2 SLOAD DUP2 LT PUSH2 0x4E2 JUMPI PUSH0 DUP1 REVERT JUMPDEST SWAP1 PUSH0 MSTORE PUSH1 0x20 PUSH0 KECCAK256 ADD PUSH0 SWAP2 POP SLOAD SWAP1 PUSH2 0x100 EXP SWAP1 DIV PUSH20 0xFFFFFFFFFFFFFFFFFFFFFFFFFFFFFFFFFFFFFFFF AND DUP2 JUMP JUMPDEST PUSH0 DUP1 PUSH2 0x518 PUSH2 0x546 JUMP JUMPDEST SWAP1 POP PUSH0 PUSH8 0xDE0B6B3A7640000 DUP5 DUP4 PUSH2 0x530 SWAP2 SWAP1 PUSH2 0x9C5 JUMP JUMPDEST PUSH2 0x53A SWAP2 SWAP1 PUSH2 0xA33 JUMP JUMPDEST SWAP1 POP DUP1 SWAP3 POP POP POP SWAP2 SWAP1 POP JUMP JUMPDEST PUSH0 DUP1 PUSH20 0xFEEFF7C3FB57D18C5C6CDD71E45D2D0B4F9377BF SWAP1 POP PUSH0 DUP2 PUSH20 0xFFFFFFFFFFFFFFFFFFFFFFFFFFFFFFFFFFFFFFFF AND PUSH4 0xFEAF968C PUSH1 0x40 MLOAD DUP2 PUSH4 0xFFFFFFFF AND PUSH1 0xE0 SHL DUP2 MSTORE PUSH1 0x4 ADD PUSH1 0xA0 PUSH1 0x40 MLOAD DUP1 DUP4 SUB DUP2 DUP7 GAS STATICCALL ISZERO DUP1 ISZERO PUSH2 0x5A9 JUMPI RETURNDATASIZE PUSH0 DUP1 RETURNDATACOPY RETURNDATASIZE PUSH0 REVERT JUMPDEST POP POP POP POP PUSH1 0x40 MLOAD RETURNDATASIZE PUSH1 0x1F NOT PUSH1 0x1F DUP3 ADD AND DUP3 ADD DUP1 PUSH1 0x40 MSTORE POP DUP2 ADD SWAP1 PUSH2 0x5CD SWAP2 SWAP1 PUSH2 0xAE9 JUMP JUMPDEST POP POP POP SWAP2 POP POP PUSH5 0x2540BE400 DUP2 PUSH2 0x5E4 SWAP2 SWAP1 PUSH2 0xB60 JUMP JUMPDEST SWAP3 POP POP POP SWAP1 JUMP JUMPDEST DUP3 DUP1 SLOAD DUP3 DUP3 SSTORE SWAP1 PUSH0 MSTORE PUSH1 0x20 PUSH0 KECCAK256 SWAP1 DUP2 ADD SWAP3 DUP3 ISZERO PUSH2 0x661 JUMPI SWAP2 PUSH1 0x20 MUL DUP3 ADD JUMPDEST DUP3 DUP2 GT ISZERO PUSH2 0x660 JUMPI DUP3 MLOAD DUP3 PUSH0 PUSH2 0x100 EXP DUP2 SLOAD DUP2 PUSH20 0xFFFFFFFFFFFFFFFFFFFFFFFFFFFFFFFFFFFFFFFF MUL NOT AND SWAP1 DUP4 PUSH20 0xFFFFFFFFFFFFFFFFFFFFFFFFFFFFFFFFFFFFFFFF AND MUL OR SWAP1 SSTORE POP SWAP2 PUSH1 0x20 ADD SWAP2 SWAP1 PUSH1 0x1 ADD SWAP1 PUSH2 0x609 JUMP JUMPDEST JUMPDEST POP SWAP1 POP PUSH2 0x66E SWAP2 SWAP1 PUSH2 0x672 JUMP JUMPDEST POP SWAP1 JUMP JUMPDEST JUMPDEST DUP1 DUP3 GT ISZERO PUSH2 0x689 JUMPI PUSH0 DUP2 PUSH0 SWAP1 SSTORE POP PUSH1 0x1 ADD PUSH2 0x673 JUMP JUMPDEST POP SWAP1 JUMP JUMPDEST PUSH0 DUP2 SWAP1 POP SWAP2 SWAP1 POP JUMP JUMPDEST PUSH2 0x69F DUP2 PUSH2 0x68D JUMP JUMPDEST DUP3 MSTORE POP POP JUMP JUMPDEST PUSH0 PUSH1 0x20 DUP3 ADD SWAP1 POP PUSH2 0x6B8 PUSH0 DUP4 ADD DUP5 PUSH2 0x696 JUMP JUMPDEST SWAP3 SWAP2 POP POP JUMP JUMPDEST PUSH0 DUP1 REVERT JUMPDEST PUSH0 PUSH20 0xFFFFFFFFFFFFFFFFFFFFFFFFFFFFFFFFFFFFFFFF DUP3 AND SWAP1 POP SWAP2 SWAP1 POP JUMP JUMPDEST PUSH0 PUSH2 0x6EB DUP3 PUSH2 0x6C2 JUMP JUMPDEST SWAP1 POP SWAP2 SWAP1 POP JUMP JUMPDEST PUSH2 0x6FB DUP2 PUSH2 0x6E1 JUMP JUMPDEST DUP2 EQ PUSH2 0x705 JUMPI PUSH0 DUP1 REVERT JUMPDEST POP JUMP JUMPDEST PUSH0 DUP2 CALLDATALOAD SWAP1 POP PUSH2 0x716 DUP2 PUSH2 0x6F2 JUMP JUMPDEST SWAP3 SWAP2 POP POP JUMP JUMPDEST PUSH0 PUSH1 0x20 DUP3 DUP5 SUB SLT ISZERO PUSH2 0x731 JUMPI PUSH2 0x730 PUSH2 0x6BE JUMP JUMPDEST JUMPDEST PUSH0 PUSH2 0x73E DUP5 DUP3 DUP6 ADD PUSH2 0x708 JUMP JUMPDEST SWAP2 POP POP SWAP3 SWAP2 POP POP JUMP JUMPDEST PUSH2 0x750 DUP2 PUSH2 0x6E1 JUMP JUMPDEST DUP3 MSTORE POP POP JUMP JUMPDEST PUSH0 PUSH1 0x20 DUP3 ADD SWAP1 POP PUSH2 0x769 PUSH0 DUP4 ADD DUP5 PUSH2 0x747 JUMP JUMPDEST SWAP3 SWAP2 POP POP JUMP JUMPDEST PUSH2 0x778 DUP2 PUSH2 0x68D JUMP JUMPDEST DUP2 EQ PUSH2 0x782 JUMPI PUSH0 DUP1 REVERT JUMPDEST POP JUMP JUMPDEST PUSH0 DUP2 CALLDATALOAD SWAP1 POP PUSH2 0x793 DUP2 PUSH2 0x76F JUMP JUMPDEST SWAP3 SWAP2 POP POP JUMP JUMPDEST PUSH0 PUSH1 0x20 DUP3 DUP5 SUB SLT ISZERO PUSH2 0x7AE JUMPI PUSH2 0x7AD PUSH2 0x6BE JUMP JUMPDEST JUMPDEST PUSH0 PUSH2 0x7BB DUP5 DUP3 DUP6 ADD PUSH2 0x785 JUMP JUMPDEST SWAP2 POP POP SWAP3 SWAP2 POP POP JUMP JUMPDEST PUSH0 DUP3 DUP3 MSTORE PUSH1 0x20 DUP3 ADD SWAP1 POP SWAP3 SWAP2 POP POP JUMP JUMPDEST PUSH32 0x596F7520646F6E2774206861766520656E6F756768742063757272656E637920 PUSH0 DUP3 ADD MSTORE PUSH32 0x746F20657865637574652074686973207472616E73616374696F6E2100000000 PUSH1 0x20 DUP3 ADD MSTORE POP JUMP JUMPDEST PUSH0 PUSH2 0x82E PUSH1 0x3C DUP4 PUSH2 0x7C4 JUMP JUMPDEST SWAP2 POP PUSH2 0x839 DUP3 PUSH2 0x7D4 JUMP JUMPDEST PUSH1 0x40 DUP3 ADD SWAP1 POP SWAP2 SWAP1 POP JUMP JUMPDEST PUSH0 PUSH1 0x20 DUP3 ADD SWAP1 POP DUP2 DUP2 SUB PUSH0 DUP4 ADD MSTORE PUSH2 0x85B DUP2 PUSH2 0x822 JUMP JUMPDEST SWAP1 POP SWAP2 SWAP1 POP JUMP JUMPDEST PUSH32 0x4E487B7100000000000000000000000000000000000000000000000000000000 PUSH0 MSTORE PUSH1 0x11 PUSH1 0x4 MSTORE PUSH1 0x24 PUSH0 REVERT JUMPDEST PUSH0 PUSH2 0x899 DUP3 PUSH2 0x68D JUMP JUMPDEST SWAP2 POP PUSH2 0x8A4 DUP4 PUSH2 0x68D JUMP JUMPDEST SWAP3 POP DUP3 DUP3 ADD SWAP1 POP DUP1 DUP3 GT ISZERO PUSH2 0x8BC JUMPI PUSH2 0x8BB PUSH2 0x862 JUMP JUMPDEST JUMPDEST SWAP3 SWAP2 POP POP JUMP JUMPDEST PUSH32 0x4E487B7100000000000000000000000000000000000000000000000000000000 PUSH0 MSTORE PUSH1 0x32 PUSH1 0x4 MSTORE PUSH1 0x24 PUSH0 REVERT JUMPDEST PUSH32 0x4E487B7100000000000000000000000000000000000000000000000000000000 PUSH0 MSTORE PUSH1 0x41 PUSH1 0x4 MSTORE PUSH1 0x24 PUSH0 REVERT JUMPDEST PUSH0 DUP2 SWAP1 POP SWAP3 SWAP2 POP POP JUMP JUMPDEST POP JUMP JUMPDEST PUSH0 PUSH2 0x934 PUSH0 DUP4 PUSH2 0x91C JUMP JUMPDEST SWAP2 POP PUSH2 0x93F DUP3 PUSH2 0x926 JUMP JUMPDEST PUSH0 DUP3 ADD SWAP1 POP SWAP2 SWAP1 POP JUMP JUMPDEST PUSH0 PUSH2 0x953 DUP3 PUSH2 0x929 JUMP JUMPDEST SWAP2 POP DUP2 SWAP1 POP SWAP2 SWAP1 POP JUMP JUMPDEST PUSH32 0x43616C6C206661696C6564210000000000000000000000000000000000000000 PUSH0 DUP3 ADD MSTORE POP JUMP JUMPDEST PUSH0 PUSH2 0x991 PUSH1 0xC DUP4 PUSH2 0x7C4 JUMP JUMPDEST SWAP2 POP PUSH2 0x99C DUP3 PUSH2 0x95D JUMP JUMPDEST PUSH1 0x20 DUP3 ADD SWAP1 POP SWAP2 SWAP1 POP JUMP JUMPDEST PUSH0 PUSH1 0x20 DUP3 ADD SWAP1 POP DUP2 DUP2 SUB PUSH0 DUP4 ADD MSTORE PUSH2 0x9BE DUP2 PUSH2 0x985 JUMP JUMPDEST SWAP1 POP SWAP2 SWAP1 POP JUMP JUMPDEST PUSH0 PUSH2 0x9CF DUP3 PUSH2 0x68D JUMP JUMPDEST SWAP2 POP PUSH2 0x9DA DUP4 PUSH2 0x68D JUMP JUMPDEST SWAP3 POP DUP3 DUP3 MUL PUSH2 0x9E8 DUP2 PUSH2 0x68D JUMP JUMPDEST SWAP2 POP DUP3 DUP3 DIV DUP5 EQ DUP4 ISZERO OR PUSH2 0x9FF JUMPI PUSH2 0x9FE PUSH2 0x862 JUMP JUMPDEST JUMPDEST POP SWAP3 SWAP2 POP POP JUMP JUMPDEST PUSH32 0x4E487B7100000000000000000000000000000000000000000000000000000000 PUSH0 MSTORE PUSH1 0x12 PUSH1 0x4 MSTORE PUSH1 0x24 PUSH0 REVERT JUMPDEST PUSH0 PUSH2 0xA3D DUP3 PUSH2 0x68D JUMP JUMPDEST SWAP2 POP PUSH2 0xA48 DUP4 PUSH2 0x68D JUMP JUMPDEST SWAP3 POP DUP3 PUSH2 0xA58 JUMPI PUSH2 0xA57 PUSH2 0xA06 JUMP JUMPDEST JUMPDEST DUP3 DUP3 DIV SWAP1 POP SWAP3 SWAP2 POP POP JUMP JUMPDEST PUSH0 PUSH10 0xFFFFFFFFFFFFFFFFFFFF DUP3 AND SWAP1 POP SWAP2 SWAP1 POP JUMP JUMPDEST PUSH2 0xA81 DUP2 PUSH2 0xA63 JUMP JUMPDEST DUP2 EQ PUSH2 0xA8B JUMPI PUSH0 DUP1 REVERT JUMPDEST POP JUMP JUMPDEST PUSH0 DUP2 MLOAD SWAP1 POP PUSH2 0xA9C DUP2 PUSH2 0xA78 JUMP JUMPDEST SWAP3 SWAP2 POP POP JUMP JUMPDEST PUSH0 DUP2 SWAP1 POP SWAP2 SWAP1 POP JUMP JUMPDEST PUSH2 0xAB4 DUP2 PUSH2 0xAA2 JUMP JUMPDEST DUP2 EQ PUSH2 0xABE JUMPI PUSH0 DUP1 REVERT JUMPDEST POP JUMP JUMPDEST PUSH0 DUP2 MLOAD SWAP1 POP PUSH2 0xACF DUP2 PUSH2 0xAAB JUMP JUMPDEST SWAP3 SWAP2 POP POP JUMP JUMPDEST PUSH0 DUP2 MLOAD SWAP1 POP PUSH2 0xAE3 DUP2 PUSH2 0x76F JUMP JUMPDEST SWAP3 SWAP2 POP POP JUMP JUMPDEST PUSH0 DUP1 PUSH0 DUP1 PUSH0 PUSH1 0xA0 DUP7 DUP9 SUB SLT ISZERO PUSH2 0xB02 JUMPI PUSH2 0xB01 PUSH2 0x6BE JUMP JUMPDEST JUMPDEST PUSH0 PUSH2 0xB0F DUP9 DUP3 DUP10 ADD PUSH2 0xA8E JUMP JUMPDEST SWAP6 POP POP PUSH1 0x20 PUSH2 0xB20 DUP9 DUP3 DUP10 ADD PUSH2 0xAC1 JUMP JUMPDEST SWAP5 POP POP PUSH1 0x40 PUSH2 0xB31 DUP9 DUP3 DUP10 ADD PUSH2 0xAD5 JUMP JUMPDEST SWAP4 POP POP PUSH1 0x60 PUSH2 0xB42 DUP9 DUP3 DUP10 ADD PUSH2 0xAD5 JUMP JUMPDEST SWAP3 POP POP PUSH1 0x80 PUSH2 0xB53 DUP9 DUP3 DUP10 ADD PUSH2 0xA8E JUMP JUMPDEST SWAP2 POP POP SWAP3 SWAP6 POP SWAP3 SWAP6 SWAP1 SWAP4 POP JUMP JUMPDEST PUSH0 PUSH2 0xB6A DUP3 PUSH2 0xAA2 JUMP JUMPDEST SWAP2 POP PUSH2 0xB75 DUP4 PUSH2 0xAA2 JUMP JUMPDEST SWAP3 POP DUP3 DUP3 MUL PUSH2 0xB83 DUP2 PUSH2 0xAA2 JUMP JUMPDEST SWAP2 POP PUSH32 0x8000000000000000000000000000000000000000000000000000000000000000 DUP5 EQ PUSH0 DUP5 SLT AND ISZERO PUSH2 0xBBA JUMPI PUSH2 0xBB9 PUSH2 0x862 JUMP JUMPDEST JUMPDEST DUP3 DUP3 SDIV DUP5 EQ DUP4 ISZERO OR PUSH2 0xBCF JUMPI PUSH2 0xBCE PUSH2 0x862 JUMP JUMPDEST JUMPDEST POP SWAP3 SWAP2 POP POP JUMP INVALID LOG2 PUSH5 0x6970667358 0x22 SLT KECCAK256 PUSH24 0xB861B91ED94E2A3DAE34ED2402FAE9ADE9FC69A25FF5BC27 0xAB MOD SWAP15 PUSH23 0x59A85364736F6C634300081A0033000000000000000000 "
				},
				"gasEstimates": {
					"creation": {
						"codeDepositCost": "616800",
						"executionCost": "infinite",
						"totalCost": "infinite"
					},
					"external": {
						"": "infinite",
						"MINIMUM_USD()": "325",
						"addressToAmmountFunded(address)": "2824",
						"fund()": "infinite",
						"funders(uint256)": "5031",
						"i_owner()": "infinite",
						"withdraw()": "infinite"
					}
				},
				"methodIdentifiers": {
					"MINIMUM_USD()": "6b69a592",
					"addressToAmmountFunded(address)": "9d68f269",
					"fund()": "b60d4288",
					"funders(uint256)": "dc0d3dff",
					"i_owner()": "dba6335f",
					"withdraw()": "3ccfd60b"
				}
			},
			"storageLayout": {
				"storage": [
					{
						"astId": 123,
						"contract": "FundMe/FundMe.sol:FundMe",
						"label": "funders",
						"offset": 0,
						"slot": "0",
						"type": "t_array(t_address)dyn_storage"
					},
					{
						"astId": 127,
						"contract": "FundMe/FundMe.sol:FundMe",
						"label": "addressToAmmountFunded",
						"offset": 0,
						"slot": "1",
						"type": "t_mapping(t_address,t_uint256)"
					}
				],
				"types": {
					"t_address": {
						"encoding": "inplace",
						"label": "address",
						"numberOfBytes": "20"
					},
					"t_array(t_address)dyn_storage": {
						"base": "t_address",
						"encoding": "dynamic_array",
						"label": "address[]",
						"numberOfBytes": "32"
					},
					"t_mapping(t_address,t_uint256)": {
						"encoding": "mapping",
						"key": "t_address",
						"label": "mapping(address => uint256)",
						"numberOfBytes": "32",
						"value": "t_uint256"
					},
					"t_uint256": {
						"encoding": "inplace",
						"label": "uint256",
						"numberOfBytes": "32"
					}
				}
			},
			"userdoc": {
				"kind": "user",
				"methods": {},
				"version": 1
			}
		}
	}
}