{"abi":[{"type":"constructor","inputs":[],"stateMutability":"nonpayable"},{"type":"function","name":"createSender","inputs":[{"name":"initCode","type":"bytes","internalType":"bytes"}],"outputs":[{"name":"sender","type":"address","internalType":"address"}],"stateMutability":"nonpayable"},{"type":"function","name":"entryPoint","inputs":[],"outputs":[{"name":"","type":"address","internalType":"address"}],"stateMutability":"view"},{"type":"function","name":"initEip7702Sender","inputs":[{"name":"sender","type":"address","internalType":"address"},{"name":"initCallData","type":"bytes","internalType":"bytes"}],"outputs":[],"stateMutability":"nonpayable"},{"type":"error","name":"FailedOpWithRevert","inputs":[{"name":"opIndex","type":"uint256","internalType":"uint256"},{"name":"reason","type":"string","internalType":"string"},{"name":"inner","type":"bytes","internalType":"bytes"}]}],"bytecode":{"object":"0x60a08060405234602f573360805261037f9081610034823960805181818160980152818161019001526102140152f35b5f80fdfe60806040526004361015610011575f80fd5b5f3560e01c8063570e1a36146101bf578063b0d691fe1461017b5763c09ad0d91461003a575f80fd5b34610177576040366003190112610177576004356001600160a01b0381168103610177576024356001600160401b0381116101775736602382011215610177575f9161009183923690602481600401359101610294565b906100c6337f00000000000000000000000000000000000000000000000000000000000000006001600160a01b0316146102fe565b82602083519301915af1156100d757005b3d610800811161016e575b60c460405160208382010160405282815260208101925f843e6040519283916365c8fd4d60e01b83525f600484015260606024840152601f60648401527f4141313320454950373730322073656e64657220696e6974206661696c656400608484015260a060448401525180918160a48501528484015e5f828201840152601f01601f19168101030190fd5b506108006100e2565b5f80fd5b34610177575f366003190112610177576040517f00000000000000000000000000000000000000000000000000000000000000006001600160a01b03168152602090f35b34610177576020366003190112610177576004356001600160401b0381116101775736602382011215610177576004810135906001600160401b038211610177573660248383010111610177575f91610242337f00000000000000000000000000000000000000000000000000000000000000006001600160a01b0316146102fe565b80601411610177576020916102615f9236906013190160388401610294565b90826024858451940192013560601c5af161028c575b6040516001600160a01b039091168152602090f35b505f51610277565b9192916001600160401b0382116102ea5760405191601f8101601f19908116603f011683016001600160401b038111848210176102ea57604052829481845281830111610177578281602093845f960137010152565b634e487b7160e01b5f52604160045260245ffd5b1561030557565b606460405162461bcd60e51b815260206004820152602060248201527f414139372073686f756c642063616c6c2066726f6d20456e747279506f696e746044820152fdfea264697066735822122018cb04967e0d61080880f4eb9b7995ae8fb05f0920566cffdc4b75be60d2d1da64736f6c634300081c0033","linkReferences":{}},"methodIdentifiers":{"createSender(bytes)":"570e1a36","entryPoint()":"b0d691fe","initEip7702Sender(address,bytes)":"c09ad0d9"},"id":4}