{"abi":[{"type":"constructor","inputs":[{"name":"entranceFee","type":"uint256","internalType":"uint256"},{"name":"interval","type":"uint256","internalType":"uint256"},{"name":"vrfCoordinator","type":"address","internalType":"address"},{"name":"gasLane","type":"bytes32","internalType":"bytes32"},{"name":"subscriptionId","type":"uint256","internalType":"uint256"},{"name":"callbackGasLimit","type":"uint32","internalType":"uint32"}],"stateMutability":"nonpayable"},{"type":"function","name":"acceptOwnership","inputs":[],"outputs":[],"stateMutability":"nonpayable"},{"type":"function","name":"checkUpkeep","inputs":[{"name":"","type":"bytes","internalType":"bytes"}],"outputs":[{"name":"upkeepNeeded","type":"bool","internalType":"bool"},{"name":"","type":"bytes","internalType":"bytes"}],"stateMutability":"view"},{"type":"function","name":"enterRaffle","inputs":[],"outputs":[],"stateMutability":"payable"},{"type":"function","name":"getCallbackGasLimit","inputs":[],"outputs":[{"name":"","type":"uint32","internalType":"uint32"}],"stateMutability":"view"},{"type":"function","name":"getEntranceFee","inputs":[],"outputs":[{"name":"","type":"uint256","internalType":"uint256"}],"stateMutability":"view"},{"type":"function","name":"getInterval","inputs":[],"outputs":[{"name":"","type":"uint256","internalType":"uint256"}],"stateMutability":"view"},{"type":"function","name":"getKeyHash","inputs":[],"outputs":[{"name":"","type":"bytes32","internalType":"bytes32"}],"stateMutability":"view"},{"type":"function","name":"getLastTimestamp","inputs":[],"outputs":[{"name":"","type":"uint256","internalType":"uint256"}],"stateMutability":"view"},{"type":"function","name":"getPlayers","inputs":[],"outputs":[{"name":"","type":"address[]","internalType":"address payable[]"}],"stateMutability":"view"},{"type":"function","name":"getRaffleState","inputs":[],"outputs":[{"name":"","type":"uint8","internalType":"enum Raffle.RaffleState"}],"stateMutability":"view"},{"type":"function","name":"getRecentWinner","inputs":[],"outputs":[{"name":"","type":"address","internalType":"address"}],"stateMutability":"view"},{"type":"function","name":"getSubscription","inputs":[],"outputs":[{"name":"","type":"uint256","internalType":"uint256"}],"stateMutability":"view"},{"type":"function","name":"getVRFCoordinator","inputs":[],"outputs":[{"name":"","type":"address","internalType":"address"}],"stateMutability":"view"},{"type":"function","name":"owner","inputs":[],"outputs":[{"name":"","type":"address","internalType":"address"}],"stateMutability":"view"},{"type":"function","name":"performUpkeep","inputs":[{"name":"","type":"bytes","internalType":"bytes"}],"outputs":[],"stateMutability":"nonpayable"},{"type":"function","name":"rawFulfillRandomWords","inputs":[{"name":"requestId","type":"uint256","internalType":"uint256"},{"name":"randomWords","type":"uint256[]","internalType":"uint256[]"}],"outputs":[],"stateMutability":"nonpayable"},{"type":"function","name":"s_vrfCoordinator","inputs":[],"outputs":[{"name":"","type":"address","internalType":"contract IVRFCoordinatorV2Plus"}],"stateMutability":"view"},{"type":"function","name":"setCoordinator","inputs":[{"name":"_vrfCoordinator","type":"address","internalType":"address"}],"outputs":[],"stateMutability":"nonpayable"},{"type":"function","name":"transferOwnership","inputs":[{"name":"to","type":"address","internalType":"address"}],"outputs":[],"stateMutability":"nonpayable"},{"type":"event","name":"CoordinatorSet","inputs":[{"name":"vrfCoordinator","type":"address","indexed":false,"internalType":"address"}],"anonymous":false},{"type":"event","name":"OwnershipTransferRequested","inputs":[{"name":"from","type":"address","indexed":true,"internalType":"address"},{"name":"to","type":"address","indexed":true,"internalType":"address"}],"anonymous":false},{"type":"event","name":"OwnershipTransferred","inputs":[{"name":"from","type":"address","indexed":true,"internalType":"address"},{"name":"to","type":"address","indexed":true,"internalType":"address"}],"anonymous":false},{"type":"event","name":"RaffleEntered","inputs":[{"name":"player","type":"address","indexed":true,"internalType":"address"}],"anonymous":false},{"type":"event","name":"RequstedRaffleWinner","inputs":[{"name":"requestId","type":"uint256","indexed":true,"internalType":"uint256"}],"anonymous":false},{"type":"event","name":"WinnerPicked","inputs":[{"name":"winner","type":"address","indexed":true,"internalType":"address"}],"anonymous":false},{"type":"error","name":"OnlyCoordinatorCanFulfill","inputs":[{"name":"have","type":"address","internalType":"address"},{"name":"want","type":"address","internalType":"address"}]},{"type":"error","name":"OnlyOwnerOrCoordinator","inputs":[{"name":"have","type":"address","internalType":"address"},{"name":"owner","type":"address","internalType":"address"},{"name":"coordinator","type":"address","internalType":"address"}]},{"type":"error","name":"Raffle__NotEnoughEth","inputs":[]},{"type":"error","name":"Raffle__NotOpen","inputs":[]},{"type":"error","name":"Raffle__TransferFailed","inputs":[]},{"type":"error","name":"Raffle__UpkeepNotNeeded","inputs":[{"name":"balance","type":"uint256","internalType":"uint256"},{"name":"playersCount","type":"uint256","internalType":"uint256"},{"name":"raffleState","type":"uint256","internalType":"uint256"}]},{"type":"error","name":"ZeroAddress","inputs":[]}],"bytecode":{"object":"0x61014060405234801561001157600080fd5b50604051620013b7380380620013b7833981016040819052610032916101e4565b8333806000816100895760405162461bcd60e51b815260206004820152601860248201527f43616e6e6f7420736574206f776e657220746f207a65726f000000000000000060448201526064015b60405180910390fd5b600080546001600160a01b0319166001600160a01b03848116919091179091558116156100b9576100b98161013b565b5050506001600160a01b0381166100e35760405163d92e233d60e01b815260040160405180910390fd5b600280546001600160a01b0319166001600160a01b0392831617905560809690965260a09490945260c09190915260e05263ffffffff909116610100521661012052426004556005805460ff60a01b1916905561025a565b336001600160a01b038216036101935760405162461bcd60e51b815260206004820152601760248201527f43616e6e6f74207472616e7366657220746f2073656c660000000000000000006044820152606401610080565b600180546001600160a01b0319166001600160a01b0383811691821790925560008054604051929316917fed8889f560326eb138920d842192f0eb3dd22b4f139c87a2c57538e05bae12789190a350565b60008060008060008060c087890312156101fd57600080fd5b86516020880151604089015191975095506001600160a01b038116811461022357600080fd5b80945050606087015192506080870151915060a087015163ffffffff8116811461024c57600080fd5b809150509295509295509295565b60805160a05160c05160e05161010051610120516110ea620002cd600039600061034b01526000818161038601526106270152600081816103df01526105f70152600081816101bb01526105d40152600081816102f8015261072c015260008181610128015261045a01526110ea6000f3fe6080604052600436106101145760003560e01c806379ba5097116100a05780639eccacf6116100645780639eccacf61461031c578063a378f3711461033c578063de8be8e71461036f578063f2fde38b146103b0578063ff0b906c146103d057600080fd5b806379ba5097146102745780638b5b9ccc146102895780638da5cb5b146102ab5780638ea98117146102c957806391ad27b4146102e957600080fd5b8063331bf125116100e7578063331bf125146101ac57806337899770146101df5780634585e33b146101f4578063473f1ddc146102145780636e04ff0d1461024657600080fd5b806309bc33a714610119578063115cbaf51461015b5780631fe543e3146101825780632cfcc539146101a4575b600080fd5b34801561012557600080fd5b507f00000000000000000000000000000000000000000000000000000000000000005b6040519081526020015b60405180910390f35b34801561016757600080fd5b50600554600160a01b900460ff166040516101529190610d19565b34801561018e57600080fd5b506101a261019d366004610d41565b610403565b005b6101a2610458565b3480156101b857600080fd5b507f0000000000000000000000000000000000000000000000000000000000000000610148565b3480156101eb57600080fd5b50600454610148565b34801561020057600080fd5b506101a261020f366004610dc0565b610545565b34801561022057600080fd5b506005546001600160a01b03165b6040516001600160a01b039091168152602001610152565b34801561025257600080fd5b50610266610261366004610e48565b610724565b604051610152929190610f3f565b34801561028057600080fd5b506101a26107c4565b34801561029557600080fd5b5061029e61086e565b6040516101529190610f62565b3480156102b757600080fd5b506000546001600160a01b031661022e565b3480156102d557600080fd5b506101a26102e4366004610faf565b6108d0565b3480156102f557600080fd5b507f0000000000000000000000000000000000000000000000000000000000000000610148565b34801561032857600080fd5b5060025461022e906001600160a01b031681565b34801561034857600080fd5b507f000000000000000000000000000000000000000000000000000000000000000061022e565b34801561037b57600080fd5b5060405163ffffffff7f0000000000000000000000000000000000000000000000000000000000000000168152602001610152565b3480156103bc57600080fd5b506101a26103cb366004610faf565b6109c2565b3480156103dc57600080fd5b507f0000000000000000000000000000000000000000000000000000000000000000610148565b6002546001600160a01b031633146104485760025460405163073e64fd60e21b81523360048201526001600160a01b0390911660248201526044015b60405180910390fd5b6104538383836109d6565b505050565b7f00000000000000000000000000000000000000000000000000000000000000003410156104995760405163a10e43c760e01b815260040160405180910390fd5b6000600554600160a01b900460ff1660018111156104b9576104b9610d03565b146104d75760405163050955c760e21b815260040160405180910390fd5b6003805460018101825560009182527fc2575a0e9e593c00f959f8c92f12db2869c3395a3b0502d05e2516446f71f85b0180546001600160a01b0319163390811790915560405190917f634f3211e3a4e43fee5a21ad9f87ca153b300fc78b1c557a2057dbe9c63bcb4791a2565b600061055f60405180602001604052806000815250610724565b509050806105b557600354600554479190600160a01b900460ff16600181111561058b5761058b610d03565b604051632c2193d560e11b815260048101939093526024830191909152604482015260640161043f565b6005805460ff60a01b1916600160a01b1790556040805160c0810182527f000000000000000000000000000000000000000000000000000000000000000081527f00000000000000000000000000000000000000000000000000000000000000006020808301919091526003828401527f000000000000000000000000000000000000000000000000000000000000000063ffffffff16606083015260016080830152825190810190925260008083529160a082019061067490610b1a565b9052600254604051634d8e1c2f60e11b81529192506000916001600160a01b0390911690639b1c385e906106ac908590600401610fdf565b6020604051808303816000875af11580156106cb573d6000803e3d6000fd5b505050506040513d601f19601f820116820180604052508101906106ef919061103c565b60405190915081907f5787897ac6e37574567ab6b1f13760cf73602b333c66ba9ecf1077d9240a2c0190600090a25050505050565b6000606060007f0000000000000000000000000000000000000000000000000000000000000000600454426107599190611055565b10159050600080600554600160a01b900460ff16600181111561077e5761077e610d03565b600354911491504715159015158380156107955750825b801561079e5750815b80156107a75750805b604080516020810190915260008152909890975095505050505050565b6001546001600160a01b031633146108175760405162461bcd60e51b815260206004820152601660248201527526bab9ba10313290383937b837b9b2b21037bbb732b960511b604482015260640161043f565b60008054336001600160a01b0319808316821784556001805490911690556040516001600160a01b0390921692909183917f8be0079c531659141344cd1fd0a4f28419497f9722a3daafe3b4186f6b6457e091a350565b606060038054806020026020016040519081016040528092919081815260200182805480156108c657602002820191906000526020600020905b81546001600160a01b031681526001909101906020018083116108a8575b5050505050905090565b6000546001600160a01b031633148015906108f657506002546001600160a01b03163314155b15610947573361090e6000546001600160a01b031690565b60025460405163061db9c160e01b81526001600160a01b039384166004820152918316602483015291909116604482015260640161043f565b6001600160a01b03811661096e5760405163d92e233d60e01b815260040160405180910390fd5b600280546001600160a01b0319166001600160a01b0383169081179091556040519081527fd1a6a14209a385a964d036e404cb5cfb71f4000cdb03c9366292430787261be69060200160405180910390a150565b6109ca610b8b565b6109d381610be0565b50565b600354600090838383816109ec576109ec61107c565b905060200201356109fd9190611092565b9050600060038281548110610a1457610a1461107c565b600091825260208083209190910154600580546001600160a81b0319166001600160a01b03909216918217905560408051938452918301918290529151919250610a619160039190610c89565b50426004556005546040516001600160a01b03909116907f5b690ec4a06fe979403046eaeea5b3ce38524683c3001f662c8b5a829632f7df90600090a26000816001600160a01b03164760405160006040518083038185875af1925050503d8060008114610aeb576040519150601f19603f3d011682016040523d82523d6000602084013e610af0565b606091505b5050905080610b125760405163a1d04b3960e01b815260040160405180910390fd5b505050505050565b60607f92fd13387c7fe7befbc38d303d6468778fb9731bc4583f17d92989c6fcfdeaaa82604051602401610b5391511515815260200190565b60408051601f198184030181529190526020810180516001600160e01b03166001600160e01b03199093169290921790915292915050565b6000546001600160a01b03163314610bde5760405162461bcd60e51b815260206004820152601660248201527527b7363c9031b0b63630b1363290313c9037bbb732b960511b604482015260640161043f565b565b336001600160a01b03821603610c385760405162461bcd60e51b815260206004820152601760248201527f43616e6e6f74207472616e7366657220746f2073656c66000000000000000000604482015260640161043f565b600180546001600160a01b0319166001600160a01b0383811691821790925560008054604051929316917fed8889f560326eb138920d842192f0eb3dd22b4f139c87a2c57538e05bae12789190a350565b828054828255906000526020600020908101928215610cde579160200282015b82811115610cde57825182546001600160a01b0319166001600160a01b03909116178255602090920191600190910190610ca9565b50610cea929150610cee565b5090565b5b80821115610cea5760008155600101610cef565b634e487b7160e01b600052602160045260246000fd5b6020810160028310610d3b57634e487b7160e01b600052602160045260246000fd5b91905290565b600080600060408486031215610d5657600080fd5b83359250602084013567ffffffffffffffff80821115610d7557600080fd5b818601915086601f830112610d8957600080fd5b813581811115610d9857600080fd5b8760208260051b8501011115610dad57600080fd5b6020830194508093505050509250925092565b60008060208385031215610dd357600080fd5b823567ffffffffffffffff80821115610deb57600080fd5b818501915085601f830112610dff57600080fd5b813581811115610e0e57600080fd5b866020828501011115610e2057600080fd5b60209290920196919550909350505050565b634e487b7160e01b600052604160045260246000fd5b600060208284031215610e5a57600080fd5b813567ffffffffffffffff80821115610e7257600080fd5b818401915084601f830112610e8657600080fd5b813581811115610e9857610e98610e32565b604051601f8201601f19908116603f01168101908382118183101715610ec057610ec0610e32565b81604052828152876020848701011115610ed957600080fd5b826020860160208301376000928101602001929092525095945050505050565b6000815180845260005b81811015610f1f57602081850181015186830182015201610f03565b506000602082860101526020601f19601f83011685010191505092915050565b8215158152604060208201526000610f5a6040830184610ef9565b949350505050565b6020808252825182820181905260009190848201906040850190845b81811015610fa35783516001600160a01b031683529284019291840191600101610f7e565b50909695505050505050565b600060208284031215610fc157600080fd5b81356001600160a01b0381168114610fd857600080fd5b9392505050565b60208152815160208201526020820151604082015261ffff60408301511660608201526000606083015163ffffffff80821660808501528060808601511660a0850152505060a083015160c080840152610f5a60e0840182610ef9565b60006020828403121561104e57600080fd5b5051919050565b8181038181111561107657634e487b7160e01b600052601160045260246000fd5b92915050565b634e487b7160e01b600052603260045260246000fd5b6000826110af57634e487b7160e01b600052601260045260246000fd5b50069056fea26469706673582212204d4bed13120333aa462087fc92496a63a312fcbe7dbfaa6052a8c667d7e03a3f64736f6c63430008130033","linkReferences":{}},"methodIdentifiers":{"acceptOwnership()":"79ba5097","checkUpkeep(bytes)":"6e04ff0d","enterRaffle()":"2cfcc539","getCallbackGasLimit()":"de8be8e7","getEntranceFee()":"09bc33a7","getInterval()":"91ad27b4","getKeyHash()":"331bf125","getLastTimestamp()":"37899770","getPlayers()":"8b5b9ccc","getRaffleState()":"115cbaf5","getRecentWinner()":"473f1ddc","getSubscription()":"ff0b906c","getVRFCoordinator()":"a378f371","owner()":"8da5cb5b","performUpkeep(bytes)":"4585e33b","rawFulfillRandomWords(uint256,uint256[])":"1fe543e3","s_vrfCoordinator()":"9eccacf6","setCoordinator(address)":"8ea98117","transferOwnership(address)":"f2fde38b"},"id":44}