{"abi":[{"type":"constructor","inputs":[],"stateMutability":"nonpayable"},{"type":"receive","stateMutability":"payable"},{"type":"function","name":"addStake","inputs":[{"name":"unstakeDelaySec","type":"uint32","internalType":"uint32"}],"outputs":[],"stateMutability":"payable"},{"type":"function","name":"balanceOf","inputs":[{"name":"account","type":"address","internalType":"address"}],"outputs":[{"name":"","type":"uint256","internalType":"uint256"}],"stateMutability":"view"},{"type":"function","name":"delegateAndRevert","inputs":[{"name":"target","type":"address","internalType":"address"},{"name":"data","type":"bytes","internalType":"bytes"}],"outputs":[],"stateMutability":"nonpayable"},{"type":"function","name":"depositTo","inputs":[{"name":"account","type":"address","internalType":"address"}],"outputs":[],"stateMutability":"payable"},{"type":"function","name":"eip712Domain","inputs":[],"outputs":[{"name":"fields","type":"bytes1","internalType":"bytes1"},{"name":"name","type":"string","internalType":"string"},{"name":"version","type":"string","internalType":"string"},{"name":"chainId","type":"uint256","internalType":"uint256"},{"name":"verifyingContract","type":"address","internalType":"address"},{"name":"salt","type":"bytes32","internalType":"bytes32"},{"name":"extensions","type":"uint256[]","internalType":"uint256[]"}],"stateMutability":"view"},{"type":"function","name":"getDepositInfo","inputs":[{"name":"account","type":"address","internalType":"address"}],"outputs":[{"name":"info","type":"tuple","internalType":"struct IStakeManager.DepositInfo","components":[{"name":"deposit","type":"uint256","internalType":"uint256"},{"name":"staked","type":"bool","internalType":"bool"},{"name":"stake","type":"uint112","internalType":"uint112"},{"name":"unstakeDelaySec","type":"uint32","internalType":"uint32"},{"name":"withdrawTime","type":"uint48","internalType":"uint48"}]}],"stateMutability":"view"},{"type":"function","name":"getDomainSeparatorV4","inputs":[],"outputs":[{"name":"","type":"bytes32","internalType":"bytes32"}],"stateMutability":"view"},{"type":"function","name":"getNonce","inputs":[{"name":"sender","type":"address","internalType":"address"},{"name":"key","type":"uint192","internalType":"uint192"}],"outputs":[{"name":"nonce","type":"uint256","internalType":"uint256"}],"stateMutability":"view"},{"type":"function","name":"getPackedUserOpTypeHash","inputs":[],"outputs":[{"name":"","type":"bytes32","internalType":"bytes32"}],"stateMutability":"pure"},{"type":"function","name":"getSenderAddress","inputs":[{"name":"initCode","type":"bytes","internalType":"bytes"}],"outputs":[],"stateMutability":"nonpayable"},{"type":"function","name":"getUserOpHash","inputs":[{"name":"userOp","type":"tuple","internalType":"struct PackedUserOperation","components":[{"name":"sender","type":"address","internalType":"address"},{"name":"nonce","type":"uint256","internalType":"uint256"},{"name":"initCode","type":"bytes","internalType":"bytes"},{"name":"callData","type":"bytes","internalType":"bytes"},{"name":"accountGasLimits","type":"bytes32","internalType":"bytes32"},{"name":"preVerificationGas","type":"uint256","internalType":"uint256"},{"name":"gasFees","type":"bytes32","internalType":"bytes32"},{"name":"paymasterAndData","type":"bytes","internalType":"bytes"},{"name":"signature","type":"bytes","internalType":"bytes"}]}],"outputs":[{"name":"","type":"bytes32","internalType":"bytes32"}],"stateMutability":"view"},{"type":"function","name":"handleAggregatedOps","inputs":[{"name":"opsPerAggregator","type":"tuple[]","internalType":"struct IEntryPoint.UserOpsPerAggregator[]","components":[{"name":"userOps","type":"tuple[]","internalType":"struct PackedUserOperation[]","components":[{"name":"sender","type":"address","internalType":"address"},{"name":"nonce","type":"uint256","internalType":"uint256"},{"name":"initCode","type":"bytes","internalType":"bytes"},{"name":"callData","type":"bytes","internalType":"bytes"},{"name":"accountGasLimits","type":"bytes32","internalType":"bytes32"},{"name":"preVerificationGas","type":"uint256","internalType":"uint256"},{"name":"gasFees","type":"bytes32","internalType":"bytes32"},{"name":"paymasterAndData","type":"bytes","internalType":"bytes"},{"name":"signature","type":"bytes","internalType":"bytes"}]},{"name":"aggregator","type":"address","internalType":"contract IAggregator"},{"name":"signature","type":"bytes","internalType":"bytes"}]},{"name":"beneficiary","type":"address","internalType":"address payable"}],"outputs":[],"stateMutability":"nonpayable"},{"type":"function","name":"handleOps","inputs":[{"name":"ops","type":"tuple[]","internalType":"struct PackedUserOperation[]","components":[{"name":"sender","type":"address","internalType":"address"},{"name":"nonce","type":"uint256","internalType":"uint256"},{"name":"initCode","type":"bytes","internalType":"bytes"},{"name":"callData","type":"bytes","internalType":"bytes"},{"name":"accountGasLimits","type":"bytes32","internalType":"bytes32"},{"name":"preVerificationGas","type":"uint256","internalType":"uint256"},{"name":"gasFees","type":"bytes32","internalType":"bytes32"},{"name":"paymasterAndData","type":"bytes","internalType":"bytes"},{"name":"signature","type":"bytes","internalType":"bytes"}]},{"name":"beneficiary","type":"address","internalType":"address payable"}],"outputs":[],"stateMutability":"nonpayable"},{"type":"function","name":"incrementNonce","inputs":[{"name":"key","type":"uint192","internalType":"uint192"}],"outputs":[],"stateMutability":"nonpayable"},{"type":"function","name":"innerHandleOp","inputs":[{"name":"callData","type":"bytes","internalType":"bytes"},{"name":"opInfo","type":"tuple","internalType":"struct EntryPoint.UserOpInfo","components":[{"name":"mUserOp","type":"tuple","internalType":"struct EntryPoint.MemoryUserOp","components":[{"name":"sender","type":"address","internalType":"address"},{"name":"nonce","type":"uint256","internalType":"uint256"},{"name":"verificationGasLimit","type":"uint256","internalType":"uint256"},{"name":"callGasLimit","type":"uint256","internalType":"uint256"},{"name":"paymasterVerificationGasLimit","type":"uint256","internalType":"uint256"},{"name":"paymasterPostOpGasLimit","type":"uint256","internalType":"uint256"},{"name":"preVerificationGas","type":"uint256","internalType":"uint256"},{"name":"paymaster","type":"address","internalType":"address"},{"name":"maxFeePerGas","type":"uint256","internalType":"uint256"},{"name":"maxPriorityFeePerGas","type":"uint256","internalType":"uint256"}]},{"name":"userOpHash","type":"bytes32","internalType":"bytes32"},{"name":"prefund","type":"uint256","internalType":"uint256"},{"name":"contextOffset","type":"uint256","internalType":"uint256"},{"name":"preOpGas","type":"uint256","internalType":"uint256"}]},{"name":"context","type":"bytes","internalType":"bytes"}],"outputs":[{"name":"actualGasCost","type":"uint256","internalType":"uint256"}],"stateMutability":"nonpayable"},{"type":"function","name":"nonceSequenceNumber","inputs":[{"name":"","type":"address","internalType":"address"},{"name":"","type":"uint192","internalType":"uint192"}],"outputs":[{"name":"","type":"uint256","internalType":"uint256"}],"stateMutability":"view"},{"type":"function","name":"senderCreator","inputs":[],"outputs":[{"name":"","type":"address","internalType":"contract ISenderCreator"}],"stateMutability":"view"},{"type":"function","name":"supportsInterface","inputs":[{"name":"interfaceId","type":"bytes4","internalType":"bytes4"}],"outputs":[{"name":"","type":"bool","internalType":"bool"}],"stateMutability":"view"},{"type":"function","name":"unlockStake","inputs":[],"outputs":[],"stateMutability":"nonpayable"},{"type":"function","name":"withdrawStake","inputs":[{"name":"withdrawAddress","type":"address","internalType":"address payable"}],"outputs":[],"stateMutability":"nonpayable"},{"type":"function","name":"withdrawTo","inputs":[{"name":"withdrawAddress","type":"address","internalType":"address payable"},{"name":"withdrawAmount","type":"uint256","internalType":"uint256"}],"outputs":[],"stateMutability":"nonpayable"},{"type":"event","name":"AccountDeployed","inputs":[{"name":"userOpHash","type":"bytes32","indexed":true,"internalType":"bytes32"},{"name":"sender","type":"address","indexed":true,"internalType":"address"},{"name":"factory","type":"address","indexed":false,"internalType":"address"},{"name":"paymaster","type":"address","indexed":false,"internalType":"address"}],"anonymous":false},{"type":"event","name":"BeforeExecution","inputs":[],"anonymous":false},{"type":"event","name":"Deposited","inputs":[{"name":"account","type":"address","indexed":true,"internalType":"address"},{"name":"totalDeposit","type":"uint256","indexed":false,"internalType":"uint256"}],"anonymous":false},{"type":"event","name":"EIP712DomainChanged","inputs":[],"anonymous":false},{"type":"event","name":"PostOpRevertReason","inputs":[{"name":"userOpHash","type":"bytes32","indexed":true,"internalType":"bytes32"},{"name":"sender","type":"address","indexed":true,"internalType":"address"},{"name":"nonce","type":"uint256","indexed":false,"internalType":"uint256"},{"name":"revertReason","type":"bytes","indexed":false,"internalType":"bytes"}],"anonymous":false},{"type":"event","name":"SignatureAggregatorChanged","inputs":[{"name":"aggregator","type":"address","indexed":true,"internalType":"address"}],"anonymous":false},{"type":"event","name":"StakeLocked","inputs":[{"name":"account","type":"address","indexed":true,"internalType":"address"},{"name":"totalStaked","type":"uint256","indexed":false,"internalType":"uint256"},{"name":"unstakeDelaySec","type":"uint256","indexed":false,"internalType":"uint256"}],"anonymous":false},{"type":"event","name":"StakeUnlocked","inputs":[{"name":"account","type":"address","indexed":true,"internalType":"address"},{"name":"withdrawTime","type":"uint256","indexed":false,"internalType":"uint256"}],"anonymous":false},{"type":"event","name":"StakeWithdrawn","inputs":[{"name":"account","type":"address","indexed":true,"internalType":"address"},{"name":"withdrawAddress","type":"address","indexed":false,"internalType":"address"},{"name":"amount","type":"uint256","indexed":false,"internalType":"uint256"}],"anonymous":false},{"type":"event","name":"UserOperationEvent","inputs":[{"name":"userOpHash","type":"bytes32","indexed":true,"internalType":"bytes32"},{"name":"sender","type":"address","indexed":true,"internalType":"address"},{"name":"paymaster","type":"address","indexed":true,"internalType":"address"},{"name":"nonce","type":"uint256","indexed":false,"internalType":"uint256"},{"name":"success","type":"bool","indexed":false,"internalType":"bool"},{"name":"actualGasCost","type":"uint256","indexed":false,"internalType":"uint256"},{"name":"actualGasUsed","type":"uint256","indexed":false,"internalType":"uint256"}],"anonymous":false},{"type":"event","name":"UserOperationPrefundTooLow","inputs":[{"name":"userOpHash","type":"bytes32","indexed":true,"internalType":"bytes32"},{"name":"sender","type":"address","indexed":true,"internalType":"address"},{"name":"nonce","type":"uint256","indexed":false,"internalType":"uint256"}],"anonymous":false},{"type":"event","name":"UserOperationRevertReason","inputs":[{"name":"userOpHash","type":"bytes32","indexed":true,"internalType":"bytes32"},{"name":"sender","type":"address","indexed":true,"internalType":"address"},{"name":"nonce","type":"uint256","indexed":false,"internalType":"uint256"},{"name":"revertReason","type":"bytes","indexed":false,"internalType":"bytes"}],"anonymous":false},{"type":"event","name":"Withdrawn","inputs":[{"name":"account","type":"address","indexed":true,"internalType":"address"},{"name":"withdrawAddress","type":"address","indexed":false,"internalType":"address"},{"name":"amount","type":"uint256","indexed":false,"internalType":"uint256"}],"anonymous":false},{"type":"error","name":"DelegateAndRevert","inputs":[{"name":"success","type":"bool","internalType":"bool"},{"name":"ret","type":"bytes","internalType":"bytes"}]},{"type":"error","name":"FailedOp","inputs":[{"name":"opIndex","type":"uint256","internalType":"uint256"},{"name":"reason","type":"string","internalType":"string"}]},{"type":"error","name":"FailedOpWithRevert","inputs":[{"name":"opIndex","type":"uint256","internalType":"uint256"},{"name":"reason","type":"string","internalType":"string"},{"name":"inner","type":"bytes","internalType":"bytes"}]},{"type":"error","name":"InvalidShortString","inputs":[]},{"type":"error","name":"PostOpReverted","inputs":[{"name":"returnData","type":"bytes","internalType":"bytes"}]},{"type":"error","name":"ReentrancyGuardReentrantCall","inputs":[]},{"type":"error","name":"SenderAddressResult","inputs":[{"name":"sender","type":"address","internalType":"address"}]},{"type":"error","name":"SignatureValidationFailed","inputs":[{"name":"aggregator","type":"address","internalType":"address"}]},{"type":"error","name":"StringTooLong","inputs":[{"name":"str","type":"string","internalType":"string"}]}],"bytecode":{"object":"0x6101806040523461019557604051610018604082610199565b600781526020810190664552433433333760c81b82526040519161003d604084610199565b600183526020830191603160f81b8352610056816101bc565b6101205261006384610357565b61014052519020918260e05251902080610100524660a0526040519060208201927f8b73c3c69bb8fe3d512ecc4cf759cc79239f7b179b0ffacaa9a75d522b39400f8452604083015260608201524660808201523060a082015260a081526100cc60c082610199565b5190206080523060c0526040516103b38082016001600160401b03811183821017610181578291614263833903905ff080156101765761016052604051613dd3908161049082396080518161262a015260a051816126e7015260c051816125f4015260e051816126790152610100518161269f0152610120518161121c015261014051816112450152610160518181816110e0015281816117ab0152818161399d0152613bc10152f35b6040513d5f823e3d90fd5b634e487b7160e01b5f52604160045260245ffd5b5f80fd5b601f909101601f19168101906001600160401b0382119082101761018157604052565b908151602081105f14610236575090601f8151116101f65760208151910151602082106101e7571790565b5f198260200360031b1b161790565b604460209160405192839163305a27a960e01b83528160048401528051918291826024860152018484015e5f828201840152601f01601f19168101030190fd5b6001600160401b03811161018157600254600181811c9116801561034d575b602082101461033957601f8111610306575b50602092601f82116001146102a557928192935f9261029a575b50508160011b915f199060031b1c19161760025560ff90565b015190505f80610281565b601f1982169360025f52805f20915f5b8681106102ee57508360019596106102d6575b505050811b0160025560ff90565b01515f1960f88460031b161c191690555f80806102c8565b919260206001819286850151815501940192016102b5565b60025f52601f60205f20910160051c810190601f830160051c015b81811061032e5750610267565b5f8155600101610321565b634e487b7160e01b5f52602260045260245ffd5b90607f1690610255565b908151602081105f14610382575090601f8151116101f65760208151910151602082106101e7571790565b6001600160401b03811161018157600354600181811c91168015610485575b602082101461033957601f8111610452575b50602092601f82116001146103f157928192935f926103e6575b50508160011b915f199060031b1c19161760035560ff90565b015190505f806103cd565b601f1982169360035f52805f20915f5b86811061043a5750836001959610610422575b505050811b0160035560ff90565b01515f1960f88460031b161c191690555f8080610414565b91926020600181928685015181550194019201610401565b60035f52601f60205f20910160051c810190601f830160051c015b81811061047a57506103b3565b5f815560010161046d565b90607f16906103a156fe6101806040526004361015610024575b3615610019575f80fd5b610022336123ea565b005b5f610160525f3560e01c806242dc5314611acf57806301ffc9a714611a315780630396cb60146117da57806309ccb880146117935780630bd28e3b1461173857806313c65a6e1461171b578063154e58dc146116f15780631b2e01b814611699578063205c28781461157857806322cdde4c1461153157806335567e1a146114c55780635287ce12146113d257806370a0823114611392578063765e827f1461130757806384b0196e14611201578063850aaf62146111755780639b249f6914611079578063b760faf914611056578063bb9fe6bf14610f27578063c23a5cea14610d555763dbed18e00361000f573461089a5761012136612050565b610120526101005261013161285d565b6101605190815b610100518110610bd5575061014c826122ae565b610140526101605160a0526101605160e0525b6101005160e05110610283575f516020613cfe5f395f51905f526101605161016051a16101605160a081905290815b6101005181106101da576101c083610160515f516020613cbe5f395f51905f526101605161016051a261012051613471565b610160515f516020613d5e5f395f51905f525d6101605180f35b61021d6101eb82610100518561242c565b6001600160a01b036101ff60208301612483565b165f516020613cbe5f395f51905f526101605161016051a28061244e565b9061016051915b8083106102365750505060010161018e565b90919461026c60019161026661024d898688612360565b61025c60a05161014051612397565b519060a051613104565b906120f4565b9561027860a05161213c565b60a052019190610224565b61029360e051610100518361242c565b9061029e828061244e565b60c052916001600160a01b03906102b790602001612483565b61016051608052165b60c051608051106102ed575090506102dc60c05160a0516120f4565b60a052600160e0510160e05261015f565b61030060805160a0510161014051612397565b519261031160805160c05183612360565b61016051905a8651969082356001600160a01b0381169081900361089a578852602083810135908901526001600160801b0360808085013582811660608c0152811c60408b015260a085013560c0808c01919091528501359182166101008b01521c61012089015261038660e0840184612497565b9081610afc575b5050610398836121a1565b60208301526040880151928360c08a01511760608a01511760808a01511760a08a0151176101008a01511760018060781b03906101208b01511711610ab05760209360408a015160608b01510160808b01510160a08b01510160c08b0151016101008b01510290845160018060a01b038151169061042a61041c6040870187612497565b908960805160a05101613937565b60e00151610160516001600160a01b03909116908115610a84575b8751604080820151915190518b8b01516306608bdf60e21b8d8301908152919c6001600160a01b039093169492939192610498918e91610489918d60248501613880565b038d601f19820190528d611f83565b61016051918c5191856101605191f161016051519960203d03610a79575b604052156109cb575083901561096b575b505060018060a01b038b511660208c015190610160515260016020526040610160512060018060c01b038260401c165f5260205260405f209081549161050c8361213c565b90556001600160401b03160361091d575a8403116108df5760e090990151606099906001600160a01b03166106c6575b60809291610564969798999a60a092604087015260608601520135905a9003019101526138a2565b906001600160a01b0316840361067e5761063357610581906138a2565b906001600160a01b03166105eb576105a35760016080510160805291906102c0565b60a4604051631101335b60e11b815260805160a05101600482015260406024820152602160448201525f516020613d1e5f395f51905f526064820152606560f81b6084820152fd5b6084604051631101335b60e11b815260805160a05101600482015260406024820152601460448201527320a0999a1039b4b3b730ba3ab9329032b93937b960611b6064820152fd5b6084604051631101335b60e11b815260805160a051016004820152604060248201526017604482015276414132322065787069726564206f72206e6f742064756560481b6064820152fd5b6084604051631101335b60e11b815260805160a05101600482015260406024820152601460448201527320a0991a1039b4b3b730ba3ab9329032b93937b960611b6064820152fd5b9194509291905a825160e0810151909691906001600160a01b03166106eb8482613c59565b156108a157868460806107219a0151926020880151604051809c819482936314add44b60e21b8452610160519760048501613880565b0391610160519086f161016051988991908161080f575b5061079d578c6107466125c4565b906107996040519283926365c8fd4d60e01b845260805160a0510160048501526024840152600d60648401526c10504cccc81c995d995c9d1959609a1b608484015260a0604484015260a48301906120b6565b0390fd5b909192939495969798999a9b5097915a9003116107c157959897969594909161053c565b60a4604051631101335b60e11b815260805160a05101600482015260406024820152602760448201525f516020613cde5f395f51905f52606482015266185cd31a5b5a5d60ca1b6084820152fd5b915098503d8061016051833e6108258183611f83565b81019060408183031261089a578051906001600160401b03821161089a5782601f83830101121561089a578181015161085d81611fa6565b9361086b6040519586611f83565b81855260208285850101011161089a5780602080948401018486015e826101605191850101520151988e610738565b6101605180fd5b6084604051631101335b60e11b815260805160a05101600482015260406024820152601e60448201525f516020613c9e5f395f51905f526064820152fd5b6084604051631101335b60e11b815260805160a05101600482015260406024820152601e60448201525f516020613c7e5f395f51905f526064820152fd5b6084604051631101335b60e11b815260805160a05101600482015260406024820152601a6044820152794141323520696e76616c6964206163636f756e74206e6f6e636560301b6064820152fd5b61097491613c59565b15610980578b826104c7565b6084604051631101335b60e11b815260805160a05101600482015260406024820152601760448201527610504c8c48191a591b89dd081c185e481c1c99599d5b99604a1b6064820152fd5b3b610a1d576084604051631101335b60e11b815260805160a05101600482015260406024820152601960448201527810504c8c081858d8dbdd5b9d081b9bdd0819195c1b1bde5959603a1b6064820152fd5b610799610a286125c4565b6040519182916365c8fd4d60e01b835260805160a05101600484015260606024840152600d60648401526c10504c8cc81c995d995c9d1959609a1b608484015260a0604484015260a48301906120b6565b6101605191506104b6565b5061016080518390528051895251604090205484811115610aa9575061016051610445565b8403610445565b6084604051631101335b60e11b815260805160a05101600482015260406024820152601860448201527741413934206761732076616c756573206f766572666c6f7760401b6064820152fd5b60348210610b90578160141161089a578035916024811061089a5760341161089a576024810135608090811c60a08c0152601490910135811c908a0152606081901c15610b525760601c60e0890152888061038d565b60405162461bcd60e51b815260206004820152601660248201527520a09c9c1034b73b30b634b2103830bcb6b0b9ba32b960511b6044820152606490fd5b60405162461bcd60e51b815260206004820152601d60248201527f4141393320696e76616c6964207061796d6173746572416e64446174610000006044820152606490fd5b610be381610100518461242c565b92610bee848061244e565b91906001600160a01b03610c0460208801612483565b169560018714610d3c5786610c2e575b505060019293945090610c26916120f4565b929101610138565b806040610c3c920190612497565b91873b1561089a5791604051928391632dd8113360e01b835286604484016040600486015252606483019160648860051b85010192816101605161011e1982360301915b8b8210610d005750505050508291610ca89160031984830301602485015261016051956123ca565b0381610160518a5af19081610ce5575b50610cd6578463086a9f7560e41b6101605152600452602461016051fd5b9293508392610c266001610c14565b61016051610cf291611f83565b6101605161089a575f610cb8565b9193965091939460631989820301855286358481121561089a576020610d2b600193858394016124fb565b980195019201889695949391610c80565b8663086a9f7560e41b6101605152600452602461016051fd5b3461089a57602036600319011261089a57610d6e611ff7565b6101608051339052516020819052604090206001018054600881901c6001600160701b03169291908315610eeb5760981c65ffffffffffff168015610ea6574210610e63578054610100600160c81b031916905560405133907fb7c918e0e249f999e965cafeb6c664271b3f4317d296461500e71da39f0cbda39080610df5868683612157565b0390a261016051918291829182916001600160a01b03165af1610e16612172565b5015610e23576101605180f35b60405162461bcd60e51b81526020600482015260186024820152776661696c656420746f207769746864726177207374616b6560401b6044820152606490fd5b60405162461bcd60e51b815260206004820152601b60248201527a5374616b65207769746864726177616c206973206e6f742064756560281b6044820152606490fd5b60405162461bcd60e51b815260206004820152601d60248201527f6d7573742063616c6c20756e6c6f636b5374616b6528292066697273740000006044820152606490fd5b60405162461bcd60e51b81526020600482015260146024820152734e6f207374616b6520746f20776974686472617760601b6044820152606490fd5b3461089a576101605136600319011261089a573361016051526101605160205260016040610160512001805463ffffffff8160781c169081156110245760ff1615610feb5765ffffffffffff4216019065ffffffffffff8211610fd157610f8e8282612115565b60ff19815416905565ffffffffffff604051911681527ffa9b3c14cc825c412c9ed81b3ba365a5b459439403f18829e572ed53a4180f0a60203392a26101605180f35b634e487b7160e01b61016051526011600452602461016051fd5b60405162461bcd60e51b8152602060048201526011602482015270616c726561647920756e7374616b696e6760781b6044820152606490fd5b60405162461bcd60e51b815260206004820152600a6024820152691b9bdd081cdd185ad95960b21b6044820152606490fd5b602036600319011261089a5761107261106d611ff7565b6123ea565b6101605180f35b3461089a57602036600319011261089a576004356001600160401b03811161089a5760206110ae6110d192369060040161200d565b604051632b870d1b60e11b815260048101849052938492839260248401916123ca565b03816101605160018060a01b037f0000000000000000000000000000000000000000000000000000000000000000165af1908115611167576101605191611138575b506101608051633653dc0360e11b90526001600160a01b039190911660045251602490fd5b61115a915060203d602011611160575b6111528183611f83565b8101906123ab565b81611113565b503d611148565b6040513d61016051823e3d90fd5b3461089a57604036600319011261089a5761118e611ff7565b6024356001600160401b03811161089a576111ad90369060040161200d565b604051929181908437820190610160518252610160519280610160519303915af46111d6612172565b60408051632650415560e21b81529215156004840152602483015281906107999060448301906120b6565b3461089a576101605136600319011261089a576112a56112407f000000000000000000000000000000000000000000000000000000000000000061368a565b6112697f00000000000000000000000000000000000000000000000000000000000000006137b0565b604051906020906112b39061127e8385611f83565b6101605184525f368137604051958695600f60f81b875260e08588015260e08701906120b6565b9085820360408701526120b6565b4660608501523060808501526101605160a085015283810360c0850152818084519283815201930191610160515b8281106112f057505050500390f35b8351855286955093810193928101926001016112e1565b3461089a5761131536612050565b61132092919261285d565b611329836122ae565b611334818585612892565b5061016051925f516020613cfe5f395f51905f528480a161016051915b858310611362576101c08585613471565b909193600190611388611376878987612360565b6113808886612397565b519088613104565b0194019190611351565b3461089a57602036600319011261089a576001600160a01b036113b3611ff7565b1661016051526101605160205260206040610160512054604051908152f35b3461089a57602036600319011261089a576113eb611ff7565b6040516113f781611f1d565b61016051815261016051602082015261016051604082015261016051606082015260806101605191015260018060a01b031661016051526101605160205260a06040610160512065ffffffffffff60405161145181611f1d565b63ffffffff60018454948584520154916020810160ff841615158152604082019060018060701b038560081c1682528560806060850194868860781c168652019560981c168552604051968752511515602087015260018060701b0390511660408601525116606084015251166080820152f35b3461089a57604036600319011261089a5760206114e0611ff7565b6114e861203a565b61016080516001600160a01b039093169092526001835290516040908190206001600160c01b0383165f9081529084528190205481519290911b6001600160401b031916178152f35b3461089a57602036600319011261089a576004356001600160401b03811161089a57610120600319823603011261089a576115706020916004016121a1565b604051908152f35b3461089a57604036600319011261089a57611591611ff7565b602435903361016051526101605160205260406101605120805480841161165857836115bc9161214a565b90556040517fd1c19fbcd4551a5edfb66d43d2e337c04837afda3482b42bdf569a8fccdae5fb3391806115f0868683612157565b0390a261016051918291829182916001600160a01b03165af1611611612172565b501561161e576101605180f35b60405162461bcd60e51b81526020600482015260126024820152716661696c656420746f20776974686472617760701b6044820152606490fd5b60405162461bcd60e51b8152602060048201526019602482015278576974686472617720616d6f756e7420746f6f206c6172676560381b6044820152606490fd5b3461089a57604036600319011261089a576116b2611ff7565b6116ba61203a565b9060018060a01b031661016051526001602052604061016051209060018060c01b03165f52602052602060405f2054604051908152f35b3461089a576101605136600319011261089a5760206040515f516020613d3e5f395f51905f528152f35b3461089a576101605136600319011261089a5760206115706125f1565b3461089a57602036600319011261089a576004356001600160c01b038116810361089a573361016051526001602052604061016051209060018060c01b03165f5260205260405f2061178a815461213c565b90556101605180f35b3461089a576101605136600319011261089a576040517f00000000000000000000000000000000000000000000000000000000000000006001600160a01b03168152602090f35b602036600319011261089a5760043563ffffffff811680910361089a5733610160515261016051602052604061016051209080156119ef57600182015463ffffffff8160781c1682106119ab5761183e90349060081c6001600160701b03166120f4565b918215611971576001600160701b03831161193b57546040516119039161186482611f1d565b8152600160208083018281526001600160701b0387166040808601918252606086018881526101608051608089019081528151339052905195869052919094209551865591519490930180549351925163ffffffff60781b60789190911b16610100600160781b0360089490941b9390931694151560ff166001600160981b03199094169390931793909317178155905165ffffffffffff1690612115565b60405191825260208201527fa5ae833d0bb1dcd632d98a8b70973e8516812898e19bf27b70071ebc8dc52c0160403392a26101605180f35b60405162461bcd60e51b815260206004820152600e60248201526d7374616b65206f766572666c6f7760901b6044820152606490fd5b60405162461bcd60e51b81526020600482015260126024820152711b9bc81cdd185ad9481cdc1958da599a595960721b6044820152606490fd5b60405162461bcd60e51b815260206004820152601c60248201527b63616e6e6f7420646563726561736520756e7374616b652074696d6560201b6044820152606490fd5b60405162461bcd60e51b815260206004820152601a6024820152796d757374207370656369667920756e7374616b652064656c617960301b6044820152606490fd5b3461089a57602036600319011261089a5760043563ffffffff60e01b811680910361089a5760209063349869f760e11b8114908115611abe575b8115611aad575b8115611a9c575b8115611a8b575b506040519015158152f35b6301ffc9a760e01b14905082611a80565b633e84f02160e01b81149150611a79565b63cf28ef9760e01b81149150611a72565b631313998b60e31b81149150611a6b565b34611e2057610200366003190112611e20576004356001600160401b038111611e205736602382011215611e2057611b11903690602481600401359101611fc1565b36602319016101c08112611e205761014060405191611b2f83611f1d565b12611e2057604051611b4081611f4c565b6024356001600160a01b0381168103611e2057815260443560208201526064356040820152608435606082015260a435608082015260c43560a082015260e43560c0820152610104356001600160a01b0381168103611e205760e082015261012435610100820152610144356101208201528152610164356020820190815261018435604083019081526101a43560608401526101c435608084019081529193906101e4356001600160401b038111611e2057611c0190369060040161200d565b955a90303303611ede57865190606082015195603f5a0260061c61271060a085015189010111611ecf575f9681519182611e38575b505050505090611c4e915a9003855101963691611fc1565b925a938551611c5c81613539565b97611c7c60018060a01b0360e08401511694518203606084015190613563565b01925f9281611d2e575050516001600160a01b0316945b5a900301019485029051928184105f14611cff5750506003811015611ce557600203611cd057602092816115709293611ccb81613626565b613582565b63deadaa5160e01b6101605152602061016051fd5b634e487b7160e01b61016051526021600452602461016051fd5b81611d10929594969396039061351d565b506003841015611ce55782611d299260209515906135d4565b611570565b909691878251611d41575b505050611c93565b90919293505a926003881015611e245760028803611d77575b505060a0611d6e925a900391015190613563565b90888080611d39565b60a083015191803b15611e20578b925f9283611dba938c8b88604051998a9889978895637c627b2160e01b875260048701526080602487015260848601906120b6565b9202604484015260648301520393f19081611e0b575b50611e0157610799611de06125c4565b604051632b5e552f60e21b81526020600482015291829160248301906120b6565b60a0611d6e611d5a565b5f611e1591611f83565b5f610160528a611dd0565b5f80fd5b634e487b7160e01b5f52602160045260245ffd5b915f9291838093602060018060a01b03895116910192f115611e5d575b808080611c36565b611c4e93929550611e6c6125c4565b908151611e82575b505050600193909188611e55565b7f1c4fada7374c0a9ee8841fc38afe82932dc0f8e69012e927f061a8bae611a201905191602060018060a01b03855116940151611ec4604051928392836120da565b0390a3878080611e74565b63deaddead60e01b5f5260205ffd5b60405162461bcd60e51b81526020600482015260176024820152764141393220696e7465726e616c2063616c6c206f6e6c7960481b6044820152606490fd5b60a081019081106001600160401b03821117611f3857604052565b634e487b7160e01b5f52604160045260245ffd5b61014081019081106001600160401b03821117611f3857604052565b606081019081106001600160401b03821117611f3857604052565b601f909101601f19168101906001600160401b03821190821017611f3857604052565b6001600160401b038111611f3857601f01601f191660200190565b929192611fcd82611fa6565b91611fdb6040519384611f83565b829481845281830111611e20578281602093845f960137010152565b600435906001600160a01b0382168203611e2057565b9181601f84011215611e20578235916001600160401b038311611e205760208381860195010111611e2057565b602435906001600160c01b0382168203611e2057565b906040600319830112611e20576004356001600160401b038111611e205760040182601f82011215611e20578035926001600160401b038411611e20576020808301928560051b010111611e205791906024356001600160a01b0381168103611e205790565b805180835260209291819084018484015e5f828201840152601f01601f1916010190565b6040906120f19392815281602082015201906120b6565b90565b9190820180921161210157565b634e487b7160e01b5f52601160045260245ffd5b805465ffffffffffff60981b191660989290921b65ffffffffffff60981b16919091179055565b5f1981146121015760010190565b9190820391821161210157565b6001600160a01b039091168152602081019190915260400190565b3d1561219c573d9061218382611fa6565b916121916040519384611f83565b82523d5f602084013e565b606090565b6042906121ad8161270d565b906121b66125f1565b91801561227a57905b6121cc6060820182612497565b9081604051918237209060c06121e560e0830183612497565b908160405191823720916040519360208501955f516020613d3e5f395f51905f52875260018060a01b03833516604087015260208301356060870152608086015260a085015260808101358285015260a081013560e08501520135610100830152610120820152610120815261225d61014082611f83565b5190206040519161190160f01b8352600283015260228201522090565b506122886040820182612497565b908160405191823720906121bf565b6001600160401b038111611f385760051b60200190565b906122b882612297565b6122c56040519182611f83565b82815280926122d6601f1991612297565b01905f5b8281106122e657505050565b6020906040516122f581611f1d565b60405161230181611f4c565b5f81525f848201525f60408201525f60608201525f60808201525f60a08201525f60c08201525f60e08201525f6101008201525f61012082015281525f838201525f60408201525f60608201525f6080820152828285010152016122da565b91908110156123835760051b8101359061011e1981360301821215611e20570190565b634e487b7160e01b5f52603260045260245ffd5b80518210156123835760209160051b010190565b90816020910312611e2057516001600160a01b0381168103611e205790565b908060209392818452848401375f828201840152601f01601f1916010190565b7f2da466a7b24304f47e87fa2e1e5a81b9831ce54fec19055ce277ca2f39ba42c46020612417348461351d565b6040519081526001600160a01b0390931692a2565b91908110156123835760051b81013590605e1981360301821215611e20570190565b903590601e1981360301821215611e2057018035906001600160401b038211611e2057602001918160051b36038313611e2057565b356001600160a01b0381168103611e205790565b903590601e1981360301821215611e2057018035906001600160401b038211611e2057602001918136038313611e2057565b9035601e1982360301811215611e20570160208101919035906001600160401b038211611e20578136038313611e2057565b8035916001600160a01b0383168303611e20576001600160a01b039092168252602081810135908301526120f1916125b56125a961257061255561254260408701876124c9565b61012060408801526101208701916123ca565b61256260608701876124c9565b9086830360608801526123ca565b6080850135608085015260a085013560a085015260c085013560c085015261259b60e08601866124c9565b9085830360e08701526123ca565b926101008101906124c9565b916101008185039101526123ca565b3d61080081116125e8575b604051906020818301016040528082525f602083013e90565b506108006125cf565b307f00000000000000000000000000000000000000000000000000000000000000006001600160a01b031614806126e4575b1561264c577f000000000000000000000000000000000000000000000000000000000000000090565b60405160208101907f8b73c3c69bb8fe3d512ecc4cf759cc79239f7b179b0ffacaa9a75d522b39400f82527f000000000000000000000000000000000000000000000000000000000000000060408201527f000000000000000000000000000000000000000000000000000000000000000060608201524660808201523060a082015260a081526126de60c082611f83565b51902090565b507f00000000000000000000000000000000000000000000000000000000000000004614612623565b61271a6040820182612497565b90916127268284613668565b1561285657356001600160a01b031660175f80833c5f51906110ff60f01b6001600160e81b03198316016127d6575060181b91601482116127895750506040516001600160601b03199091166020820190815260148252906126de603482611f83565b81601411611e20576040516001600160601b031990931660208481019182529093926126de92849190601319820190601401603484013781015f838201520301601f198101835282611f83565b3b1561281c5760405162461bcd60e51b81526020600482015260186024820152776e6f7420616e204549502d373730322064656c656761746560401b6044820152606490fd5b60405162461bcd60e51b815260206004820152601260248201527173656e64657220686173206e6f20636f646560701b6044820152606490fd5b5050505f90565b5f516020613d5e5f395f51905f525c6128835760015f516020613d5e5f395f51905f525d565b633ee5aeb560e01b5f5260045ffd5b909291835f5b8181106128a55750505050565b6128af8184612397565b516128bb828487612360565b905f915a825182356001600160a01b03811690819003611e205781526020838101359082019081526001600160801b036080808601358281166060860190815290821c6040860190815260a088013560c0808801828152908a013595861661010089019081529590941c610120880190815290989491939061294060e0870187612497565b80613013575b5050612951866121a1565b9460208c01958652805194858451178151179160808b01928351179360a08c019485511787511760018060781b0391511711612fcb57908f9d9c9b9a999897969594939291519051019051019051019051019051029388516129cd8a60018060a01b038351169c6129c56040890189612497565b929091613937565b60e001515f9a906001600160a01b03161580612fa4575b8a51604081015190600160a01b6001900390511680916040519e8f808b8b519360208301946306608bdf60e21b86526024840192612a2193613880565b03601f1981018252612a339082611f83565b51905f6020948194f15f519d3d602003612f9c575b60405215612ef757508690612e9c575b5050855190516001600160a01b039091165f90815260016020908152604080832084821c8452909152902080549190612a908361213c565b90556001600160401b031603612e53575a860311612e1a5760e090930151606093906001600160a01b0316612c25575b505060408501526060840152612ae19392916080915a9003019101526138a2565b906001600160a01b0316612be257612b9c57612afc906138a2565b906001600160a01b0316612b5957612b1657600101612898565b60a49060405190631101335b60e11b8252600482015260406024820152602160448201525f516020613d1e5f395f51905f526064820152606560f81b6084820152fd5b60848260405190631101335b60e11b8252600482015260406024820152601460448201527320a0999a1039b4b3b730ba3ab9329032b93937b960611b6064820152fd5b60848260405190631101335b60e11b82526004820152604060248201526017604482015276414132322065787069726564206f72206e6f742064756560481b6064820152fd5b60848360405190631101335b60e11b8252600482015260406024820152601460448201527320a0991a1039b4b3b730ba3ab9329032b93937b960611b6064820152fd5b9091929d9b9997505f9c9a989c505a9186519060018060a01b0360e08301511691612c508684613c59565b15612de0576080015192516040516314add44b60e21b815299989796959493925f928b92839185918391612c89918b9160048501613880565b039286f197885f915f9a612d61575b50612cf2578f8f610799612caa6125c4565b6040519384936365c8fd4d60e01b855260048501526024840152600d60648401526c10504cccc81c995d995c9d1959609a1b608484015260a0604484015260a48301906120b6565b9091929394959697989a9c9e509c989a9c97915a900311612d1857959080612ae1612ac0565b60a48860405190631101335b60e11b8252600482015260406024820152602760448201525f516020613cde5f395f51905f52606482015266185cd31a5b5a5d60ca1b6084820152fd5b915098503d805f833e612d748183611f83565b810190604081830312611e205780516001600160401b038111611e205781019082601f83011215611e20578151612daa81611fa6565b93612db86040519586611f83565b81855260208285010111611e20576020815f92828096018388015e850101520151985f612c98565b5060848f60405190631101335b60e11b8252600482015260406024820152601e60448201525f516020613c9e5f395f51905f526064820152fd5b60848a60405190631101335b60e11b8252600482015260406024820152601e60448201525f516020613c7e5f395f51905f526064820152fd5b60848b60405190631101335b60e11b8252600482015260406024820152601a6044820152794141323520696e76616c6964206163636f756e74206e6f6e636560301b6064820152fd5b612ea591613c59565b15612eb1575f85612a58565b60848c60405190631101335b60e11b8252600482015260406024820152601760448201527610504c8c48191a591b89dd081c185e481c1c99599d5b99604a1b6064820152fd5b8e903b612f465760849060405190631101335b60e11b8252600482015260406024820152601960448201527810504c8c081858d8dbdd5b9d081b9bdd0819195c1b1bde5959603a1b6064820152fd5b612f4e6125c4565b906107996040519283926365c8fd4d60e01b8452600484015260606024840152600d60648401526c10504c8cc81c995d995c9d1959609a1b608484015260a0604484015260a48301906120b6565b5f9150612a48565b9a50805f525f60205260405f20548681115f14612fc457505f5b9a6129e4565b8603612fbe565b5060848f60405190631101335b60e11b8252600482015260406024820152601860448201527741413934206761732076616c756573206f766572666c6f7760401b6064820152fd5b60348110610b905780601411611e2057813560601c9160248210611e2057601481013591603411611e205760240135608090811c60a08c015290811c908a01528015610b525760e08901525f80612946565b60806101a091610120815160018060a01b038151168652602081015160208701526040810151604087015260608101516060870152838101518487015260a081015160a087015260c081015160c087015260018060a01b0360e08201511660e087015261010081015161010087015201516101208501526020810151610140850152604081015161016085015260608101516101808501520151910152565b9092915a6060820151604051958661311f6060830183612497565b5f60038211613469575b6001600160e01b031916638dd7712f60e01b03613406575050505f6131b56131e361317a61318e602095868a0151604051938492638dd7712f60e01b8a8501526040602485015260648401906124fb565b90604483015203601f198101835282611f83565b6131d56040519384926242dc5360e01b8885015261020060248501526102248401906120b6565b6131c2604484018b613065565b82810360231901610204840152876120b6565b03601f198101835282611f83565b828151910182305af15f5196604052156131fe575b50505050565b9091929394505f3d6020146133f9575b63deaddead60e01b810361325a5760848560405190631101335b60e11b8252600482015260406024820152600f60448201526e41413935206f7574206f662067617360881b6064820152fd5b929350909163deadaa5160e01b036132a4575061328961327e613299925a9061214a565b6080840151906120f4565b604083015183611ccb8295613626565b905b5f8080806131f8565b906133039060208401518451907ff62676f440ff169a3a9afdbf812e89e7f95975ee8e5c31214ffdef631c5f4792602060018060a01b038451169301516132e96125c4565b906132f9604051928392836120da565b0390a35a9061214a565b61331360808401918251906120f4565b915f905a92855161332381613539565b9561334360018060a01b0360e08401511693518203606084015190613563565b01925f92806133ca575050516001600160a01b0316935b5a900301019283026040850151928184105f146133a35750508061338f575090816133899293611ccb81613626565b9061329b565b634e487b7160e01b81526021600452602490fd5b6133b3908284939795039061351d565b5061338f575090825f6133c5936135d4565b613389565b959190516133d9575b5061335a565b935090506133f25a9360a05f955a900391015190613563565b905f6133d3565b5060205f803e5f5161320e565b6242dc5360e01b60208401526102006024840152613460935061345291613432916102248501916123ca565b61343f6044840188613065565b82810360231901610204840152846120b6565b03601f198101885287611f83565b60205f876131e3565b508135613129565b6001600160a01b031680156134dd575f80809381935af1613490612172565b501561349857565b60405162461bcd60e51b815260206004820152601f60248201527f41413931206661696c65642073656e6420746f2062656e6566696369617279006044820152606490fd5b60405162461bcd60e51b81526020600482015260186024820152774141393020696e76616c69642062656e656669636961727960401b6044820152606490fd5b60018060a01b03165f525f60205260405f209081540180915590565b61012061010082015191015180821461355f5748018082101561355a575090565b905090565b5090565b90619c40820181111561357c57606491600a9103020490565b50505f90565b9190915f516020613d7e5f395f51905f526080602083015192519460018060a01b0386511694602060018060a01b0360e089015116970151916040519283525f602084015260408301526060820152a4565b9060805f516020613d7e5f395f51905f5291602084015193519560018060a01b0387511695602060018060a01b0360e08a015116980151926040519384521515602084015260408301526060820152a4565b60208101519051907f67b4fa9642f42120bf031f3051d1824b0fe25627945b27b8a6a65d5761d5482e60208060018060a01b03855116940151604051908152a3565b9060021161368557356001600160601b031916613b8160f11b1490565b505f90565b60ff81146136d05760ff811690601f82116136c157604051916136ae604084611f83565b6020808452838101919036833783525290565b632cd44ac360e21b5f5260045ffd5b506040515f6002548060011c91600182169182156137a6575b6020841083146137925783855284929081156137735750600114613714575b6120f192500382611f83565b5060025f90815290917f405787fa12a823e0f2b7631cc41b3ba8828b3321ca811111fa75cd3aa3bb5ace5b8183106137575750509060206120f192820101613708565b602091935080600191548385880101520191019091839261373f565b602092506120f194915060ff191682840152151560051b820101613708565b634e487b7160e01b5f52602260045260245ffd5b92607f16926136e9565b60ff81146137d45760ff811690601f82116136c157604051916136ae604084611f83565b506040515f6003548060011c9160018216918215613876575b6020841083146137925783855284929081156137735750600114613817576120f192500382611f83565b5060035f90815290917fc2575a0e9e593c00f959f8c92f12db2869c3395a3b0502d05e2516446f71f85b5b81831061385a5750509060206120f192820101613708565b6020919350806001915483858801015201910190918392613842565b92607f16926137ed565b613898604092959493956060835260608301906124fb565b9460208201520152565b8015613930575f604080516138b681611f68565b8281526020810183905201526001600160a01b0381169060a081901c65ffffffffffff16908115613922575b60409060d01c9165ffffffffffff8251916138fc83611f68565b858352846020840152169182910152421190811561391957509091565b90504211159091565b65ffffffffffff91506138e2565b505f905f90565b929190915f908061394a575b5050505050565b8351516001600160a01b0316946139618285613668565b613bac57853b613b605760408551015160206040518092632b870d1b60e11b8252826004830152818781613999602482018a8d6123ca565b03927f00000000000000000000000000000000000000000000000000000000000000006001600160a01b031690f1908115613b55578491613b36575b506001600160a01b0381168015613aec578703613aa0573b15613a545750601411613a515750602082810151925160e0015160408051933560601c84526001600160a01b03909116918301919091527fd51a9c61267aa6196961883ecf5ff2da6619c37dac0fa92122513fb32c032d2d91a35f80808080613943565b80fd5b60849060405190631101335b60e11b8252600482015260406024820152602060448201527f4141313520696e6974436f6465206d757374206372656174652073656e6465726064820152fd5b60848260405190631101335b60e11b8252600482015260406024820152602060448201527f4141313420696e6974436f6465206d7573742072657475726e2073656e6465726064820152fd5b60848360405190631101335b60e11b8252600482015260406024820152601b60448201527a4141313320696e6974436f6465206661696c6564206f72204f4f4760281b6064820152fd5b613b4f915060203d602011611160576111528183611f83565b5f6139d5565b6040513d86823e3d90fd5b60849060405190631101335b60e11b8252600482015260406024820152601f60448201527f414131302073656e64657220616c726561647920636f6e7374727563746564006064820152fd5b50919392505060148111613bbf57505050565b7f00000000000000000000000000000000000000000000000000000000000000006001600160a01b031660148210611e2057803b15611e2057613c31935f80946040519687958694859363c09ad0d960e01b8552600485015260406024850152601460448501926013190191016123ca565b03925af18015613c4e57613c425750565b5f613c4c91611f83565b565b6040513d5f823e3d90fd5b60018060a01b03165f525f60205260405f209081548181106128565703905560019056fe41413236206f76657220766572696669636174696f6e4761734c696d6974000041413331207061796d6173746572206465706f73697420746f6f206c6f770000575ff3acadd5ab348fe1855e217e0f3678f8d767d7494c9f9fefbee2e17cca4d41413336206f766572207061796d6173746572566572696669636174696f6e47bb47ee3e183a558b1a2ff0874b079f3fc5478b7454eacf2bfc5af2ff5878f97241413332207061796d61737465722065787069726564206f72206e6f7420647529a0bca4af4be3421398da00295e58e6d7de38cb492214754cb6a47507dd6f8e9b779b17422d0df92223018b32b4d1fa46e071723d6817e2486d003becc55f0049628fd1471006c1482da88028e9ce4dbb080b815c9b0344d39e5a8e6ec1419fa26469706673582212202bf19ab4a4a95c924588ded36b923d14a03e6d1d39db55b3c595466e1a4c549964736f6c634300081c003360a08060405234602f573360805261037f9081610034823960805181818160980152818161019001526102140152f35b5f80fdfe60806040526004361015610011575f80fd5b5f3560e01c8063570e1a36146101bf578063b0d691fe1461017b5763c09ad0d91461003a575f80fd5b34610177576040366003190112610177576004356001600160a01b0381168103610177576024356001600160401b0381116101775736602382011215610177575f9161009183923690602481600401359101610294565b906100c6337f00000000000000000000000000000000000000000000000000000000000000006001600160a01b0316146102fe565b82602083519301915af1156100d757005b3d610800811161016e575b60c460405160208382010160405282815260208101925f843e6040519283916365c8fd4d60e01b83525f600484015260606024840152601f60648401527f4141313320454950373730322073656e64657220696e6974206661696c656400608484015260a060448401525180918160a48501528484015e5f828201840152601f01601f19168101030190fd5b506108006100e2565b5f80fd5b34610177575f366003190112610177576040517f00000000000000000000000000000000000000000000000000000000000000006001600160a01b03168152602090f35b34610177576020366003190112610177576004356001600160401b0381116101775736602382011215610177576004810135906001600160401b038211610177573660248383010111610177575f91610242337f00000000000000000000000000000000000000000000000000000000000000006001600160a01b0316146102fe565b80601411610177576020916102615f9236906013190160388401610294565b90826024858451940192013560601c5af161028c575b6040516001600160a01b039091168152602090f35b505f51610277565b9192916001600160401b0382116102ea5760405191601f8101601f19908116603f011683016001600160401b038111848210176102ea57604052829481845281830111610177578281602093845f960137010152565b634e487b7160e01b5f52604160045260245ffd5b1561030557565b606460405162461bcd60e51b815260206004820152602060248201527f414139372073686f756c642063616c6c2066726f6d20456e747279506f696e746044820152fdfea264697066735822122018cb04967e0d61080880f4eb9b7995ae8fb05f0920566cffdc4b75be60d2d1da64736f6c634300081c0033","linkReferences":{}},"methodIdentifiers":{"addStake(uint32)":"0396cb60","balanceOf(address)":"70a08231","delegateAndRevert(address,bytes)":"850aaf62","depositTo(address)":"b760faf9","eip712Domain()":"84b0196e","getDepositInfo(address)":"5287ce12","getDomainSeparatorV4()":"13c65a6e","getNonce(address,uint192)":"35567e1a","getPackedUserOpTypeHash()":"154e58dc","getSenderAddress(bytes)":"9b249f69","getUserOpHash((address,uint256,bytes,bytes,bytes32,uint256,bytes32,bytes,bytes))":"22cdde4c","handleAggregatedOps(((address,uint256,bytes,bytes,bytes32,uint256,bytes32,bytes,bytes)[],address,bytes)[],address)":"dbed18e0","handleOps((address,uint256,bytes,bytes,bytes32,uint256,bytes32,bytes,bytes)[],address)":"765e827f","incrementNonce(uint192)":"0bd28e3b","innerHandleOp(bytes,((address,uint256,uint256,uint256,uint256,uint256,uint256,address,uint256,uint256),bytes32,uint256,uint256,uint256),bytes)":"0042dc53","nonceSequenceNumber(address,uint192)":"1b2e01b8","senderCreator()":"09ccb880","supportsInterface(bytes4)":"01ffc9a7","unlockStake()":"bb9fe6bf","withdrawStake(address)":"c23a5cea","withdrawTo(address,uint256)":"205c2878"},"id":1}