{"abi":[{"type":"function","name":"UPGRADE_INTERFACE_VERSION","inputs":[],"outputs":[{"name":"","type":"string","internalType":"string"}],"stateMutability":"view"},{"type":"function","name":"getNumber","inputs":[],"outputs":[{"name":"","type":"uint256","internalType":"uint256"}],"stateMutability":"view"},{"type":"function","name":"proxiableUUID","inputs":[],"outputs":[{"name":"","type":"bytes32","internalType":"bytes32"}],"stateMutability":"view"},{"type":"function","name":"setNumber","inputs":[{"name":"_number","type":"uint256","internalType":"uint256"}],"outputs":[],"stateMutability":"nonpayable"},{"type":"function","name":"upgradeToAndCall","inputs":[{"name":"newImplementation","type":"address","internalType":"address"},{"name":"data","type":"bytes","internalType":"bytes"}],"outputs":[],"stateMutability":"payable"},{"type":"function","name":"version","inputs":[],"outputs":[{"name":"","type":"uint256","internalType":"uint256"}],"stateMutability":"pure"},{"type":"event","name":"Initialized","inputs":[{"name":"version","type":"uint64","indexed":false,"internalType":"uint64"}],"anonymous":false},{"type":"event","name":"Upgraded","inputs":[{"name":"implementation","type":"address","indexed":true,"internalType":"address"}],"anonymous":false},{"type":"error","name":"AddressEmptyCode","inputs":[{"name":"target","type":"address","internalType":"address"}]},{"type":"error","name":"ERC1967InvalidImplementation","inputs":[{"name":"implementation","type":"address","internalType":"address"}]},{"type":"error","name":"ERC1967NonPayable","inputs":[]},{"type":"error","name":"FailedCall","inputs":[]},{"type":"error","name":"InvalidInitialization","inputs":[]},{"type":"error","name":"NotInitializing","inputs":[]},{"type":"error","name":"UUPSUnauthorizedCallContext","inputs":[]},{"type":"error","name":"UUPSUnsupportedProxiableUUID","inputs":[{"name":"slot","type":"bytes32","internalType":"bytes32"}]}],"bytecode":{"object":"0x60a06040523073ffffffffffffffffffffffffffffffffffffffff1660809073ffffffffffffffffffffffffffffffffffffffff16815250348015610042575f80fd5b50608051610bf76100695f395f81816101e80152818161023d01526103ef0152610bf75ff3fe608060405260043610610054575f3560e01c80633fb5c1cb146100585780634f1ef2861461008057806352d1902d1461009c57806354fd4d50146100c6578063ad3cb1cc146100f0578063f2c9ecd81461011a575b5f80fd5b348015610063575f80fd5b5061007e600480360381019061007991906107dc565b610144565b005b61009a6004803603810190610095919061099d565b61014d565b005b3480156100a7575f80fd5b506100b061016c565b6040516100bd9190610a0f565b60405180910390f35b3480156100d1575f80fd5b506100da61019d565b6040516100e79190610a37565b60405180910390f35b3480156100fb575f80fd5b506101046101a5565b6040516101119190610aca565b60405180910390f35b348015610125575f80fd5b5061012e6101de565b60405161013b9190610a37565b60405180910390f35b805f8190555050565b6101556101e6565b61015e826102cc565b61016882826102cf565b5050565b5f6101756103ed565b7f360894a13ba1a3210667c828492db98dca3e2076cc3735a920a3ca505d382bbc5f1b905090565b5f6002905090565b6040518060400160405280600581526020017f352e302e3000000000000000000000000000000000000000000000000000000081525081565b5f8054905090565b7f000000000000000000000000000000000000000000000000000000000000000073ffffffffffffffffffffffffffffffffffffffff163073ffffffffffffffffffffffffffffffffffffffff16148061029357507f000000000000000000000000000000000000000000000000000000000000000073ffffffffffffffffffffffffffffffffffffffff1661027a610474565b73ffffffffffffffffffffffffffffffffffffffff1614155b156102ca576040517fe07c8dba00000000000000000000000000000000000000000000000000000000815260040160405180910390fd5b565b50565b8173ffffffffffffffffffffffffffffffffffffffff166352d1902d6040518163ffffffff1660e01b8152600401602060405180830381865afa92505050801561033757506040513d601f19601f820116820180604052508101906103349190610b14565b60015b61037857816040517f4c9c8ce300000000000000000000000000000000000000000000000000000000815260040161036f9190610b4e565b60405180910390fd5b7f360894a13ba1a3210667c828492db98dca3e2076cc3735a920a3ca505d382bbc5f1b81146103de57806040517faa1d49a40000000000000000000000000000000000000000000000000000000081526004016103d59190610a0f565b60405180910390fd5b6103e883836104c7565b505050565b7f000000000000000000000000000000000000000000000000000000000000000073ffffffffffffffffffffffffffffffffffffffff163073ffffffffffffffffffffffffffffffffffffffff1614610472576040517fe07c8dba00000000000000000000000000000000000000000000000000000000815260040160405180910390fd5b565b5f6104a07f360894a13ba1a3210667c828492db98dca3e2076cc3735a920a3ca505d382bbc5f1b610539565b5f015f9054906101000a900473ffffffffffffffffffffffffffffffffffffffff16905090565b6104d082610542565b8173ffffffffffffffffffffffffffffffffffffffff167fbc7cd75a20ee27fd9adebab32041f755214dbc6bffa90cc0225b39da2e5c2d3b60405160405180910390a25f8151111561052c57610526828261060b565b50610535565b61053461068b565b5b5050565b5f819050919050565b5f8173ffffffffffffffffffffffffffffffffffffffff163b0361059d57806040517f4c9c8ce30000000000000000000000000000000000000000000000000000000081526004016105949190610b4e565b60405180910390fd5b806105c97f360894a13ba1a3210667c828492db98dca3e2076cc3735a920a3ca505d382bbc5f1b610539565b5f015f6101000a81548173ffffffffffffffffffffffffffffffffffffffff021916908373ffffffffffffffffffffffffffffffffffffffff16021790555050565b60605f808473ffffffffffffffffffffffffffffffffffffffff16846040516106349190610bab565b5f60405180830381855af49150503d805f811461066c576040519150601f19603f3d011682016040523d82523d5f602084013e610671565b606091505b50915091506106818583836106c7565b9250505092915050565b5f3411156106c5576040517fb398979f00000000000000000000000000000000000000000000000000000000815260040160405180910390fd5b565b6060826106dc576106d782610754565b61074c565b5f825114801561070257505f8473ffffffffffffffffffffffffffffffffffffffff163b145b1561074457836040517f9996b31500000000000000000000000000000000000000000000000000000000815260040161073b9190610b4e565b60405180910390fd5b81905061074d565b5b9392505050565b5f815111156107665780518082602001fd5b6040517fd6bda27500000000000000000000000000000000000000000000000000000000815260040160405180910390fd5b5f604051905090565b5f80fd5b5f80fd5b5f819050919050565b6107bb816107a9565b81146107c5575f80fd5b50565b5f813590506107d6816107b2565b92915050565b5f602082840312156107f1576107f06107a1565b5b5f6107fe848285016107c8565b91505092915050565b5f73ffffffffffffffffffffffffffffffffffffffff82169050919050565b5f61083082610807565b9050919050565b61084081610826565b811461084a575f80fd5b50565b5f8135905061085b81610837565b92915050565b5f80fd5b5f80fd5b5f601f19601f8301169050919050565b7f4e487b71000000000000000000000000000000000000000000000000000000005f52604160045260245ffd5b6108af82610869565b810181811067ffffffffffffffff821117156108ce576108cd610879565b5b80604052505050565b5f6108e0610798565b90506108ec82826108a6565b919050565b5f67ffffffffffffffff82111561090b5761090a610879565b5b61091482610869565b9050602081019050919050565b828183375f83830152505050565b5f61094161093c846108f1565b6108d7565b90508281526020810184848401111561095d5761095c610865565b5b610968848285610921565b509392505050565b5f82601f83011261098457610983610861565b5b813561099484826020860161092f565b91505092915050565b5f80604083850312156109b3576109b26107a1565b5b5f6109c08582860161084d565b925050602083013567ffffffffffffffff8111156109e1576109e06107a5565b5b6109ed85828601610970565b9150509250929050565b5f819050919050565b610a09816109f7565b82525050565b5f602082019050610a225f830184610a00565b92915050565b610a31816107a9565b82525050565b5f602082019050610a4a5f830184610a28565b92915050565b5f81519050919050565b5f82825260208201905092915050565b5f5b83811015610a87578082015181840152602081019050610a6c565b5f8484015250505050565b5f610a9c82610a50565b610aa68185610a5a565b9350610ab6818560208601610a6a565b610abf81610869565b840191505092915050565b5f6020820190508181035f830152610ae28184610a92565b905092915050565b610af3816109f7565b8114610afd575f80fd5b50565b5f81519050610b0e81610aea565b92915050565b5f60208284031215610b2957610b286107a1565b5b5f610b3684828501610b00565b91505092915050565b610b4881610826565b82525050565b5f602082019050610b615f830184610b3f565b92915050565b5f81519050919050565b5f81905092915050565b5f610b8582610b67565b610b8f8185610b71565b9350610b9f818560208601610a6a565b80840191505092915050565b5f610bb68284610b7b565b91508190509291505056fea264697066735822122074395f27a8584326758b04f5ba3d6db5fdcd6cafc35dde3862839f264aadbae964736f6c63430008180033","linkReferences":{}},"methodIdentifiers":{"UPGRADE_INTERFACE_VERSION()":"ad3cb1cc","getNumber()":"f2c9ecd8","proxiableUUID()":"52d1902d","setNumber(uint256)":"3fb5c1cb","upgradeToAndCall(address,bytes)":"4f1ef286","version()":"54fd4d50"},"id":38}