{"abi":[{"type":"constructor","inputs":[],"stateMutability":"nonpayable"},{"type":"function","name":"UPGRADE_INTERFACE_VERSION","inputs":[],"outputs":[{"name":"","type":"string","internalType":"string"}],"stateMutability":"view"},{"type":"function","name":"getNumber","inputs":[],"outputs":[{"name":"","type":"uint256","internalType":"uint256"}],"stateMutability":"view"},{"type":"function","name":"initialize","inputs":[],"outputs":[],"stateMutability":"nonpayable"},{"type":"function","name":"owner","inputs":[],"outputs":[{"name":"","type":"address","internalType":"address"}],"stateMutability":"view"},{"type":"function","name":"proxiableUUID","inputs":[],"outputs":[{"name":"","type":"bytes32","internalType":"bytes32"}],"stateMutability":"view"},{"type":"function","name":"renounceOwnership","inputs":[],"outputs":[],"stateMutability":"nonpayable"},{"type":"function","name":"transferOwnership","inputs":[{"name":"newOwner","type":"address","internalType":"address"}],"outputs":[],"stateMutability":"nonpayable"},{"type":"function","name":"upgradeToAndCall","inputs":[{"name":"newImplementation","type":"address","internalType":"address"},{"name":"data","type":"bytes","internalType":"bytes"}],"outputs":[],"stateMutability":"payable"},{"type":"function","name":"version","inputs":[],"outputs":[{"name":"","type":"uint256","internalType":"uint256"}],"stateMutability":"pure"},{"type":"event","name":"Initialized","inputs":[{"name":"version","type":"uint64","indexed":false,"internalType":"uint64"}],"anonymous":false},{"type":"event","name":"OwnershipTransferred","inputs":[{"name":"previousOwner","type":"address","indexed":true,"internalType":"address"},{"name":"newOwner","type":"address","indexed":true,"internalType":"address"}],"anonymous":false},{"type":"event","name":"Upgraded","inputs":[{"name":"implementation","type":"address","indexed":true,"internalType":"address"}],"anonymous":false},{"type":"error","name":"AddressEmptyCode","inputs":[{"name":"target","type":"address","internalType":"address"}]},{"type":"error","name":"ERC1967InvalidImplementation","inputs":[{"name":"implementation","type":"address","internalType":"address"}]},{"type":"error","name":"ERC1967NonPayable","inputs":[]},{"type":"error","name":"FailedCall","inputs":[]},{"type":"error","name":"InvalidInitialization","inputs":[]},{"type":"error","name":"NotInitializing","inputs":[]},{"type":"error","name":"OwnableInvalidOwner","inputs":[{"name":"owner","type":"address","internalType":"address"}]},{"type":"error","name":"OwnableUnauthorizedAccount","inputs":[{"name":"account","type":"address","internalType":"address"}]},{"type":"error","name":"UUPSUnauthorizedCallContext","inputs":[]},{"type":"error","name":"UUPSUnsupportedProxiableUUID","inputs":[{"name":"slot","type":"bytes32","internalType":"bytes32"}]}],"bytecode":{"object":"0x60a06040523073ffffffffffffffffffffffffffffffffffffffff1660809073ffffffffffffffffffffffffffffffffffffffff1681525034801562000043575f80fd5b50620000546200005a60201b60201c565b620001e1565b5f6200006b6200015e60201b60201c565b9050805f0160089054906101000a900460ff1615620000b6576040517ff92ee8a900000000000000000000000000000000000000000000000000000000815260040160405180910390fd5b67ffffffffffffffff8016815f015f9054906101000a900467ffffffffffffffff1667ffffffffffffffff16146200015b5767ffffffffffffffff815f015f6101000a81548167ffffffffffffffff021916908367ffffffffffffffff1602179055507fc7f505b2f371ae2175ee4913f4499e1f2633a7b5936321eed1cdaeb6115181d267ffffffffffffffff604051620001529190620001c6565b60405180910390a15b50565b5f80620001706200017960201b60201c565b90508091505090565b5f7ff0c57e16840df040f15088dc2f81fe391c3923bec73e23a9662efc9c229c6a005f1b905090565b5f67ffffffffffffffff82169050919050565b620001c081620001a2565b82525050565b5f602082019050620001db5f830184620001b5565b92915050565b6080516111cf620002085f395f81816104ba0152818161050f01526106c101526111cf5ff3fe608060405260043610610085575f3560e01c80638129fc1c116100585780638129fc1c1461010f5780638da5cb5b14610125578063ad3cb1cc1461014f578063f2c9ecd814610179578063f2fde38b146101a357610085565b80634f1ef2861461008957806352d1902d146100a557806354fd4d50146100cf578063715018a6146100f9575b5f80fd5b6100a3600480360381019061009e9190610ed3565b6101cb565b005b3480156100b0575f80fd5b506100b96101ea565b6040516100c69190610f45565b60405180910390f35b3480156100da575f80fd5b506100e361021b565b6040516100f09190610f76565b60405180910390f35b348015610104575f80fd5b5061010d610223565b005b34801561011a575f80fd5b50610123610236565b005b348015610130575f80fd5b506101396103be565b6040516101469190610f9e565b60405180910390f35b34801561015a575f80fd5b506101636103f3565b6040516101709190611031565b60405180910390f35b348015610184575f80fd5b5061018d61042c565b60405161019a9190610f76565b60405180910390f35b3480156101ae575f80fd5b506101c960048036038101906101c49190611051565b610434565b005b6101d36104b8565b6101dc8261059e565b6101e682826105a1565b5050565b5f6101f36106bf565b7f360894a13ba1a3210667c828492db98dca3e2076cc3735a920a3ca505d382bbc5f1b905090565b5f6001905090565b61022b610746565b6102345f6107cd565b565b5f61023f61089e565b90505f815f0160089054906101000a900460ff161590505f825f015f9054906101000a900467ffffffffffffffff1690505f808267ffffffffffffffff161480156102875750825b90505f60018367ffffffffffffffff161480156102ba57505f3073ffffffffffffffffffffffffffffffffffffffff163b145b9050811580156102c8575080155b156102ff576040517ff92ee8a900000000000000000000000000000000000000000000000000000000815260040160405180910390fd5b6001855f015f6101000a81548167ffffffffffffffff021916908367ffffffffffffffff160217905550831561034c576001855f0160086101000a81548160ff0219169083151502179055505b610355336108b1565b61035d6108c5565b83156103b7575f855f0160086101000a81548160ff0219169083151502179055507fc7f505b2f371ae2175ee4913f4499e1f2633a7b5936321eed1cdaeb6115181d260016040516103ae91906110d1565b60405180910390a15b5050505050565b5f806103c86108cf565b9050805f015f9054906101000a900473ffffffffffffffffffffffffffffffffffffffff1691505090565b6040518060400160405280600581526020017f352e302e3000000000000000000000000000000000000000000000000000000081525081565b5f8054905090565b61043c610746565b5f73ffffffffffffffffffffffffffffffffffffffff168173ffffffffffffffffffffffffffffffffffffffff16036104ac575f6040517f1e4fbdf70000000000000000000000000000000000000000000000000000000081526004016104a39190610f9e565b60405180910390fd5b6104b5816107cd565b50565b7f000000000000000000000000000000000000000000000000000000000000000073ffffffffffffffffffffffffffffffffffffffff163073ffffffffffffffffffffffffffffffffffffffff16148061056557507f000000000000000000000000000000000000000000000000000000000000000073ffffffffffffffffffffffffffffffffffffffff1661054c6108f6565b73ffffffffffffffffffffffffffffffffffffffff1614155b1561059c576040517fe07c8dba00000000000000000000000000000000000000000000000000000000815260040160405180910390fd5b565b50565b8173ffffffffffffffffffffffffffffffffffffffff166352d1902d6040518163ffffffff1660e01b8152600401602060405180830381865afa92505050801561060957506040513d601f19601f820116820180604052508101906106069190611114565b60015b61064a57816040517f4c9c8ce30000000000000000000000000000000000000000000000000000000081526004016106419190610f9e565b60405180910390fd5b7f360894a13ba1a3210667c828492db98dca3e2076cc3735a920a3ca505d382bbc5f1b81146106b057806040517faa1d49a40000000000000000000000000000000000000000000000000000000081526004016106a79190610f45565b60405180910390fd5b6106ba8383610949565b505050565b7f000000000000000000000000000000000000000000000000000000000000000073ffffffffffffffffffffffffffffffffffffffff163073ffffffffffffffffffffffffffffffffffffffff1614610744576040517fe07c8dba00000000000000000000000000000000000000000000000000000000815260040160405180910390fd5b565b61074e6109bb565b73ffffffffffffffffffffffffffffffffffffffff1661076c6103be565b73ffffffffffffffffffffffffffffffffffffffff16146107cb5761078f6109bb565b6040517f118cdaa70000000000000000000000000000000000000000000000000000000081526004016107c29190610f9e565b60405180910390fd5b565b5f6107d66108cf565b90505f815f015f9054906101000a900473ffffffffffffffffffffffffffffffffffffffff16905082825f015f6101000a81548173ffffffffffffffffffffffffffffffffffffffff021916908373ffffffffffffffffffffffffffffffffffffffff1602179055508273ffffffffffffffffffffffffffffffffffffffff168173ffffffffffffffffffffffffffffffffffffffff167f8be0079c531659141344cd1fd0a4f28419497f9722a3daafe3b4186f6b6457e060405160405180910390a3505050565b5f806108a86109c2565b90508091505090565b6108b96109eb565b6108c281610a2b565b50565b6108cd6109eb565b565b5f7f9016d09d72d40fdae2fd8ceac6b6234c7706214fd39c1cd1e609a0528c199300905090565b5f6109227f360894a13ba1a3210667c828492db98dca3e2076cc3735a920a3ca505d382bbc5f1b610aaf565b5f015f9054906101000a900473ffffffffffffffffffffffffffffffffffffffff16905090565b61095282610ab8565b8173ffffffffffffffffffffffffffffffffffffffff167fbc7cd75a20ee27fd9adebab32041f755214dbc6bffa90cc0225b39da2e5c2d3b60405160405180910390a25f815111156109ae576109a88282610b81565b506109b7565b6109b6610c01565b5b5050565b5f33905090565b5f7ff0c57e16840df040f15088dc2f81fe391c3923bec73e23a9662efc9c229c6a005f1b905090565b6109f3610c3d565b610a29576040517fd7e6bcf800000000000000000000000000000000000000000000000000000000815260040160405180910390fd5b565b610a336109eb565b5f73ffffffffffffffffffffffffffffffffffffffff168173ffffffffffffffffffffffffffffffffffffffff1603610aa3575f6040517f1e4fbdf7000000000000000000000000000000000000000000000000000000008152600401610a9a9190610f9e565b60405180910390fd5b610aac816107cd565b50565b5f819050919050565b5f8173ffffffffffffffffffffffffffffffffffffffff163b03610b1357806040517f4c9c8ce3000000000000000000000000000000000000000000000000000000008152600401610b0a9190610f9e565b60405180910390fd5b80610b3f7f360894a13ba1a3210667c828492db98dca3e2076cc3735a920a3ca505d382bbc5f1b610aaf565b5f015f6101000a81548173ffffffffffffffffffffffffffffffffffffffff021916908373ffffffffffffffffffffffffffffffffffffffff16021790555050565b60605f808473ffffffffffffffffffffffffffffffffffffffff1684604051610baa9190611183565b5f60405180830381855af49150503d805f8114610be2576040519150601f19603f3d011682016040523d82523d5f602084013e610be7565b606091505b5091509150610bf7858383610c5b565b9250505092915050565b5f341115610c3b576040517fb398979f00000000000000000000000000000000000000000000000000000000815260040160405180910390fd5b565b5f610c4661089e565b5f0160089054906101000a900460ff16905090565b606082610c7057610c6b82610ce8565b610ce0565b5f8251148015610c9657505f8473ffffffffffffffffffffffffffffffffffffffff163b145b15610cd857836040517f9996b315000000000000000000000000000000000000000000000000000000008152600401610ccf9190610f9e565b60405180910390fd5b819050610ce1565b5b9392505050565b5f81511115610cfa5780518082602001fd5b6040517fd6bda27500000000000000000000000000000000000000000000000000000000815260040160405180910390fd5b5f604051905090565b5f80fd5b5f80fd5b5f73ffffffffffffffffffffffffffffffffffffffff82169050919050565b5f610d6682610d3d565b9050919050565b610d7681610d5c565b8114610d80575f80fd5b50565b5f81359050610d9181610d6d565b92915050565b5f80fd5b5f80fd5b5f601f19601f8301169050919050565b7f4e487b71000000000000000000000000000000000000000000000000000000005f52604160045260245ffd5b610de582610d9f565b810181811067ffffffffffffffff82111715610e0457610e03610daf565b5b80604052505050565b5f610e16610d2c565b9050610e228282610ddc565b919050565b5f67ffffffffffffffff821115610e4157610e40610daf565b5b610e4a82610d9f565b9050602081019050919050565b828183375f83830152505050565b5f610e77610e7284610e27565b610e0d565b905082815260208101848484011115610e9357610e92610d9b565b5b610e9e848285610e57565b509392505050565b5f82601f830112610eba57610eb9610d97565b5b8135610eca848260208601610e65565b91505092915050565b5f8060408385031215610ee957610ee8610d35565b5b5f610ef685828601610d83565b925050602083013567ffffffffffffffff811115610f1757610f16610d39565b5b610f2385828601610ea6565b9150509250929050565b5f819050919050565b610f3f81610f2d565b82525050565b5f602082019050610f585f830184610f36565b92915050565b5f819050919050565b610f7081610f5e565b82525050565b5f602082019050610f895f830184610f67565b92915050565b610f9881610d5c565b82525050565b5f602082019050610fb15f830184610f8f565b92915050565b5f81519050919050565b5f82825260208201905092915050565b5f5b83811015610fee578082015181840152602081019050610fd3565b5f8484015250505050565b5f61100382610fb7565b61100d8185610fc1565b935061101d818560208601610fd1565b61102681610d9f565b840191505092915050565b5f6020820190508181035f8301526110498184610ff9565b905092915050565b5f6020828403121561106657611065610d35565b5b5f61107384828501610d83565b91505092915050565b5f819050919050565b5f67ffffffffffffffff82169050919050565b5f819050919050565b5f6110bb6110b66110b18461107c565b611098565b611085565b9050919050565b6110cb816110a1565b82525050565b5f6020820190506110e45f8301846110c2565b92915050565b6110f381610f2d565b81146110fd575f80fd5b50565b5f8151905061110e816110ea565b92915050565b5f6020828403121561112957611128610d35565b5b5f61113684828501611100565b91505092915050565b5f81519050919050565b5f81905092915050565b5f61115d8261113f565b6111678185611149565b9350611177818560208601610fd1565b80840191505092915050565b5f61118e8284611153565b91508190509291505056fea2646970667358221220fd4d1a2377f1fa7b19feeb385b893d56fb7bc084aebeb4dccd5d607e4168967f64736f6c63430008180033","linkReferences":{}},"methodIdentifiers":{"UPGRADE_INTERFACE_VERSION()":"ad3cb1cc","getNumber()":"f2c9ecd8","initialize()":"8129fc1c","owner()":"8da5cb5b","proxiableUUID()":"52d1902d","renounceOwnership()":"715018a6","transferOwnership(address)":"f2fde38b","upgradeToAndCall(address,bytes)":"4f1ef286","version()":"54fd4d50"},"id":37}