{"abi":[{"type":"constructor","inputs":[{"name":"entryPoint","type":"address","internalType":"address"}],"stateMutability":"nonpayable"},{"type":"receive","stateMutability":"payable"},{"type":"function","name":"execute","inputs":[{"name":"dest","type":"address","internalType":"address"},{"name":"value","type":"uint256","internalType":"uint256"},{"name":"functionData","type":"bytes","internalType":"bytes"}],"outputs":[],"stateMutability":"nonpayable"},{"type":"function","name":"getEntryPoint","inputs":[],"outputs":[{"name":"","type":"address","internalType":"address"}],"stateMutability":"view"},{"type":"function","name":"owner","inputs":[],"outputs":[{"name":"","type":"address","internalType":"address"}],"stateMutability":"view"},{"type":"function","name":"renounceOwnership","inputs":[],"outputs":[],"stateMutability":"nonpayable"},{"type":"function","name":"transferOwnership","inputs":[{"name":"newOwner","type":"address","internalType":"address"}],"outputs":[],"stateMutability":"nonpayable"},{"type":"function","name":"validateUserOp","inputs":[{"name":"userOp","type":"tuple","internalType":"struct PackedUserOperation","components":[{"name":"sender","type":"address","internalType":"address"},{"name":"nonce","type":"uint256","internalType":"uint256"},{"name":"initCode","type":"bytes","internalType":"bytes"},{"name":"callData","type":"bytes","internalType":"bytes"},{"name":"accountGasLimits","type":"bytes32","internalType":"bytes32"},{"name":"preVerificationGas","type":"uint256","internalType":"uint256"},{"name":"gasFees","type":"bytes32","internalType":"bytes32"},{"name":"paymasterAndData","type":"bytes","internalType":"bytes"},{"name":"signature","type":"bytes","internalType":"bytes"}]},{"name":"userOpHash","type":"bytes32","internalType":"bytes32"},{"name":"missingAccountFunds","type":"uint256","internalType":"uint256"}],"outputs":[{"name":"validationData","type":"uint256","internalType":"uint256"}],"stateMutability":"nonpayable"},{"type":"event","name":"OwnershipTransferred","inputs":[{"name":"previousOwner","type":"address","indexed":true,"internalType":"address"},{"name":"newOwner","type":"address","indexed":true,"internalType":"address"}],"anonymous":false},{"type":"error","name":"ECDSAInvalidSignature","inputs":[]},{"type":"error","name":"ECDSAInvalidSignatureLength","inputs":[{"name":"length","type":"uint256","internalType":"uint256"}]},{"type":"error","name":"ECDSAInvalidSignatureS","inputs":[{"name":"s","type":"bytes32","internalType":"bytes32"}]},{"type":"error","name":"MinimalAccount__CallFailed","inputs":[{"name":"result","type":"bytes","internalType":"bytes"}]},{"type":"error","name":"MinimalAccount__NotFromEntryPoint","inputs":[{"name":"sender","type":"address","internalType":"address"},{"name":"entryPoint","type":"address","internalType":"address"}]},{"type":"error","name":"MinimalAccount__NotFromEntryPointOrOwner","inputs":[{"name":"sender","type":"address","internalType":"address"},{"name":"entryPoint","type":"address","internalType":"address"},{"name":"owner","type":"address","internalType":"address"}]},{"type":"error","name":"OwnableInvalidOwner","inputs":[{"name":"owner","type":"address","internalType":"address"}]},{"type":"error","name":"OwnableUnauthorizedAccount","inputs":[{"name":"account","type":"address","internalType":"address"}]}],"bytecode":{"object":"0x60a0346100d857601f61075e38819003918201601f19168301916001600160401b038311848410176100dc578084926020946040528339810103126100d857516001600160a01b038116908190036100d85733156100c5575f8054336001600160a01b0319821681178355604051939290916001600160a01b0316907f8be0079c531659141344cd1fd0a4f28419497f9722a3daafe3b4186f6b6457e09080a360805261066d90816100f1823960805181818161012d0152818161028901526102ee0152f35b631e4fbdf760e01b5f525f60045260245ffd5b5f80fd5b634e487b7160e01b5f52604160045260245ffdfe6080604052600436101561001a575b3615610018575f80fd5b005b5f3560e01c806319822f7c146102b857806344ab613f14610274578063715018a6146102305780638da5cb5b14610209578063b61d27f6146100d65763f2fde38b0361000e57346100d25760203660031901126100d257610079610370565b6100816104c0565b6001600160a01b031680156100bf575f80546001600160a01b03198116831782556001600160a01b0316905f5160206106185f395f51905f529080a3005b631e4fbdf760e01b5f525f60045260245ffd5b5f80fd5b346100d25760603660031901126100d2576100ef610370565b604435906001600160401b0382116100d257366023830112156100d25760048201356001600160401b0381116100d25736602482850101116100d2577f00000000000000000000000000000000000000000000000000000000000000006001600160a01b031633811415806101f5575b6101d1575f8084602487868060405193849301833781018481520391602435905af16101896103da565b901561019157005b604460209160405192839163038fe21560e41b83528160048401528051918291826024860152018484015e5f828201840152601f01601f19168101030190fd5b60018060a01b035f54169063025102b960e31b5f523360045260245260445260645ffd5b505f546001600160a01b031633141561015f565b346100d2575f3660031901126100d2575f546040516001600160a01b039091168152602090f35b346100d2575f3660031901126100d2576102486104c0565b5f80546001600160a01b0319811682556001600160a01b03165f5160206106185f395f51905f528280a3005b346100d2575f3660031901126100d2576040517f00000000000000000000000000000000000000000000000000000000000000006001600160a01b03168152602090f35b346100d25760603660031901126100d2576004356001600160401b0381116100d25761012060031982360301126100d2576044357f00000000000000000000000000000000000000000000000000000000000000006001600160a01b03163381900361035a575061033160209260243590600401610404565b9080610341575b50604051908152f35b5f80808093338219f1506103536103da565b5082610338565b634ad750fd60e11b5f523360045260245260445ffd5b600435906001600160a01b03821682036100d257565b6040519190601f01601f191682016001600160401b038111838210176103ab57604052565b634e487b7160e01b5f52604160045260245ffd5b6001600160401b0381116103ab57601f01601f191660200190565b3d156103ff573d906103f36103ee836103bf565b610386565b9182523d5f602084013e565b606090565b907b0ca2ba3432b932bab69029b4b3b732b21026b2b9b9b0b3b29d05199960211b5f52601c52603c5f209061010081013590601e19813603018212156100d25701803591906001600160401b0383116100d257602081019183360383136100d2576104716103ee856103bf565b9184835260208536920101116100d2575f6020856104a39661049a9683870137840101526104e6565b90929192610520565b5f546001600160a01b039081169116036104bb575f90565b600190565b5f546001600160a01b031633036104d357565b63118cdaa760e01b5f523360045260245ffd5b81519190604183036105165761050f9250602082015190606060408401519301515f1a90610594565b9192909190565b50505f9160029190565b60048110156105805780610532575050565b600181036105495763f645eedf60e01b5f5260045ffd5b60028103610564575063fce698f760e01b5f5260045260245ffd5b60031461056e5750565b6335e2f38360e21b5f5260045260245ffd5b634e487b7160e01b5f52602160045260245ffd5b91906fa2a8918ca85bafe22016d0b997e4df60600160ff1b03841161060c579160209360809260ff5f9560405194855216868401526040830152606082015282805260015afa15610601575f516001600160a01b038116156105f757905f905f90565b505f906001905f90565b6040513d5f823e3d90fd5b5050505f916003919056fe8be0079c531659141344cd1fd0a4f28419497f9722a3daafe3b4186f6b6457e0a264697066735822122064931fb3d08d66984833be4dfaf9544fd48077f2b6b60ccb3592afd51df43bb964736f6c634300081c0033","linkReferences":{}},"methodIdentifiers":{"execute(address,uint256,bytes)":"b61d27f6","getEntryPoint()":"44ab613f","owner()":"8da5cb5b","renounceOwnership()":"715018a6","transferOwnership(address)":"f2fde38b","validateUserOp((address,uint256,bytes,bytes,bytes32,uint256,bytes32,bytes,bytes),bytes32,uint256)":"19822f7c"},"id":87}